{
  "_format": "hh-sol-artifact-1",
  "contractName": "BasisRollup",
  "sourceName": "contracts/BasisRollup.sol",
  "abi": [
    {
      "inputs": [
        {
          "internalType": "address",
          "name": "_enterpriseRegistry",
          "type": "address"
        }
      ],
      "stateMutability": "nonpayable",
      "type": "constructor"
    },
    {
      "inputs": [],
      "name": "BatchAlreadyExecuted",
      "type": "error"
    },
    {
      "inputs": [],
      "name": "BatchAlreadyProven",
      "type": "error"
    },
    {
      "inputs": [],
      "name": "BatchNotCommitted",
      "type": "error"
    },
    {
      "inputs": [],
      "name": "BatchNotNextToExecute",
      "type": "error"
    },
    {
      "inputs": [],
      "name": "BatchNotNextToProve",
      "type": "error"
    },
    {
      "inputs": [],
      "name": "BatchNotProven",
      "type": "error"
    },
    {
      "inputs": [
        {
          "internalType": "uint64",
          "name": "expected",
          "type": "uint64"
        },
        {
          "internalType": "uint64",
          "name": "provided",
          "type": "uint64"
        }
      ],
      "name": "BlockRangeGap",
      "type": "error"
    },
    {
      "inputs": [],
      "name": "CannotRevertExecuted",
      "type": "error"
    },
    {
      "inputs": [],
      "name": "EnterpriseAlreadyInitialized",
      "type": "error"
    },
    {
      "inputs": [],
      "name": "EnterpriseNotInitialized",
      "type": "error"
    },
    {
      "inputs": [],
      "name": "InvalidBlockRange",
      "type": "error"
    },
    {
      "inputs": [],
      "name": "InvalidProof",
      "type": "error"
    },
    {
      "inputs": [],
      "name": "NotAuthorized",
      "type": "error"
    },
    {
      "inputs": [],
      "name": "NothingToRevert",
      "type": "error"
    },
    {
      "inputs": [],
      "name": "OnlyAdmin",
      "type": "error"
    },
    {
      "inputs": [
        {
          "internalType": "bytes32",
          "name": "expected",
          "type": "bytes32"
        },
        {
          "internalType": "bytes32",
          "name": "provided",
          "type": "bytes32"
        }
      ],
      "name": "RootChainBroken",
      "type": "error"
    },
    {
      "inputs": [],
      "name": "VerifyingKeyNotSet",
      "type": "error"
    },
    {
      "anonymous": false,
      "inputs": [
        {
          "indexed": true,
          "internalType": "address",
          "name": "enterprise",
          "type": "address"
        },
        {
          "indexed": true,
          "internalType": "uint256",
          "name": "batchId",
          "type": "uint256"
        },
        {
          "indexed": false,
          "internalType": "bytes32",
          "name": "batchHash",
          "type": "bytes32"
        },
        {
          "indexed": false,
          "internalType": "bytes32",
          "name": "newStateRoot",
          "type": "bytes32"
        },
        {
          "indexed": false,
          "internalType": "uint64",
          "name": "l2BlockStart",
          "type": "uint64"
        },
        {
          "indexed": false,
          "internalType": "uint64",
          "name": "l2BlockEnd",
          "type": "uint64"
        },
        {
          "indexed": false,
          "internalType": "uint256",
          "name": "timestamp",
          "type": "uint256"
        }
      ],
      "name": "BatchCommitted",
      "type": "event"
    },
    {
      "anonymous": false,
      "inputs": [
        {
          "indexed": true,
          "internalType": "address",
          "name": "enterprise",
          "type": "address"
        },
        {
          "indexed": true,
          "internalType": "uint256",
          "name": "batchId",
          "type": "uint256"
        },
        {
          "indexed": false,
          "internalType": "bytes32",
          "name": "prevRoot",
          "type": "bytes32"
        },
        {
          "indexed": false,
          "internalType": "bytes32",
          "name": "newRoot",
          "type": "bytes32"
        },
        {
          "indexed": false,
          "internalType": "uint256",
          "name": "timestamp",
          "type": "uint256"
        }
      ],
      "name": "BatchExecuted",
      "type": "event"
    },
    {
      "anonymous": false,
      "inputs": [
        {
          "indexed": true,
          "internalType": "address",
          "name": "enterprise",
          "type": "address"
        },
        {
          "indexed": true,
          "internalType": "uint256",
          "name": "batchId",
          "type": "uint256"
        },
        {
          "indexed": false,
          "internalType": "uint256",
          "name": "timestamp",
          "type": "uint256"
        }
      ],
      "name": "BatchProven",
      "type": "event"
    },
    {
      "anonymous": false,
      "inputs": [
        {
          "indexed": true,
          "internalType": "address",
          "name": "enterprise",
          "type": "address"
        },
        {
          "indexed": true,
          "internalType": "uint256",
          "name": "batchId",
          "type": "uint256"
        },
        {
          "indexed": false,
          "internalType": "uint256",
          "name": "timestamp",
          "type": "uint256"
        }
      ],
      "name": "BatchReverted",
      "type": "event"
    },
    {
      "anonymous": false,
      "inputs": [
        {
          "indexed": true,
          "internalType": "address",
          "name": "enterprise",
          "type": "address"
        },
        {
          "indexed": false,
          "internalType": "bytes32",
          "name": "genesisRoot",
          "type": "bytes32"
        },
        {
          "indexed": false,
          "internalType": "uint256",
          "name": "timestamp",
          "type": "uint256"
        }
      ],
      "name": "EnterpriseInitialized",
      "type": "event"
    },
    {
      "inputs": [],
      "name": "admin",
      "outputs": [
        {
          "internalType": "address",
          "name": "",
          "type": "address"
        }
      ],
      "stateMutability": "view",
      "type": "function"
    },
    {
      "inputs": [
        {
          "components": [
            {
              "internalType": "bytes32",
              "name": "newStateRoot",
              "type": "bytes32"
            },
            {
              "internalType": "uint64",
              "name": "l2BlockStart",
              "type": "uint64"
            },
            {
              "internalType": "uint64",
              "name": "l2BlockEnd",
              "type": "uint64"
            },
            {
              "internalType": "bytes32",
              "name": "priorityOpsHash",
              "type": "bytes32"
            },
            {
              "internalType": "uint64",
              "name": "timestamp",
              "type": "uint64"
            }
          ],
          "internalType": "struct BasisRollup.CommitBatchData",
          "name": "data",
          "type": "tuple"
        }
      ],
      "name": "commitBatch",
      "outputs": [],
      "stateMutability": "nonpayable",
      "type": "function"
    },
    {
      "inputs": [],
      "name": "enterpriseRegistry",
      "outputs": [
        {
          "internalType": "contract IEnterpriseRegistry",
          "name": "",
          "type": "address"
        }
      ],
      "stateMutability": "view",
      "type": "function"
    },
    {
      "inputs": [
        {
          "internalType": "address",
          "name": "",
          "type": "address"
        }
      ],
      "name": "enterprises",
      "outputs": [
        {
          "internalType": "bytes32",
          "name": "currentRoot",
          "type": "bytes32"
        },
        {
          "internalType": "uint64",
          "name": "totalBatchesCommitted",
          "type": "uint64"
        },
        {
          "internalType": "uint64",
          "name": "totalBatchesProven",
          "type": "uint64"
        },
        {
          "internalType": "uint64",
          "name": "totalBatchesExecuted",
          "type": "uint64"
        },
        {
          "internalType": "bool",
          "name": "initialized",
          "type": "bool"
        },
        {
          "internalType": "uint64",
          "name": "lastL2Block",
          "type": "uint64"
        }
      ],
      "stateMutability": "view",
      "type": "function"
    },
    {
      "inputs": [
        {
          "internalType": "uint256",
          "name": "batchId",
          "type": "uint256"
        }
      ],
      "name": "executeBatch",
      "outputs": [],
      "stateMutability": "nonpayable",
      "type": "function"
    },
    {
      "inputs": [
        {
          "internalType": "address",
          "name": "enterprise",
          "type": "address"
        }
      ],
      "name": "getBatchCounts",
      "outputs": [
        {
          "internalType": "uint64",
          "name": "committed",
          "type": "uint64"
        },
        {
          "internalType": "uint64",
          "name": "proven",
          "type": "uint64"
        },
        {
          "internalType": "uint64",
          "name": "executed",
          "type": "uint64"
        }
      ],
      "stateMutability": "view",
      "type": "function"
    },
    {
      "inputs": [
        {
          "internalType": "address",
          "name": "enterprise",
          "type": "address"
        },
        {
          "internalType": "uint256",
          "name": "batchId",
          "type": "uint256"
        }
      ],
      "name": "getBatchInfo",
      "outputs": [
        {
          "internalType": "bytes32",
          "name": "batchHash",
          "type": "bytes32"
        },
        {
          "internalType": "bytes32",
          "name": "stateRoot",
          "type": "bytes32"
        },
        {
          "internalType": "uint64",
          "name": "l2BlockStart",
          "type": "uint64"
        },
        {
          "internalType": "uint64",
          "name": "l2BlockEnd",
          "type": "uint64"
        },
        {
          "internalType": "enum BasisRollup.BatchStatus",
          "name": "status",
          "type": "uint8"
        }
      ],
      "stateMutability": "view",
      "type": "function"
    },
    {
      "inputs": [
        {
          "internalType": "address",
          "name": "enterprise",
          "type": "address"
        }
      ],
      "name": "getCurrentRoot",
      "outputs": [
        {
          "internalType": "bytes32",
          "name": "",
          "type": "bytes32"
        }
      ],
      "stateMutability": "view",
      "type": "function"
    },
    {
      "inputs": [
        {
          "internalType": "address",
          "name": "enterprise",
          "type": "address"
        }
      ],
      "name": "getLastL2Block",
      "outputs": [
        {
          "internalType": "uint64",
          "name": "",
          "type": "uint64"
        }
      ],
      "stateMutability": "view",
      "type": "function"
    },
    {
      "inputs": [
        {
          "internalType": "address",
          "name": "enterprise",
          "type": "address"
        },
        {
          "internalType": "bytes32",
          "name": "genesisRoot",
          "type": "bytes32"
        }
      ],
      "name": "initializeEnterprise",
      "outputs": [],
      "stateMutability": "nonpayable",
      "type": "function"
    },
    {
      "inputs": [
        {
          "internalType": "address",
          "name": "enterprise",
          "type": "address"
        },
        {
          "internalType": "uint256",
          "name": "batchId",
          "type": "uint256"
        },
        {
          "internalType": "bytes32",
          "name": "root",
          "type": "bytes32"
        }
      ],
      "name": "isExecutedRoot",
      "outputs": [
        {
          "internalType": "bool",
          "name": "",
          "type": "bool"
        }
      ],
      "stateMutability": "view",
      "type": "function"
    },
    {
      "inputs": [
        {
          "internalType": "uint256",
          "name": "batchId",
          "type": "uint256"
        },
        {
          "internalType": "uint256[2]",
          "name": "a",
          "type": "uint256[2]"
        },
        {
          "internalType": "uint256[2][2]",
          "name": "b",
          "type": "uint256[2][2]"
        },
        {
          "internalType": "uint256[2]",
          "name": "c",
          "type": "uint256[2]"
        },
        {
          "internalType": "uint256[]",
          "name": "publicSignals",
          "type": "uint256[]"
        }
      ],
      "name": "proveBatch",
      "outputs": [],
      "stateMutability": "nonpayable",
      "type": "function"
    },
    {
      "inputs": [
        {
          "internalType": "address",
          "name": "enterprise",
          "type": "address"
        }
      ],
      "name": "revertBatch",
      "outputs": [],
      "stateMutability": "nonpayable",
      "type": "function"
    },
    {
      "inputs": [
        {
          "internalType": "uint256[2]",
          "name": "_alfa1",
          "type": "uint256[2]"
        },
        {
          "internalType": "uint256[2][2]",
          "name": "_beta2",
          "type": "uint256[2][2]"
        },
        {
          "internalType": "uint256[2][2]",
          "name": "_gamma2",
          "type": "uint256[2][2]"
        },
        {
          "internalType": "uint256[2][2]",
          "name": "_delta2",
          "type": "uint256[2][2]"
        },
        {
          "internalType": "uint256[2][]",
          "name": "_IC",
          "type": "uint256[2][]"
        }
      ],
      "name": "setVerifyingKey",
      "outputs": [],
      "stateMutability": "nonpayable",
      "type": "function"
    },
    {
      "inputs": [
        {
          "internalType": "address",
          "name": "",
          "type": "address"
        },
        {
          "internalType": "uint256",
          "name": "",
          "type": "uint256"
        }
      ],
      "name": "storedBatches",
      "outputs": [
        {
          "internalType": "bytes32",
          "name": "batchHash",
          "type": "bytes32"
        },
        {
          "internalType": "bytes32",
          "name": "stateRoot",
          "type": "bytes32"
        },
        {
          "internalType": "uint64",
          "name": "l2BlockStart",
          "type": "uint64"
        },
        {
          "internalType": "uint64",
          "name": "l2BlockEnd",
          "type": "uint64"
        },
        {
          "internalType": "enum BasisRollup.BatchStatus",
          "name": "status",
          "type": "uint8"
        }
      ],
      "stateMutability": "view",
      "type": "function"
    },
    {
      "inputs": [],
      "name": "totalBatchesCommitted",
      "outputs": [
        {
          "internalType": "uint256",
          "name": "",
          "type": "uint256"
        }
      ],
      "stateMutability": "view",
      "type": "function"
    },
    {
      "inputs": [],
      "name": "totalBatchesExecuted",
      "outputs": [
        {
          "internalType": "uint256",
          "name": "",
          "type": "uint256"
        }
      ],
      "stateMutability": "view",
      "type": "function"
    },
    {
      "inputs": [],
      "name": "totalBatchesProven",
      "outputs": [
        {
          "internalType": "uint256",
          "name": "",
          "type": "uint256"
        }
      ],
      "stateMutability": "view",
      "type": "function"
    },
    {
      "inputs": [],
      "name": "verifyingKeySet",
      "outputs": [
        {
          "internalType": "bool",
          "name": "",
          "type": "bool"
        }
      ],
      "stateMutability": "view",
      "type": "function"
    }
  ],
  "bytecode": "0x60a060405234801561000f575f80fd5b50604051611ddf380380611ddf83398101604081905261002e91610050565b5f80546001600160a01b031916331790556001600160a01b031660805261007d565b5f60208284031215610060575f80fd5b81516001600160a01b0381168114610076575f80fd5b9392505050565b608051611d356100aa5f395f8181610224015281816107da01528181610c5101526110eb0152611d355ff3fe608060405234801561000f575f80fd5b506004361061011c575f3560e01c80638d628602116100a9578063b965e0ca1161006e578063b965e0ca14610427578063eac2ce191461044f578063f5282dea14610462578063f851a4401461046f578063f8b94e9e14610481575f80fd5b80638d628602146102a4578063902e11b6146102fe5780639932403914610396578063a5acf970146103a9578063ab2dcc80146103b2575f80fd5b80633d3bdb88116100ef5780633d3bdb881461021f578063558f3d401461025e57806363b434941461027557806387cf32cd1461027e5780638cb894e814610291575f80fd5b806306b32e82146101205780630846307014610135578063283972df146101865780633975a623146101fc575b5f80fd5b61013361012e366004611965565b610494565b005b610169610143366004611965565b6001600160a01b03165f908152601160205260409020600201546001600160401b031690565b6040516001600160401b0390911681526020015b60405180910390f35b6101eb610194366004611985565b6001600160a01b03919091165f908152601260209081526040808320938352929052208054600182015460029092015490926001600160401b0380831692600160401b810490911691600160801b90910460ff1690565b60405161017d9594939291906119c1565b61020f61020a366004611a12565b610768565b604051901515815260200161017d565b6102467f000000000000000000000000000000000000000000000000000000000000000081565b6040516001600160a01b03909116815260200161017d565b61026760145481565b60405190815260200161017d565b61026760155481565b61013361028c366004611a42565b6107c5565b61013361029f366004611a7e565b610c19565b6101eb6102b2366004611985565b601260209081525f92835260408084209091529082529020805460018201546002909201549091906001600160401b0380821691600160401b810490911690600160801b900460ff1685565b61035861030c366004611965565b60116020525f908152604090208054600182015460029092015490916001600160401b0380821692600160401b8304821692600160801b8104831692600160c01b90910460ff16911686565b604080519687526001600160401b039586166020880152938516938601939093529083166060850152151560808401521660a082015260c00161017d565b6101336103a4366004611b2a565b610e78565b61026760135481565b6103fd6103c0366004611965565b6001600160a01b03165f908152601160205260409020600101546001600160401b0380821692600160401b8304821692600160801b900490911690565b604080516001600160401b039485168152928416602084015292169181019190915260600161017d565b610267610435366004611965565b6001600160a01b03165f9081526011602052604090205490565b61013361045d366004611985565b610f50565b60105461020f9060ff1681565b5f54610246906001600160a01b031681565b61013361048f366004611bc9565b6110d6565b5f546001600160a01b031633146104be57604051634755657960e01b815260040160405180910390fd5b6001600160a01b0381165f9081526011602052604090206001810154600160c01b900460ff16610501576040516373cb8eb560e11b815260040160405180910390fd5b60018101546001600160401b03600160801b820481169116036105375760405163084ee7ad60e31b815260040160405180910390fd5b6001818101545f91610551916001600160401b0316611bf4565b6001600160a01b0384165f9081526012602090815260408083206001600160401b039490941680845293909152902090915060036002820154600160801b900460ff1660038111156105a5576105a56119ad565b036105c35760405163f0f5218560e01b815260040160405180910390fd5b600280820154600160801b900460ff1660038111156105e4576105e46119ad565b036106255760018301805467ffffffffffffffff60401b1916600160401b6001600160401b0385160217905560148054905f61061f83611c14565b91905055505b8115610691576001600160a01b0384165f9081526012602052604081209061064e600185611c29565b815260208101919091526040015f206002908101549084018054600160401b9092046001600160401b031667ffffffffffffffff199092169190911790556106a5565b60028301805467ffffffffffffffff191690555b6001600160a01b0384165f908152601260209081526040808320858452909152812081815560018082018390556002909101805470ffffffffffffffffffffffffffffffffff191690558401805467ffffffffffffffff19166001600160401b038516179055601380549161071983611c14565b919050555081846001600160a01b03167fea9d7c5a8f5f429b98436961bd70a4af3dbb183bf419142b515db38c30a434ae4260405161075a91815260200190565b60405180910390a350505050565b6001600160a01b0383165f908152601260209081526040808320858452909152812060036002820154600160801b900460ff1660038111156107ac576107ac6119ad565b1480156107bc5750828160010154145b95945050505050565b6040516301fd3f7760e71b81523360048201527f00000000000000000000000000000000000000000000000000000000000000006001600160a01b03169063fe9fbb8090602401602060405180830381865afa158015610827573d5f803e3d5ffd5b505050506040513d601f19601f8201168201806040525081019061084b9190611c3c565b6108685760405163ea8e4eb560e01b815260040160405180910390fd5b335f9081526011602052604090206001810154600160c01b900460ff166108a2576040516373cb8eb560e11b815260040160405180910390fd5b6108b26040830160208401611c5b565b6001600160401b03166108cb6060840160408501611c5b565b6001600160401b031610156108f3576040516312a4320b60e21b815260040160405180910390fd5b60028101545f906001600160401b031615610926576002820154610921906001600160401b03166001611c81565b610929565b60015b90506001600160401b0381166109456040850160208601611c5b565b6001600160401b03161461099557806109646040850160208601611c5b565b60405163524ef2a560e01b81526001600160401b039283166004820152911660248201526044015b60405180910390fd5b60018201546001600160401b03165f338286356109b86040890160208a01611c5b565b6109c860608a0160408b01611c5b565b60608a01356109dd60a08c0160808d01611c5b565b604080516001600160a01b03909816602089015287019590955260608601939093526001600160401b039182166080860152811660a085015260c08401919091521660e08201526101000160408051601f19818403018152828252805160209182012060a084018352808452883584830152935082820191610a6491908901908901611c5b565b6001600160401b03168152602001610a826060880160408901611c5b565b6001600160401b0316815260200160019052335f908152601260209081526040808320868452825291829020835181559083015160018201559082015160028201805460608501516001600160401b03908116600160401b026001600160801b0319909216931692909217919091178082556080840151919060ff60801b1916600160801b836003811115610b1957610b196119ad565b0217905550610b2d91508390506001611ca1565b60018501805467ffffffffffffffff19166001600160401b0392909216919091179055610b606060860160408701611c5b565b60028501805467ffffffffffffffff19166001600160401b039290921691909117905560138054905f610b9283611cb4565b90915550829050337f0d37d5fc3ae000a2fb1ec2efcfd3847602c39a29cbfff9320a99b54f8b561309838835610bce60408b0160208c01611c5b565b610bde60608c0160408d01611c5b565b6040805194855260208501939093526001600160401b0391821684840152166060830152426080830152519081900360a00190a35050505050565b60105460ff16610c3c57604051637c48038560e01b815260040160405180910390fd5b6040516301fd3f7760e71b81523360048201527f00000000000000000000000000000000000000000000000000000000000000006001600160a01b03169063fe9fbb8090602401602060405180830381865afa158015610c9e573d5f803e3d5ffd5b505050506040513d601f19601f82011682018060405250810190610cc29190611c3c565b610cdf5760405163ea8e4eb560e01b815260040160405180910390fd5b335f9081526011602052604090206001810154600160c01b900460ff16610d19576040516373cb8eb560e11b815260040160405180910390fd5b6001810154600160401b90046001600160401b03168714610d4d576040516330e4f27b60e21b815260040160405180910390fd5b335f9081526012602090815260408083208a8452909152902060016002820154600160801b900460ff166003811115610d8857610d886119ad565b14610da65760405163309a8ca560e21b815260040160405180910390fd5b5f610db488888888886112f3565b905080610dd4576040516309bde33960e01b815260040160405180910390fd5b60028201805460ff60801b1916600160811b179055610df4896001611ca1565b6001840180546001600160401b0392909216600160401b0267ffffffffffffffff60401b1990921691909117905560148054905f610e3183611cb4565b9091555050604051428152899033907ff4170f8221a8a01eee8962ed1ad097c1c4567ef05a7d7ff4e9057726adac1f6f9060200160405180910390a3505050505050505050565b5f546001600160a01b03163314610ea257604051634755657960e01b815260040160405180910390fd5b610eaf60018760026117e3565b50610ebd6003866002611821565b50610ecb6007856002611821565b50610ed9600b846002611821565b50610ee5600f5f611865565b5f5b81811015610f3a57600f838383818110610f0357610f03611ccc565b83546001810185555f9485526020909420610f319460029081029091019360409092029190910191506117e3565b50600101610ee7565b50506010805460ff191660011790555050505050565b5f546001600160a01b03163314610f7a57604051634755657960e01b815260040160405180910390fd5b6001600160a01b0382165f90815260116020526040902060010154600160c01b900460ff1615610fbc576040516205f89b60e51b815260040160405180910390fd5b6040805160c0810182528281525f60208083018281528385018381526060850184815260016080870181815260a088018781526001600160a01b038c1680895260119097529689902097518855935190870180549351925194511515600160c01b0260ff60c01b196001600160401b03968716600160801b021668ffffffffffffffffff60801b19948716600160401b026001600160801b0319909616938716939093179490941792909216179190911790559151600290930180549390921667ffffffffffffffff199390931692909217905590517fcb4c6dfe0ceea5101bd46c1cec77b9816756c35226d856c91cdfb3a098d70517906110ca9084904290918252602082015260400190565b60405180910390a25050565b6040516301fd3f7760e71b81523360048201527f00000000000000000000000000000000000000000000000000000000000000006001600160a01b03169063fe9fbb8090602401602060405180830381865afa158015611138573d5f803e3d5ffd5b505050506040513d601f19601f8201168201806040525081019061115c9190611c3c565b6111795760405163ea8e4eb560e01b815260040160405180910390fd5b335f9081526011602052604090206001810154600160c01b900460ff166111b3576040516373cb8eb560e11b815260040160405180910390fd5b6001810154600160801b90046001600160401b031682146111e7576040516369fd074560e01b815260040160405180910390fd5b335f9081526012602090815260408083208584529091529020600280820154600160801b900460ff166003811115611221576112216119ad565b1461123f57604051634aeb15bf60e01b815260040160405180910390fd5b81546001808301548455611254908590611ca1565b60018401805467ffffffffffffffff60801b1916600160801b6001600160401b03939093169290920291909117905560028201805460ff60801b1916600360801b17905560158054905f6112a783611cb4565b909155505060018201546040805183815260208101929092524290820152849033907fee42608ceaac3da45e2339835da94ce6656f2a879d42aa72fff12bf19634ec779060600161075a565b600f545f90611303836001611ca1565b146113475760405162461bcd60e51b8152602060048201526014602482015273092dcecc2d8d2c840d2dce0eae840d8cadccee8d60631b604482015260640161098c565b5f60405180604001604052806001600e015f8154811061136957611369611ccc565b5f91825260208220600290910201015481526020016001600e015f8154811061139457611394611ccc565b905f5260205f2090600202016001600281106113b2576113b2611ccc565b0154905290505f5b83811015611452575f61143b600f6113d3846001611ca1565b815481106113e3576113e3611ccc565b5f91825260209091206040805180820191829052926002908102909201919082845b81548152602001906001019080831161140557505050505087878581811061142f5761142f611ccc565b905060200201356115b7565b905061144783826115f4565b9250506001016113ba565b506115ac61145f88611636565b6040805180820191829052899160019060029082845b81548152602001906001019080831161147557505060408051808201909152925060039150600290505f835b828210156114e757604080518082019182905290600284810287019182845b8154815260200190600101908083116114c0575050505050815260200190600101906114a1565b5050604080518082019091528892509050600760025f835b8282101561154557604080518082019182905290600284810287019182845b81548152602001906001019080831161151e575050505050815260200190600101906114ff565b5050604080518082019091528e92509050600b60025f835b828210156115a357604080518082019182905290600284810287019182845b81548152602001906001019080831161157c5750505050508152602001906001019061155d565b505050506116c4565b979650505050505050565b6115bf611886565b6115c76118a4565b835181526020808501519082015260408082018490528260608360075afa6115ed575f80fd5b5092915050565b6115fc611886565b6116046118c2565b835181526020808501518282015283516040808401919091529084015160608301528260808360065afa6115ed575f80fd5b61163e611886565b7f30644e72e131a029b85045b68181585d97816a916871ca8d3c208c16d87cfd47823515801561167057506020830135155b1561168f575050604080518082019091525f8082526020820152919050565b60408051808201909152833581526020808201906116b1908490870135611ce0565b6116bb9084611c29565b90529392505050565b5f6116cd6118e0565b895181526020808b015182820152898101356040808401919091528a356060808501919091528b013560808401528a013560a0830152885160c08301528881015160e08301528751810151610100830152875151610120830152878101805182015161014084015251516101608301528651610180830152868101516101a083015285518101516101c08301528551516101e08301528581018051820151610200840152515161022083015284356102408301528481013561026083015283518101516102808301528351516102a08301528381018051909101516102c083015251516102e08201526117be6118ff565b6020816103008460085afa6117d1575f80fd5b516001149a9950505050505050505050565b8260028101928215611811579160200282015b828111156118115782358255916020019190600101906117f6565b5061181d92915061191d565b5090565b600483019183908215611859579160400282015b8281111561185957611849828460026117e3565b5091604001919060020190611835565b5061181d929150611931565b5080545f8255600202905f5260205f20908101906118839190611931565b50565b60405180604001604052806002906020820280368337509192915050565b60405180606001604052806003906020820280368337509192915050565b60405180608001604052806004906020820280368337509192915050565b6040518061030001604052806018906020820280368337509192915050565b60405180602001604052806001906020820280368337509192915050565b5b8082111561181d575f815560010161191e565b8082111561181d575f8082556001820155600201611931565b80356001600160a01b0381168114611960575f80fd5b919050565b5f60208284031215611975575f80fd5b61197e8261194a565b9392505050565b5f8060408385031215611996575f80fd5b61199f8361194a565b946020939093013593505050565b634e487b7160e01b5f52602160045260245ffd5b858152602081018590526001600160401b0384811660408301528316606082015260a0810160048310611a0257634e487b7160e01b5f52602160045260245ffd5b8260808301529695505050505050565b5f805f60608486031215611a24575f80fd5b611a2d8461194a565b95602085013595506040909401359392505050565b5f60a08284031215611a52575f80fd5b50919050565b8060408101831015611a68575f80fd5b92915050565b8060808101831015611a68575f80fd5b5f805f805f806101408789031215611a94575f80fd5b86359550611aa58860208901611a58565b9450611ab48860608901611a6e565b9350611ac38860e08901611a58565b92506101208701356001600160401b0380821115611adf575f80fd5b818901915089601f830112611af2575f80fd5b813581811115611b00575f80fd5b8a60208260051b8501011115611b14575f80fd5b6020830194508093505050509295509295509295565b5f805f805f806101e08789031215611b40575f80fd5b611b4a8888611a58565b9550611b598860408901611a6e565b9450611b688860c08901611a6e565b9350611b78886101408901611a6e565b92506101c08701356001600160401b0380821115611b94575f80fd5b818901915089601f830112611ba7575f80fd5b813581811115611bb5575f80fd5b8a60208260061b8501011115611b14575f80fd5b5f60208284031215611bd9575f80fd5b5035919050565b634e487b7160e01b5f52601160045260245ffd5b6001600160401b038281168282160390808211156115ed576115ed611be0565b5f81611c2257611c22611be0565b505f190190565b81810381811115611a6857611a68611be0565b5f60208284031215611c4c575f80fd5b8151801515811461197e575f80fd5b5f60208284031215611c6b575f80fd5b81356001600160401b038116811461197e575f80fd5b6001600160401b038181168382160190808211156115ed576115ed611be0565b80820180821115611a6857611a68611be0565b5f60018201611cc557611cc5611be0565b5060010190565b634e487b7160e01b5f52603260045260245ffd5b5f82611cfa57634e487b7160e01b5f52601260045260245ffd5b50069056fea264697066735822122055bc1e5151f6fb10391f98cc2261d96928d8733a51d327e8588b39db46b0aab064736f6c63430008180033",
  "linkReferences": {},
  "deployedLinkReferences": {}
}