{
  "_format": "hh-sol-artifact-1",
  "contractName": "MockEnterpriseRegistry",
  "sourceName": "contracts/MockEnterpriseRegistry.sol",
  "abi": [
    {
      "inputs": [
        {
          "internalType": "address",
          "name": "enterprise",
          "type": "address"
        }
      ],
      "name": "isAuthorized",
      "outputs": [
        {
          "internalType": "bool",
          "name": "",
          "type": "bool"
        }
      ],
      "stateMutability": "view",
      "type": "function"
    },
    {
      "inputs": [
        {
          "internalType": "address",
          "name": "enterprise",
          "type": "address"
        },
        {
          "internalType": "bool",
          "name": "authorized",
          "type": "bool"
        }
      ],
      "name": "setAuthorized",
      "outputs": [],
      "stateMutability": "nonpayable",
      "type": "function"
    }
  ],
  "bytecode": "0x608060405234801561000f575f80fd5b5061015b8061001d5f395ff3fe608060405234801561000f575f80fd5b5060043610610034575f3560e01c8063711bf9b214610038578063fe9fbb8014610072575b5f80fd5b6100706100463660046100cc565b6001600160a01b03919091165f908152602081905260409020805460ff1916911515919091179055565b005b61009d610080366004610105565b6001600160a01b03165f9081526020819052604090205460ff1690565b604051901515815260200160405180910390f35b80356001600160a01b03811681146100c7575f80fd5b919050565b5f80604083850312156100dd575f80fd5b6100e6836100b1565b9150602083013580151581146100fa575f80fd5b809150509250929050565b5f60208284031215610115575f80fd5b61011e826100b1565b939250505056fea2646970667358221220be1a03168ab3e52b88df4c037651f94aeaffa0bde68f657b19b95b787f440fb264736f6c63430008180033",
  "linkReferences": {},
  "deployedLinkReferences": {}
}