{"contracts/BasisRollup.sol":{"BasisRollup":{"abi":[{"inputs":[{"internalType":"address","name":"_enterpriseRegistry","type":"address"}],"stateMutability":"nonpayable","type":"constructor"},{"inputs":[],"name":"BatchAlreadyExecuted","type":"error"},{"inputs":[],"name":"BatchAlreadyProven","type":"error"},{"inputs":[],"name":"BatchNotCommitted","type":"error"},{"inputs":[],"name":"BatchNotNextToExecute","type":"error"},{"inputs":[],"name":"BatchNotNextToProve","type":"error"},{"inputs":[],"name":"BatchNotProven","type":"error"},{"inputs":[{"internalType":"uint64","name":"expected","type":"uint64"},{"internalType":"uint64","name":"provided","type":"uint64"}],"name":"BlockRangeGap","type":"error"},{"inputs":[],"name":"CannotRevertExecuted","type":"error"},{"inputs":[],"name":"EnterpriseAlreadyInitialized","type":"error"},{"inputs":[],"name":"EnterpriseNotInitialized","type":"error"},{"inputs":[],"name":"InvalidBlockRange","type":"error"},{"inputs":[],"name":"InvalidProof","type":"error"},{"inputs":[],"name":"NotAuthorized","type":"error"},{"inputs":[],"name":"NothingToRevert","type":"error"},{"inputs":[],"name":"OnlyAdmin","type":"error"},{"inputs":[{"internalType":"bytes32","name":"expected","type":"bytes32"},{"internalType":"bytes32","name":"provided","type":"bytes32"}],"name":"RootChainBroken","type":"error"},{"inputs":[],"name":"VerifyingKeyNotSet","type":"error"},{"anonymous":false,"inputs":[{"indexed":true,"internalType":"address","name":"enterprise","type":"address"},{"indexed":true,"internalType":"uint256","name":"batchId","type":"uint256"},{"indexed":false,"internalType":"bytes32","name":"batchHash","type":"bytes32"},{"indexed":false,"internalType":"bytes32","name":"newStateRoot","type":"bytes32"},{"indexed":false,"internalType":"uint64","name":"l2BlockStart","type":"uint64"},{"indexed":false,"internalType":"uint64","name":"l2BlockEnd","type":"uint64"},{"indexed":false,"internalType":"uint256","name":"timestamp","type":"uint256"}],"name":"BatchCommitted","type":"event"},{"anonymous":false,"inputs":[{"indexed":true,"internalType":"address","name":"enterprise","type":"address"},{"indexed":true,"internalType":"uint256","name":"batchId","type":"uint256"},{"indexed":false,"internalType":"bytes32","name":"prevRoot","type":"bytes32"},{"indexed":false,"internalType":"bytes32","name":"newRoot","type":"bytes32"},{"indexed":false,"internalType":"uint256","name":"timestamp","type":"uint256"}],"name":"BatchExecuted","type":"event"},{"anonymous":false,"inputs":[{"indexed":true,"internalType":"address","name":"enterprise","type":"address"},{"indexed":true,"internalType":"uint256","name":"batchId","type":"uint256"},{"indexed":false,"internalType":"uint256","name":"timestamp","type":"uint256"}],"name":"BatchProven","type":"event"},{"anonymous":false,"inputs":[{"indexed":true,"internalType":"address","name":"enterprise","type":"address"},{"indexed":true,"internalType":"uint256","name":"batchId","type":"uint256"},{"indexed":false,"internalType":"uint256","name":"timestamp","type":"uint256"}],"name":"BatchReverted","type":"event"},{"anonymous":false,"inputs":[{"indexed":true,"internalType":"address","name":"enterprise","type":"address"},{"indexed":false,"internalType":"bytes32","name":"genesisRoot","type":"bytes32"},{"indexed":false,"internalType":"uint256","name":"timestamp","type":"uint256"}],"name":"EnterpriseInitialized","type":"event"},{"inputs":[],"name":"admin","outputs":[{"internalType":"address","name":"","type":"address"}],"stateMutability":"view","type":"function"},{"inputs":[{"components":[{"internalType":"bytes32","name":"newStateRoot","type":"bytes32"},{"internalType":"uint64","name":"l2BlockStart","type":"uint64"},{"internalType":"uint64","name":"l2BlockEnd","type":"uint64"},{"internalType":"bytes32","name":"priorityOpsHash","type":"bytes32"},{"internalType":"uint64","name":"timestamp","type":"uint64"}],"internalType":"struct BasisRollup.CommitBatchData","name":"data","type":"tuple"}],"name":"commitBatch","outputs":[],"stateMutability":"nonpayable","type":"function"},{"inputs":[],"name":"enterpriseRegistry","outputs":[{"internalType":"contract IEnterpriseRegistry","name":"","type":"address"}],"stateMutability":"view","type":"function"},{"inputs":[{"internalType":"address","name":"","type":"address"}],"name":"enterprises","outputs":[{"internalType":"bytes32","name":"currentRoot","type":"bytes32"},{"internalType":"uint64","name":"totalBatchesCommitted","type":"uint64"},{"internalType":"uint64","name":"totalBatchesProven","type":"uint64"},{"internalType":"uint64","name":"totalBatchesExecuted","type":"uint64"},{"internalType":"bool","name":"initialized","type":"bool"},{"internalType":"uint64","name":"lastL2Block","type":"uint64"}],"stateMutability":"view","type":"function"},{"inputs":[{"internalType":"uint256","name":"batchId","type":"uint256"}],"name":"executeBatch","outputs":[],"stateMutability":"nonpayable","type":"function"},{"inputs":[{"internalType":"address","name":"enterprise","type":"address"}],"name":"getBatchCounts","outputs":[{"internalType":"uint64","name":"committed","type":"uint64"},{"internalType":"uint64","name":"proven","type":"uint64"},{"internalType":"uint64","name":"executed","type":"uint64"}],"stateMutability":"view","type":"function"},{"inputs":[{"internalType":"address","name":"enterprise","type":"address"},{"internalType":"uint256","name":"batchId","type":"uint256"}],"name":"getBatchInfo","outputs":[{"internalType":"bytes32","name":"batchHash","type":"bytes32"},{"internalType":"bytes32","name":"stateRoot","type":"bytes32"},{"internalType":"uint64","name":"l2BlockStart","type":"uint64"},{"internalType":"uint64","name":"l2BlockEnd","type":"uint64"},{"internalType":"enum BasisRollup.BatchStatus","name":"status","type":"uint8"}],"stateMutability":"view","type":"function"},{"inputs":[{"internalType":"address","name":"enterprise","type":"address"}],"name":"getCurrentRoot","outputs":[{"internalType":"bytes32","name":"","type":"bytes32"}],"stateMutability":"view","type":"function"},{"inputs":[{"internalType":"address","name":"enterprise","type":"address"}],"name":"getLastL2Block","outputs":[{"internalType":"uint64","name":"","type":"uint64"}],"stateMutability":"view","type":"function"},{"inputs":[{"internalType":"address","name":"enterprise","type":"address"},{"internalType":"bytes32","name":"genesisRoot","type":"bytes32"}],"name":"initializeEnterprise","outputs":[],"stateMutability":"nonpayable","type":"function"},{"inputs":[{"internalType":"address","name":"enterprise","type":"address"},{"internalType":"uint256","name":"batchId","type":"uint256"},{"internalType":"bytes32","name":"root","type":"bytes32"}],"name":"isExecutedRoot","outputs":[{"internalType":"bool","name":"","type":"bool"}],"stateMutability":"view","type":"function"},{"inputs":[{"internalType":"uint256","name":"batchId","type":"uint256"},{"internalType":"uint256[2]","name":"a","type":"uint256[2]"},{"internalType":"uint256[2][2]","name":"b","type":"uint256[2][2]"},{"internalType":"uint256[2]","name":"c","type":"uint256[2]"},{"internalType":"uint256[]","name":"publicSignals","type":"uint256[]"}],"name":"proveBatch","outputs":[],"stateMutability":"nonpayable","type":"function"},{"inputs":[{"internalType":"address","name":"enterprise","type":"address"}],"name":"revertBatch","outputs":[],"stateMutability":"nonpayable","type":"function"},{"inputs":[{"internalType":"uint256[2]","name":"_alfa1","type":"uint256[2]"},{"internalType":"uint256[2][2]","name":"_beta2","type":"uint256[2][2]"},{"internalType":"uint256[2][2]","name":"_gamma2","type":"uint256[2][2]"},{"internalType":"uint256[2][2]","name":"_delta2","type":"uint256[2][2]"},{"internalType":"uint256[2][]","name":"_IC","type":"uint256[2][]"}],"name":"setVerifyingKey","outputs":[],"stateMutability":"nonpayable","type":"function"},{"inputs":[{"internalType":"address","name":"","type":"address"},{"internalType":"uint256","name":"","type":"uint256"}],"name":"storedBatches","outputs":[{"internalType":"bytes32","name":"batchHash","type":"bytes32"},{"internalType":"bytes32","name":"stateRoot","type":"bytes32"},{"internalType":"uint64","name":"l2BlockStart","type":"uint64"},{"internalType":"uint64","name":"l2BlockEnd","type":"uint64"},{"internalType":"enum BasisRollup.BatchStatus","name":"status","type":"uint8"}],"stateMutability":"view","type":"function"},{"inputs":[],"name":"totalBatchesCommitted","outputs":[{"internalType":"uint256","name":"","type":"uint256"}],"stateMutability":"view","type":"function"},{"inputs":[],"name":"totalBatchesExecuted","outputs":[{"internalType":"uint256","name":"","type":"uint256"}],"stateMutability":"view","type":"function"},{"inputs":[],"name":"totalBatchesProven","outputs":[{"internalType":"uint256","name":"","type":"uint256"}],"stateMutability":"view","type":"function"},{"inputs":[],"name":"verifyingKeySet","outputs":[{"internalType":"bool","name":"","type":"bool"}],"stateMutability":"view","type":"function"}],"evm":{"bytecode":{"linkReferences":{},"object":"60a060405234801561000f575f80fd5b50604051611ddf380380611ddf83398101604081905261002e91610050565b5f80546001600160a01b031916331790556001600160a01b031660805261007d565b5f60208284031215610060575f80fd5b81516001600160a01b0381168114610076575f80fd5b9392505050565b608051611d356100aa5f395f8181610224015281816107da01528181610c5101526110eb0152611d355ff3fe608060405234801561000f575f80fd5b506004361061011c575f3560e01c80638d628602116100a9578063b965e0ca1161006e578063b965e0ca14610427578063eac2ce191461044f578063f5282dea14610462578063f851a4401461046f578063f8b94e9e14610481575f80fd5b80638d628602146102a4578063902e11b6146102fe5780639932403914610396578063a5acf970146103a9578063ab2dcc80146103b2575f80fd5b80633d3bdb88116100ef5780633d3bdb881461021f578063558f3d401461025e57806363b434941461027557806387cf32cd1461027e5780638cb894e814610291575f80fd5b806306b32e82146101205780630846307014610135578063283972df146101865780633975a623146101fc575b5f80fd5b61013361012e366004611965565b610494565b005b610169610143366004611965565b6001600160a01b03165f908152601160205260409020600201546001600160401b031690565b6040516001600160401b0390911681526020015b60405180910390f35b6101eb610194366004611985565b6001600160a01b03919091165f908152601260209081526040808320938352929052208054600182015460029092015490926001600160401b0380831692600160401b810490911691600160801b90910460ff1690565b60405161017d9594939291906119c1565b61020f61020a366004611a12565b610768565b604051901515815260200161017d565b6102467f000000000000000000000000000000000000000000000000000000000000000081565b6040516001600160a01b03909116815260200161017d565b61026760145481565b60405190815260200161017d565b61026760155481565b61013361028c366004611a42565b6107c5565b61013361029f366004611a7e565b610c19565b6101eb6102b2366004611985565b601260209081525f92835260408084209091529082529020805460018201546002909201549091906001600160401b0380821691600160401b810490911690600160801b900460ff1685565b61035861030c366004611965565b60116020525f908152604090208054600182015460029092015490916001600160401b0380821692600160401b8304821692600160801b8104831692600160c01b90910460ff16911686565b604080519687526001600160401b039586166020880152938516938601939093529083166060850152151560808401521660a082015260c00161017d565b6101336103a4366004611b2a565b610e78565b61026760135481565b6103fd6103c0366004611965565b6001600160a01b03165f908152601160205260409020600101546001600160401b0380821692600160401b8304821692600160801b900490911690565b604080516001600160401b039485168152928416602084015292169181019190915260600161017d565b610267610435366004611965565b6001600160a01b03165f9081526011602052604090205490565b61013361045d366004611985565b610f50565b60105461020f9060ff1681565b5f54610246906001600160a01b031681565b61013361048f366004611bc9565b6110d6565b5f546001600160a01b031633146104be57604051634755657960e01b815260040160405180910390fd5b6001600160a01b0381165f9081526011602052604090206001810154600160c01b900460ff16610501576040516373cb8eb560e11b815260040160405180910390fd5b60018101546001600160401b03600160801b820481169116036105375760405163084ee7ad60e31b815260040160405180910390fd5b6001818101545f91610551916001600160401b0316611bf4565b6001600160a01b0384165f9081526012602090815260408083206001600160401b039490941680845293909152902090915060036002820154600160801b900460ff1660038111156105a5576105a56119ad565b036105c35760405163f0f5218560e01b815260040160405180910390fd5b600280820154600160801b900460ff1660038111156105e4576105e46119ad565b036106255760018301805467ffffffffffffffff60401b1916600160401b6001600160401b0385160217905560148054905f61061f83611c14565b91905055505b8115610691576001600160a01b0384165f9081526012602052604081209061064e600185611c29565b815260208101919091526040015f206002908101549084018054600160401b9092046001600160401b031667ffffffffffffffff199092169190911790556106a5565b60028301805467ffffffffffffffff191690555b6001600160a01b0384165f908152601260209081526040808320858452909152812081815560018082018390556002909101805470ffffffffffffffffffffffffffffffffff191690558401805467ffffffffffffffff19166001600160401b038516179055601380549161071983611c14565b919050555081846001600160a01b03167fea9d7c5a8f5f429b98436961bd70a4af3dbb183bf419142b515db38c30a434ae4260405161075a91815260200190565b60405180910390a350505050565b6001600160a01b0383165f908152601260209081526040808320858452909152812060036002820154600160801b900460ff1660038111156107ac576107ac6119ad565b1480156107bc5750828160010154145b95945050505050565b6040516301fd3f7760e71b81523360048201527f00000000000000000000000000000000000000000000000000000000000000006001600160a01b03169063fe9fbb8090602401602060405180830381865afa158015610827573d5f803e3d5ffd5b505050506040513d601f19601f8201168201806040525081019061084b9190611c3c565b6108685760405163ea8e4eb560e01b815260040160405180910390fd5b335f9081526011602052604090206001810154600160c01b900460ff166108a2576040516373cb8eb560e11b815260040160405180910390fd5b6108b26040830160208401611c5b565b6001600160401b03166108cb6060840160408501611c5b565b6001600160401b031610156108f3576040516312a4320b60e21b815260040160405180910390fd5b60028101545f906001600160401b031615610926576002820154610921906001600160401b03166001611c81565b610929565b60015b90506001600160401b0381166109456040850160208601611c5b565b6001600160401b03161461099557806109646040850160208601611c5b565b60405163524ef2a560e01b81526001600160401b039283166004820152911660248201526044015b60405180910390fd5b60018201546001600160401b03165f338286356109b86040890160208a01611c5b565b6109c860608a0160408b01611c5b565b60608a01356109dd60a08c0160808d01611c5b565b604080516001600160a01b03909816602089015287019590955260608601939093526001600160401b039182166080860152811660a085015260c08401919091521660e08201526101000160408051601f19818403018152828252805160209182012060a084018352808452883584830152935082820191610a6491908901908901611c5b565b6001600160401b03168152602001610a826060880160408901611c5b565b6001600160401b0316815260200160019052335f908152601260209081526040808320868452825291829020835181559083015160018201559082015160028201805460608501516001600160401b03908116600160401b026001600160801b0319909216931692909217919091178082556080840151919060ff60801b1916600160801b836003811115610b1957610b196119ad565b0217905550610b2d91508390506001611ca1565b60018501805467ffffffffffffffff19166001600160401b0392909216919091179055610b606060860160408701611c5b565b60028501805467ffffffffffffffff19166001600160401b039290921691909117905560138054905f610b9283611cb4565b90915550829050337f0d37d5fc3ae000a2fb1ec2efcfd3847602c39a29cbfff9320a99b54f8b561309838835610bce60408b0160208c01611c5b565b610bde60608c0160408d01611c5b565b6040805194855260208501939093526001600160401b0391821684840152166060830152426080830152519081900360a00190a35050505050565b60105460ff16610c3c57604051637c48038560e01b815260040160405180910390fd5b6040516301fd3f7760e71b81523360048201527f00000000000000000000000000000000000000000000000000000000000000006001600160a01b03169063fe9fbb8090602401602060405180830381865afa158015610c9e573d5f803e3d5ffd5b505050506040513d601f19601f82011682018060405250810190610cc29190611c3c565b610cdf5760405163ea8e4eb560e01b815260040160405180910390fd5b335f9081526011602052604090206001810154600160c01b900460ff16610d19576040516373cb8eb560e11b815260040160405180910390fd5b6001810154600160401b90046001600160401b03168714610d4d576040516330e4f27b60e21b815260040160405180910390fd5b335f9081526012602090815260408083208a8452909152902060016002820154600160801b900460ff166003811115610d8857610d886119ad565b14610da65760405163309a8ca560e21b815260040160405180910390fd5b5f610db488888888886112f3565b905080610dd4576040516309bde33960e01b815260040160405180910390fd5b60028201805460ff60801b1916600160811b179055610df4896001611ca1565b6001840180546001600160401b0392909216600160401b0267ffffffffffffffff60401b1990921691909117905560148054905f610e3183611cb4565b9091555050604051428152899033907ff4170f8221a8a01eee8962ed1ad097c1c4567ef05a7d7ff4e9057726adac1f6f9060200160405180910390a3505050505050505050565b5f546001600160a01b03163314610ea257604051634755657960e01b815260040160405180910390fd5b610eaf60018760026117e3565b50610ebd6003866002611821565b50610ecb6007856002611821565b50610ed9600b846002611821565b50610ee5600f5f611865565b5f5b81811015610f3a57600f838383818110610f0357610f03611ccc565b83546001810185555f9485526020909420610f319460029081029091019360409092029190910191506117e3565b50600101610ee7565b50506010805460ff191660011790555050505050565b5f546001600160a01b03163314610f7a57604051634755657960e01b815260040160405180910390fd5b6001600160a01b0382165f90815260116020526040902060010154600160c01b900460ff1615610fbc576040516205f89b60e51b815260040160405180910390fd5b6040805160c0810182528281525f60208083018281528385018381526060850184815260016080870181815260a088018781526001600160a01b038c1680895260119097529689902097518855935190870180549351925194511515600160c01b0260ff60c01b196001600160401b03968716600160801b021668ffffffffffffffffff60801b19948716600160401b026001600160801b0319909616938716939093179490941792909216179190911790559151600290930180549390921667ffffffffffffffff199390931692909217905590517fcb4c6dfe0ceea5101bd46c1cec77b9816756c35226d856c91cdfb3a098d70517906110ca9084904290918252602082015260400190565b60405180910390a25050565b6040516301fd3f7760e71b81523360048201527f00000000000000000000000000000000000000000000000000000000000000006001600160a01b03169063fe9fbb8090602401602060405180830381865afa158015611138573d5f803e3d5ffd5b505050506040513d601f19601f8201168201806040525081019061115c9190611c3c565b6111795760405163ea8e4eb560e01b815260040160405180910390fd5b335f9081526011602052604090206001810154600160c01b900460ff166111b3576040516373cb8eb560e11b815260040160405180910390fd5b6001810154600160801b90046001600160401b031682146111e7576040516369fd074560e01b815260040160405180910390fd5b335f9081526012602090815260408083208584529091529020600280820154600160801b900460ff166003811115611221576112216119ad565b1461123f57604051634aeb15bf60e01b815260040160405180910390fd5b81546001808301548455611254908590611ca1565b60018401805467ffffffffffffffff60801b1916600160801b6001600160401b03939093169290920291909117905560028201805460ff60801b1916600360801b17905560158054905f6112a783611cb4565b909155505060018201546040805183815260208101929092524290820152849033907fee42608ceaac3da45e2339835da94ce6656f2a879d42aa72fff12bf19634ec779060600161075a565b600f545f90611303836001611ca1565b146113475760405162461bcd60e51b8152602060048201526014602482015273092dcecc2d8d2c840d2dce0eae840d8cadccee8d60631b604482015260640161098c565b5f60405180604001604052806001600e015f8154811061136957611369611ccc565b5f91825260208220600290910201015481526020016001600e015f8154811061139457611394611ccc565b905f5260205f2090600202016001600281106113b2576113b2611ccc565b0154905290505f5b83811015611452575f61143b600f6113d3846001611ca1565b815481106113e3576113e3611ccc565b5f91825260209091206040805180820191829052926002908102909201919082845b81548152602001906001019080831161140557505050505087878581811061142f5761142f611ccc565b905060200201356115b7565b905061144783826115f4565b9250506001016113ba565b506115ac61145f88611636565b6040805180820191829052899160019060029082845b81548152602001906001019080831161147557505060408051808201909152925060039150600290505f835b828210156114e757604080518082019182905290600284810287019182845b8154815260200190600101908083116114c0575050505050815260200190600101906114a1565b5050604080518082019091528892509050600760025f835b8282101561154557604080518082019182905290600284810287019182845b81548152602001906001019080831161151e575050505050815260200190600101906114ff565b5050604080518082019091528e92509050600b60025f835b828210156115a357604080518082019182905290600284810287019182845b81548152602001906001019080831161157c5750505050508152602001906001019061155d565b505050506116c4565b979650505050505050565b6115bf611886565b6115c76118a4565b835181526020808501519082015260408082018490528260608360075afa6115ed575f80fd5b5092915050565b6115fc611886565b6116046118c2565b835181526020808501518282015283516040808401919091529084015160608301528260808360065afa6115ed575f80fd5b61163e611886565b7f30644e72e131a029b85045b68181585d97816a916871ca8d3c208c16d87cfd47823515801561167057506020830135155b1561168f575050604080518082019091525f8082526020820152919050565b60408051808201909152833581526020808201906116b1908490870135611ce0565b6116bb9084611c29565b90529392505050565b5f6116cd6118e0565b895181526020808b015182820152898101356040808401919091528a356060808501919091528b013560808401528a013560a0830152885160c08301528881015160e08301528751810151610100830152875151610120830152878101805182015161014084015251516101608301528651610180830152868101516101a083015285518101516101c08301528551516101e08301528581018051820151610200840152515161022083015284356102408301528481013561026083015283518101516102808301528351516102a08301528381018051909101516102c083015251516102e08201526117be6118ff565b6020816103008460085afa6117d1575f80fd5b516001149a9950505050505050505050565b8260028101928215611811579160200282015b828111156118115782358255916020019190600101906117f6565b5061181d92915061191d565b5090565b600483019183908215611859579160400282015b8281111561185957611849828460026117e3565b5091604001919060020190611835565b5061181d929150611931565b5080545f8255600202905f5260205f20908101906118839190611931565b50565b60405180604001604052806002906020820280368337509192915050565b60405180606001604052806003906020820280368337509192915050565b60405180608001604052806004906020820280368337509192915050565b6040518061030001604052806018906020820280368337509192915050565b60405180602001604052806001906020820280368337509192915050565b5b8082111561181d575f815560010161191e565b8082111561181d575f8082556001820155600201611931565b80356001600160a01b0381168114611960575f80fd5b919050565b5f60208284031215611975575f80fd5b61197e8261194a565b9392505050565b5f8060408385031215611996575f80fd5b61199f8361194a565b946020939093013593505050565b634e487b7160e01b5f52602160045260245ffd5b858152602081018590526001600160401b0384811660408301528316606082015260a0810160048310611a0257634e487b7160e01b5f52602160045260245ffd5b8260808301529695505050505050565b5f805f60608486031215611a24575f80fd5b611a2d8461194a565b95602085013595506040909401359392505050565b5f60a08284031215611a52575f80fd5b50919050565b8060408101831015611a68575f80fd5b92915050565b8060808101831015611a68575f80fd5b5f805f805f806101408789031215611a94575f80fd5b86359550611aa58860208901611a58565b9450611ab48860608901611a6e565b9350611ac38860e08901611a58565b92506101208701356001600160401b0380821115611adf575f80fd5b818901915089601f830112611af2575f80fd5b813581811115611b00575f80fd5b8a60208260051b8501011115611b14575f80fd5b6020830194508093505050509295509295509295565b5f805f805f806101e08789031215611b40575f80fd5b611b4a8888611a58565b9550611b598860408901611a6e565b9450611b688860c08901611a6e565b9350611b78886101408901611a6e565b92506101c08701356001600160401b0380821115611b94575f80fd5b818901915089601f830112611ba7575f80fd5b813581811115611bb5575f80fd5b8a60208260061b8501011115611b14575f80fd5b5f60208284031215611bd9575f80fd5b5035919050565b634e487b7160e01b5f52601160045260245ffd5b6001600160401b038281168282160390808211156115ed576115ed611be0565b5f81611c2257611c22611be0565b505f190190565b81810381811115611a6857611a68611be0565b5f60208284031215611c4c575f80fd5b8151801515811461197e575f80fd5b5f60208284031215611c6b575f80fd5b81356001600160401b038116811461197e575f80fd5b6001600160401b038181168382160190808211156115ed576115ed611be0565b80820180821115611a6857611a68611be0565b5f60018201611cc557611cc5611be0565b5060010190565b634e487b7160e01b5f52603260045260245ffd5b5f82611cfa57634e487b7160e01b5f52601260045260245ffd5b50069056fea264697066735822122055bc1e5151f6fb10391f98cc2261d96928d8733a51d327e8588b39db46b0aab064736f6c63430008180033","opcodes":"PUSH1 0xA0 PUSH1 0x40 MSTORE CALLVALUE DUP1 ISZERO PUSH2 0xF JUMPI PUSH0 DUP1 REVERT JUMPDEST POP PUSH1 0x40 MLOAD PUSH2 0x1DDF CODESIZE SUB DUP1 PUSH2 0x1DDF DUP4 CODECOPY DUP2 ADD PUSH1 0x40 DUP2 SWAP1 MSTORE PUSH2 0x2E SWAP2 PUSH2 0x50 JUMP JUMPDEST PUSH0 DUP1 SLOAD PUSH1 0x1 PUSH1 0x1 PUSH1 0xA0 SHL SUB NOT AND CALLER OR SWAP1 SSTORE PUSH1 0x1 PUSH1 0x1 PUSH1 0xA0 SHL SUB AND PUSH1 0x80 MSTORE PUSH2 0x7D JUMP JUMPDEST PUSH0 PUSH1 0x20 DUP3 DUP5 SUB SLT ISZERO PUSH2 0x60 JUMPI PUSH0 DUP1 REVERT JUMPDEST DUP2 MLOAD PUSH1 0x1 PUSH1 0x1 PUSH1 0xA0 SHL SUB DUP2 AND DUP2 EQ PUSH2 0x76 JUMPI PUSH0 DUP1 REVERT JUMPDEST SWAP4 SWAP3 POP POP POP JUMP JUMPDEST PUSH1 0x80 MLOAD PUSH2 0x1D35 PUSH2 0xAA PUSH0 CODECOPY PUSH0 DUP2 DUP2 PUSH2 0x224 ADD MSTORE DUP2 DUP2 PUSH2 0x7DA ADD MSTORE DUP2 DUP2 PUSH2 0xC51 ADD MSTORE PUSH2 0x10EB ADD MSTORE PUSH2 0x1D35 PUSH0 RETURN INVALID PUSH1 0x80 PUSH1 0x40 MSTORE CALLVALUE DUP1 ISZERO PUSH2 0xF JUMPI PUSH0 DUP1 REVERT JUMPDEST POP PUSH1 0x4 CALLDATASIZE LT PUSH2 0x11C JUMPI PUSH0 CALLDATALOAD PUSH1 0xE0 SHR DUP1 PUSH4 0x8D628602 GT PUSH2 0xA9 JUMPI DUP1 PUSH4 0xB965E0CA GT PUSH2 0x6E JUMPI DUP1 PUSH4 0xB965E0CA EQ PUSH2 0x427 JUMPI DUP1 PUSH4 0xEAC2CE19 EQ PUSH2 0x44F JUMPI DUP1 PUSH4 0xF5282DEA EQ PUSH2 0x462 JUMPI DUP1 PUSH4 0xF851A440 EQ PUSH2 0x46F JUMPI DUP1 PUSH4 0xF8B94E9E EQ PUSH2 0x481 JUMPI PUSH0 DUP1 REVERT JUMPDEST DUP1 PUSH4 0x8D628602 EQ PUSH2 0x2A4 JUMPI DUP1 PUSH4 0x902E11B6 EQ PUSH2 0x2FE JUMPI DUP1 PUSH4 0x99324039 EQ PUSH2 0x396 JUMPI DUP1 PUSH4 0xA5ACF970 EQ PUSH2 0x3A9 JUMPI DUP1 PUSH4 0xAB2DCC80 EQ PUSH2 0x3B2 JUMPI PUSH0 DUP1 REVERT JUMPDEST DUP1 PUSH4 0x3D3BDB88 GT PUSH2 0xEF JUMPI DUP1 PUSH4 0x3D3BDB88 EQ PUSH2 0x21F JUMPI DUP1 PUSH4 0x558F3D40 EQ PUSH2 0x25E JUMPI DUP1 PUSH4 0x63B43494 EQ PUSH2 0x275 JUMPI DUP1 PUSH4 0x87CF32CD EQ PUSH2 0x27E JUMPI DUP1 PUSH4 0x8CB894E8 EQ PUSH2 0x291 JUMPI PUSH0 DUP1 REVERT JUMPDEST DUP1 PUSH4 0x6B32E82 EQ PUSH2 0x120 JUMPI DUP1 PUSH4 0x8463070 EQ PUSH2 0x135 JUMPI DUP1 PUSH4 0x283972DF EQ PUSH2 0x186 JUMPI DUP1 PUSH4 0x3975A623 EQ PUSH2 0x1FC JUMPI JUMPDEST PUSH0 DUP1 REVERT JUMPDEST PUSH2 0x133 PUSH2 0x12E CALLDATASIZE PUSH1 0x4 PUSH2 0x1965 JUMP JUMPDEST PUSH2 0x494 JUMP JUMPDEST STOP JUMPDEST PUSH2 0x169 PUSH2 0x143 CALLDATASIZE PUSH1 0x4 PUSH2 0x1965 JUMP JUMPDEST PUSH1 0x1 PUSH1 0x1 PUSH1 0xA0 SHL SUB AND PUSH0 SWAP1 DUP2 MSTORE PUSH1 0x11 PUSH1 0x20 MSTORE PUSH1 0x40 SWAP1 KECCAK256 PUSH1 0x2 ADD SLOAD PUSH1 0x1 PUSH1 0x1 PUSH1 0x40 SHL SUB AND SWAP1 JUMP JUMPDEST PUSH1 0x40 MLOAD PUSH1 0x1 PUSH1 0x1 PUSH1 0x40 SHL SUB SWAP1 SWAP2 AND DUP2 MSTORE PUSH1 0x20 ADD JUMPDEST PUSH1 0x40 MLOAD DUP1 SWAP2 SUB SWAP1 RETURN JUMPDEST PUSH2 0x1EB PUSH2 0x194 CALLDATASIZE PUSH1 0x4 PUSH2 0x1985 JUMP JUMPDEST PUSH1 0x1 PUSH1 0x1 PUSH1 0xA0 SHL SUB SWAP2 SWAP1 SWAP2 AND PUSH0 SWAP1 DUP2 MSTORE PUSH1 0x12 PUSH1 0x20 SWAP1 DUP2 MSTORE PUSH1 0x40 DUP1 DUP4 KECCAK256 SWAP4 DUP4 MSTORE SWAP3 SWAP1 MSTORE KECCAK256 DUP1 SLOAD PUSH1 0x1 DUP3 ADD SLOAD PUSH1 0x2 SWAP1 SWAP3 ADD SLOAD SWAP1 SWAP3 PUSH1 0x1 PUSH1 0x1 PUSH1 0x40 SHL SUB DUP1 DUP4 AND SWAP3 PUSH1 0x1 PUSH1 0x40 SHL DUP2 DIV SWAP1 SWAP2 AND SWAP2 PUSH1 0x1 PUSH1 0x80 SHL SWAP1 SWAP2 DIV PUSH1 0xFF AND SWAP1 JUMP JUMPDEST PUSH1 0x40 MLOAD PUSH2 0x17D SWAP6 SWAP5 SWAP4 SWAP3 SWAP2 SWAP1 PUSH2 0x19C1 JUMP JUMPDEST PUSH2 0x20F PUSH2 0x20A CALLDATASIZE PUSH1 0x4 PUSH2 0x1A12 JUMP JUMPDEST PUSH2 0x768 JUMP JUMPDEST PUSH1 0x40 MLOAD SWAP1 ISZERO ISZERO DUP2 MSTORE PUSH1 0x20 ADD PUSH2 0x17D JUMP JUMPDEST PUSH2 0x246 PUSH32 0x0 DUP2 JUMP JUMPDEST PUSH1 0x40 MLOAD PUSH1 0x1 PUSH1 0x1 PUSH1 0xA0 SHL SUB SWAP1 SWAP2 AND DUP2 MSTORE PUSH1 0x20 ADD PUSH2 0x17D JUMP JUMPDEST PUSH2 0x267 PUSH1 0x14 SLOAD DUP2 JUMP JUMPDEST PUSH1 0x40 MLOAD SWAP1 DUP2 MSTORE PUSH1 0x20 ADD PUSH2 0x17D JUMP JUMPDEST PUSH2 0x267 PUSH1 0x15 SLOAD DUP2 JUMP JUMPDEST PUSH2 0x133 PUSH2 0x28C CALLDATASIZE PUSH1 0x4 PUSH2 0x1A42 JUMP JUMPDEST PUSH2 0x7C5 JUMP JUMPDEST PUSH2 0x133 PUSH2 0x29F CALLDATASIZE PUSH1 0x4 PUSH2 0x1A7E JUMP JUMPDEST PUSH2 0xC19 JUMP JUMPDEST PUSH2 0x1EB PUSH2 0x2B2 CALLDATASIZE PUSH1 0x4 PUSH2 0x1985 JUMP JUMPDEST PUSH1 0x12 PUSH1 0x20 SWAP1 DUP2 MSTORE PUSH0 SWAP3 DUP4 MSTORE PUSH1 0x40 DUP1 DUP5 KECCAK256 SWAP1 SWAP2 MSTORE SWAP1 DUP3 MSTORE SWAP1 KECCAK256 DUP1 SLOAD PUSH1 0x1 DUP3 ADD SLOAD PUSH1 0x2 SWAP1 SWAP3 ADD SLOAD SWAP1 SWAP2 SWAP1 PUSH1 0x1 PUSH1 0x1 PUSH1 0x40 SHL SUB DUP1 DUP3 AND SWAP2 PUSH1 0x1 PUSH1 0x40 SHL DUP2 DIV SWAP1 SWAP2 AND SWAP1 PUSH1 0x1 PUSH1 0x80 SHL SWAP1 DIV PUSH1 0xFF AND DUP6 JUMP JUMPDEST PUSH2 0x358 PUSH2 0x30C CALLDATASIZE PUSH1 0x4 PUSH2 0x1965 JUMP JUMPDEST PUSH1 0x11 PUSH1 0x20 MSTORE PUSH0 SWAP1 DUP2 MSTORE PUSH1 0x40 SWAP1 KECCAK256 DUP1 SLOAD PUSH1 0x1 DUP3 ADD SLOAD PUSH1 0x2 SWAP1 SWAP3 ADD SLOAD SWAP1 SWAP2 PUSH1 0x1 PUSH1 0x1 PUSH1 0x40 SHL SUB DUP1 DUP3 AND SWAP3 PUSH1 0x1 PUSH1 0x40 SHL DUP4 DIV DUP3 AND SWAP3 PUSH1 0x1 PUSH1 0x80 SHL DUP2 DIV DUP4 AND SWAP3 PUSH1 0x1 PUSH1 0xC0 SHL SWAP1 SWAP2 DIV PUSH1 0xFF AND SWAP2 AND DUP7 JUMP JUMPDEST PUSH1 0x40 DUP1 MLOAD SWAP7 DUP8 MSTORE PUSH1 0x1 PUSH1 0x1 PUSH1 0x40 SHL SUB SWAP6 DUP7 AND PUSH1 0x20 DUP9 ADD MSTORE SWAP4 DUP6 AND SWAP4 DUP7 ADD SWAP4 SWAP1 SWAP4 MSTORE SWAP1 DUP4 AND PUSH1 0x60 DUP6 ADD MSTORE ISZERO ISZERO PUSH1 0x80 DUP5 ADD MSTORE AND PUSH1 0xA0 DUP3 ADD MSTORE PUSH1 0xC0 ADD PUSH2 0x17D JUMP JUMPDEST PUSH2 0x133 PUSH2 0x3A4 CALLDATASIZE PUSH1 0x4 PUSH2 0x1B2A JUMP JUMPDEST PUSH2 0xE78 JUMP JUMPDEST PUSH2 0x267 PUSH1 0x13 SLOAD DUP2 JUMP JUMPDEST PUSH2 0x3FD PUSH2 0x3C0 CALLDATASIZE PUSH1 0x4 PUSH2 0x1965 JUMP JUMPDEST PUSH1 0x1 PUSH1 0x1 PUSH1 0xA0 SHL SUB AND PUSH0 SWAP1 DUP2 MSTORE PUSH1 0x11 PUSH1 0x20 MSTORE PUSH1 0x40 SWAP1 KECCAK256 PUSH1 0x1 ADD SLOAD PUSH1 0x1 PUSH1 0x1 PUSH1 0x40 SHL SUB DUP1 DUP3 AND SWAP3 PUSH1 0x1 PUSH1 0x40 SHL DUP4 DIV DUP3 AND SWAP3 PUSH1 0x1 PUSH1 0x80 SHL SWAP1 DIV SWAP1 SWAP2 AND SWAP1 JUMP JUMPDEST PUSH1 0x40 DUP1 MLOAD PUSH1 0x1 PUSH1 0x1 PUSH1 0x40 SHL SUB SWAP5 DUP6 AND DUP2 MSTORE SWAP3 DUP5 AND PUSH1 0x20 DUP5 ADD MSTORE SWAP3 AND SWAP2 DUP2 ADD SWAP2 SWAP1 SWAP2 MSTORE PUSH1 0x60 ADD PUSH2 0x17D JUMP JUMPDEST PUSH2 0x267 PUSH2 0x435 CALLDATASIZE PUSH1 0x4 PUSH2 0x1965 JUMP JUMPDEST PUSH1 0x1 PUSH1 0x1 PUSH1 0xA0 SHL SUB AND PUSH0 SWAP1 DUP2 MSTORE PUSH1 0x11 PUSH1 0x20 MSTORE PUSH1 0x40 SWAP1 KECCAK256 SLOAD SWAP1 JUMP JUMPDEST PUSH2 0x133 PUSH2 0x45D CALLDATASIZE PUSH1 0x4 PUSH2 0x1985 JUMP JUMPDEST PUSH2 0xF50 JUMP JUMPDEST PUSH1 0x10 SLOAD PUSH2 0x20F SWAP1 PUSH1 0xFF AND DUP2 JUMP JUMPDEST PUSH0 SLOAD PUSH2 0x246 SWAP1 PUSH1 0x1 PUSH1 0x1 PUSH1 0xA0 SHL SUB AND DUP2 JUMP JUMPDEST PUSH2 0x133 PUSH2 0x48F CALLDATASIZE PUSH1 0x4 PUSH2 0x1BC9 JUMP JUMPDEST PUSH2 0x10D6 JUMP JUMPDEST PUSH0 SLOAD PUSH1 0x1 PUSH1 0x1 PUSH1 0xA0 SHL SUB AND CALLER EQ PUSH2 0x4BE JUMPI PUSH1 0x40 MLOAD PUSH4 0x47556579 PUSH1 0xE0 SHL DUP2 MSTORE PUSH1 0x4 ADD PUSH1 0x40 MLOAD DUP1 SWAP2 SUB SWAP1 REVERT JUMPDEST PUSH1 0x1 PUSH1 0x1 PUSH1 0xA0 SHL SUB DUP2 AND PUSH0 SWAP1 DUP2 MSTORE PUSH1 0x11 PUSH1 0x20 MSTORE PUSH1 0x40 SWAP1 KECCAK256 PUSH1 0x1 DUP2 ADD SLOAD PUSH1 0x1 PUSH1 0xC0 SHL SWAP1 DIV PUSH1 0xFF AND PUSH2 0x501 JUMPI PUSH1 0x40 MLOAD PUSH4 0x73CB8EB5 PUSH1 0xE1 SHL DUP2 MSTORE PUSH1 0x4 ADD PUSH1 0x40 MLOAD DUP1 SWAP2 SUB SWAP1 REVERT JUMPDEST PUSH1 0x1 DUP2 ADD SLOAD PUSH1 0x1 PUSH1 0x1 PUSH1 0x40 SHL SUB PUSH1 0x1 PUSH1 0x80 SHL DUP3 DIV DUP2 AND SWAP2 AND SUB PUSH2 0x537 JUMPI PUSH1 0x40 MLOAD PUSH4 0x84EE7AD PUSH1 0xE3 SHL DUP2 MSTORE PUSH1 0x4 ADD PUSH1 0x40 MLOAD DUP1 SWAP2 SUB SWAP1 REVERT JUMPDEST PUSH1 0x1 DUP2 DUP2 ADD SLOAD PUSH0 SWAP2 PUSH2 0x551 SWAP2 PUSH1 0x1 PUSH1 0x1 PUSH1 0x40 SHL SUB AND PUSH2 0x1BF4 JUMP JUMPDEST PUSH1 0x1 PUSH1 0x1 PUSH1 0xA0 SHL SUB DUP5 AND PUSH0 SWAP1 DUP2 MSTORE PUSH1 0x12 PUSH1 0x20 SWAP1 DUP2 MSTORE PUSH1 0x40 DUP1 DUP4 KECCAK256 PUSH1 0x1 PUSH1 0x1 PUSH1 0x40 SHL SUB SWAP5 SWAP1 SWAP5 AND DUP1 DUP5 MSTORE SWAP4 SWAP1 SWAP2 MSTORE SWAP1 KECCAK256 SWAP1 SWAP2 POP PUSH1 0x3 PUSH1 0x2 DUP3 ADD SLOAD PUSH1 0x1 PUSH1 0x80 SHL SWAP1 DIV PUSH1 0xFF AND PUSH1 0x3 DUP2 GT ISZERO PUSH2 0x5A5 JUMPI PUSH2 0x5A5 PUSH2 0x19AD JUMP JUMPDEST SUB PUSH2 0x5C3 JUMPI PUSH1 0x40 MLOAD PUSH4 0xF0F52185 PUSH1 0xE0 SHL DUP2 MSTORE PUSH1 0x4 ADD PUSH1 0x40 MLOAD DUP1 SWAP2 SUB SWAP1 REVERT JUMPDEST PUSH1 0x2 DUP1 DUP3 ADD SLOAD PUSH1 0x1 PUSH1 0x80 SHL SWAP1 DIV PUSH1 0xFF AND PUSH1 0x3 DUP2 GT ISZERO PUSH2 0x5E4 JUMPI PUSH2 0x5E4 PUSH2 0x19AD JUMP JUMPDEST SUB PUSH2 0x625 JUMPI PUSH1 0x1 DUP4 ADD DUP1 SLOAD PUSH8 0xFFFFFFFFFFFFFFFF PUSH1 0x40 SHL NOT AND PUSH1 0x1 PUSH1 0x40 SHL PUSH1 0x1 PUSH1 0x1 PUSH1 0x40 SHL SUB DUP6 AND MUL OR SWAP1 SSTORE PUSH1 0x14 DUP1 SLOAD SWAP1 PUSH0 PUSH2 0x61F DUP4 PUSH2 0x1C14 JUMP JUMPDEST SWAP2 SWAP1 POP SSTORE POP JUMPDEST DUP2 ISZERO PUSH2 0x691 JUMPI PUSH1 0x1 PUSH1 0x1 PUSH1 0xA0 SHL SUB DUP5 AND PUSH0 SWAP1 DUP2 MSTORE PUSH1 0x12 PUSH1 0x20 MSTORE PUSH1 0x40 DUP2 KECCAK256 SWAP1 PUSH2 0x64E PUSH1 0x1 DUP6 PUSH2 0x1C29 JUMP JUMPDEST DUP2 MSTORE PUSH1 0x20 DUP2 ADD SWAP2 SWAP1 SWAP2 MSTORE PUSH1 0x40 ADD PUSH0 KECCAK256 PUSH1 0x2 SWAP1 DUP2 ADD SLOAD SWAP1 DUP5 ADD DUP1 SLOAD PUSH1 0x1 PUSH1 0x40 SHL SWAP1 SWAP3 DIV PUSH1 0x1 PUSH1 0x1 PUSH1 0x40 SHL SUB AND PUSH8 0xFFFFFFFFFFFFFFFF NOT SWAP1 SWAP3 AND SWAP2 SWAP1 SWAP2 OR SWAP1 SSTORE PUSH2 0x6A5 JUMP JUMPDEST PUSH1 0x2 DUP4 ADD DUP1 SLOAD PUSH8 0xFFFFFFFFFFFFFFFF NOT AND SWAP1 SSTORE JUMPDEST PUSH1 0x1 PUSH1 0x1 PUSH1 0xA0 SHL SUB DUP5 AND PUSH0 SWAP1 DUP2 MSTORE PUSH1 0x12 PUSH1 0x20 SWAP1 DUP2 MSTORE PUSH1 0x40 DUP1 DUP4 KECCAK256 DUP6 DUP5 MSTORE SWAP1 SWAP2 MSTORE DUP2 KECCAK256 DUP2 DUP2 SSTORE PUSH1 0x1 DUP1 DUP3 ADD DUP4 SWAP1 SSTORE PUSH1 0x2 SWAP1 SWAP2 ADD DUP1 SLOAD PUSH17 0xFFFFFFFFFFFFFFFFFFFFFFFFFFFFFFFFFF NOT AND SWAP1 SSTORE DUP5 ADD DUP1 SLOAD PUSH8 0xFFFFFFFFFFFFFFFF NOT AND PUSH1 0x1 PUSH1 0x1 PUSH1 0x40 SHL SUB DUP6 AND OR SWAP1 SSTORE PUSH1 0x13 DUP1 SLOAD SWAP2 PUSH2 0x719 DUP4 PUSH2 0x1C14 JUMP JUMPDEST SWAP2 SWAP1 POP SSTORE POP DUP2 DUP5 PUSH1 0x1 PUSH1 0x1 PUSH1 0xA0 SHL SUB AND PUSH32 0xEA9D7C5A8F5F429B98436961BD70A4AF3DBB183BF419142B515DB38C30A434AE TIMESTAMP PUSH1 0x40 MLOAD PUSH2 0x75A SWAP2 DUP2 MSTORE PUSH1 0x20 ADD SWAP1 JUMP JUMPDEST PUSH1 0x40 MLOAD DUP1 SWAP2 SUB SWAP1 LOG3 POP POP POP POP JUMP JUMPDEST PUSH1 0x1 PUSH1 0x1 PUSH1 0xA0 SHL SUB DUP4 AND PUSH0 SWAP1 DUP2 MSTORE PUSH1 0x12 PUSH1 0x20 SWAP1 DUP2 MSTORE PUSH1 0x40 DUP1 DUP4 KECCAK256 DUP6 DUP5 MSTORE SWAP1 SWAP2 MSTORE DUP2 KECCAK256 PUSH1 0x3 PUSH1 0x2 DUP3 ADD SLOAD PUSH1 0x1 PUSH1 0x80 SHL SWAP1 DIV PUSH1 0xFF AND PUSH1 0x3 DUP2 GT ISZERO PUSH2 0x7AC JUMPI PUSH2 0x7AC PUSH2 0x19AD JUMP JUMPDEST EQ DUP1 ISZERO PUSH2 0x7BC JUMPI POP DUP3 DUP2 PUSH1 0x1 ADD SLOAD EQ JUMPDEST SWAP6 SWAP5 POP POP POP POP POP JUMP JUMPDEST PUSH1 0x40 MLOAD PUSH4 0x1FD3F77 PUSH1 0xE7 SHL DUP2 MSTORE CALLER PUSH1 0x4 DUP3 ADD MSTORE PUSH32 0x0 PUSH1 0x1 PUSH1 0x1 PUSH1 0xA0 SHL SUB AND SWAP1 PUSH4 0xFE9FBB80 SWAP1 PUSH1 0x24 ADD PUSH1 0x20 PUSH1 0x40 MLOAD DUP1 DUP4 SUB DUP2 DUP7 GAS STATICCALL ISZERO DUP1 ISZERO PUSH2 0x827 JUMPI RETURNDATASIZE PUSH0 DUP1 RETURNDATACOPY RETURNDATASIZE PUSH0 REVERT JUMPDEST POP POP POP POP PUSH1 0x40 MLOAD RETURNDATASIZE PUSH1 0x1F NOT PUSH1 0x1F DUP3 ADD AND DUP3 ADD DUP1 PUSH1 0x40 MSTORE POP DUP2 ADD SWAP1 PUSH2 0x84B SWAP2 SWAP1 PUSH2 0x1C3C JUMP JUMPDEST PUSH2 0x868 JUMPI PUSH1 0x40 MLOAD PUSH4 0xEA8E4EB5 PUSH1 0xE0 SHL DUP2 MSTORE PUSH1 0x4 ADD PUSH1 0x40 MLOAD DUP1 SWAP2 SUB SWAP1 REVERT JUMPDEST CALLER PUSH0 SWAP1 DUP2 MSTORE PUSH1 0x11 PUSH1 0x20 MSTORE PUSH1 0x40 SWAP1 KECCAK256 PUSH1 0x1 DUP2 ADD SLOAD PUSH1 0x1 PUSH1 0xC0 SHL SWAP1 DIV PUSH1 0xFF AND PUSH2 0x8A2 JUMPI PUSH1 0x40 MLOAD PUSH4 0x73CB8EB5 PUSH1 0xE1 SHL DUP2 MSTORE PUSH1 0x4 ADD PUSH1 0x40 MLOAD DUP1 SWAP2 SUB SWAP1 REVERT JUMPDEST PUSH2 0x8B2 PUSH1 0x40 DUP4 ADD PUSH1 0x20 DUP5 ADD PUSH2 0x1C5B JUMP JUMPDEST PUSH1 0x1 PUSH1 0x1 PUSH1 0x40 SHL SUB AND PUSH2 0x8CB PUSH1 0x60 DUP5 ADD PUSH1 0x40 DUP6 ADD PUSH2 0x1C5B JUMP JUMPDEST PUSH1 0x1 PUSH1 0x1 PUSH1 0x40 SHL SUB AND LT ISZERO PUSH2 0x8F3 JUMPI PUSH1 0x40 MLOAD PUSH4 0x12A4320B PUSH1 0xE2 SHL DUP2 MSTORE PUSH1 0x4 ADD PUSH1 0x40 MLOAD DUP1 SWAP2 SUB SWAP1 REVERT JUMPDEST PUSH1 0x2 DUP2 ADD SLOAD PUSH0 SWAP1 PUSH1 0x1 PUSH1 0x1 PUSH1 0x40 SHL SUB AND ISZERO PUSH2 0x926 JUMPI PUSH1 0x2 DUP3 ADD SLOAD PUSH2 0x921 SWAP1 PUSH1 0x1 PUSH1 0x1 PUSH1 0x40 SHL SUB AND PUSH1 0x1 PUSH2 0x1C81 JUMP JUMPDEST PUSH2 0x929 JUMP JUMPDEST PUSH1 0x1 JUMPDEST SWAP1 POP PUSH1 0x1 PUSH1 0x1 PUSH1 0x40 SHL SUB DUP2 AND PUSH2 0x945 PUSH1 0x40 DUP6 ADD PUSH1 0x20 DUP7 ADD PUSH2 0x1C5B JUMP JUMPDEST PUSH1 0x1 PUSH1 0x1 PUSH1 0x40 SHL SUB AND EQ PUSH2 0x995 JUMPI DUP1 PUSH2 0x964 PUSH1 0x40 DUP6 ADD PUSH1 0x20 DUP7 ADD PUSH2 0x1C5B JUMP JUMPDEST PUSH1 0x40 MLOAD PUSH4 0x524EF2A5 PUSH1 0xE0 SHL DUP2 MSTORE PUSH1 0x1 PUSH1 0x1 PUSH1 0x40 SHL SUB SWAP3 DUP4 AND PUSH1 0x4 DUP3 ADD MSTORE SWAP2 AND PUSH1 0x24 DUP3 ADD MSTORE PUSH1 0x44 ADD JUMPDEST PUSH1 0x40 MLOAD DUP1 SWAP2 SUB SWAP1 REVERT JUMPDEST PUSH1 0x1 DUP3 ADD SLOAD PUSH1 0x1 PUSH1 0x1 PUSH1 0x40 SHL SUB AND PUSH0 CALLER DUP3 DUP7 CALLDATALOAD PUSH2 0x9B8 PUSH1 0x40 DUP10 ADD PUSH1 0x20 DUP11 ADD PUSH2 0x1C5B JUMP JUMPDEST PUSH2 0x9C8 PUSH1 0x60 DUP11 ADD PUSH1 0x40 DUP12 ADD PUSH2 0x1C5B JUMP JUMPDEST PUSH1 0x60 DUP11 ADD CALLDATALOAD PUSH2 0x9DD PUSH1 0xA0 DUP13 ADD PUSH1 0x80 DUP14 ADD PUSH2 0x1C5B JUMP JUMPDEST PUSH1 0x40 DUP1 MLOAD PUSH1 0x1 PUSH1 0x1 PUSH1 0xA0 SHL SUB SWAP1 SWAP9 AND PUSH1 0x20 DUP10 ADD MSTORE DUP8 ADD SWAP6 SWAP1 SWAP6 MSTORE PUSH1 0x60 DUP7 ADD SWAP4 SWAP1 SWAP4 MSTORE PUSH1 0x1 PUSH1 0x1 PUSH1 0x40 SHL SUB SWAP2 DUP3 AND PUSH1 0x80 DUP7 ADD MSTORE DUP2 AND PUSH1 0xA0 DUP6 ADD MSTORE PUSH1 0xC0 DUP5 ADD SWAP2 SWAP1 SWAP2 MSTORE AND PUSH1 0xE0 DUP3 ADD MSTORE PUSH2 0x100 ADD PUSH1 0x40 DUP1 MLOAD PUSH1 0x1F NOT DUP2 DUP5 SUB ADD DUP2 MSTORE DUP3 DUP3 MSTORE DUP1 MLOAD PUSH1 0x20 SWAP2 DUP3 ADD KECCAK256 PUSH1 0xA0 DUP5 ADD DUP4 MSTORE DUP1 DUP5 MSTORE DUP9 CALLDATALOAD DUP5 DUP4 ADD MSTORE SWAP4 POP DUP3 DUP3 ADD SWAP2 PUSH2 0xA64 SWAP2 SWAP1 DUP10 ADD SWAP1 DUP10 ADD PUSH2 0x1C5B JUMP JUMPDEST PUSH1 0x1 PUSH1 0x1 PUSH1 0x40 SHL SUB AND DUP2 MSTORE PUSH1 0x20 ADD PUSH2 0xA82 PUSH1 0x60 DUP9 ADD PUSH1 0x40 DUP10 ADD PUSH2 0x1C5B JUMP JUMPDEST PUSH1 0x1 PUSH1 0x1 PUSH1 0x40 SHL SUB AND DUP2 MSTORE PUSH1 0x20 ADD PUSH1 0x1 SWAP1 MSTORE CALLER PUSH0 SWAP1 DUP2 MSTORE PUSH1 0x12 PUSH1 0x20 SWAP1 DUP2 MSTORE PUSH1 0x40 DUP1 DUP4 KECCAK256 DUP7 DUP5 MSTORE DUP3 MSTORE SWAP2 DUP3 SWAP1 KECCAK256 DUP4 MLOAD DUP2 SSTORE SWAP1 DUP4 ADD MLOAD PUSH1 0x1 DUP3 ADD SSTORE SWAP1 DUP3 ADD MLOAD PUSH1 0x2 DUP3 ADD DUP1 SLOAD PUSH1 0x60 DUP6 ADD MLOAD PUSH1 0x1 PUSH1 0x1 PUSH1 0x40 SHL SUB SWAP1 DUP2 AND PUSH1 0x1 PUSH1 0x40 SHL MUL PUSH1 0x1 PUSH1 0x1 PUSH1 0x80 SHL SUB NOT SWAP1 SWAP3 AND SWAP4 AND SWAP3 SWAP1 SWAP3 OR SWAP2 SWAP1 SWAP2 OR DUP1 DUP3 SSTORE PUSH1 0x80 DUP5 ADD MLOAD SWAP2 SWAP1 PUSH1 0xFF PUSH1 0x80 SHL NOT AND PUSH1 0x1 PUSH1 0x80 SHL DUP4 PUSH1 0x3 DUP2 GT ISZERO PUSH2 0xB19 JUMPI PUSH2 0xB19 PUSH2 0x19AD JUMP JUMPDEST MUL OR SWAP1 SSTORE POP PUSH2 0xB2D SWAP2 POP DUP4 SWAP1 POP PUSH1 0x1 PUSH2 0x1CA1 JUMP JUMPDEST PUSH1 0x1 DUP6 ADD DUP1 SLOAD PUSH8 0xFFFFFFFFFFFFFFFF NOT AND PUSH1 0x1 PUSH1 0x1 PUSH1 0x40 SHL SUB SWAP3 SWAP1 SWAP3 AND SWAP2 SWAP1 SWAP2 OR SWAP1 SSTORE PUSH2 0xB60 PUSH1 0x60 DUP7 ADD PUSH1 0x40 DUP8 ADD PUSH2 0x1C5B JUMP JUMPDEST PUSH1 0x2 DUP6 ADD DUP1 SLOAD PUSH8 0xFFFFFFFFFFFFFFFF NOT AND PUSH1 0x1 PUSH1 0x1 PUSH1 0x40 SHL SUB SWAP3 SWAP1 SWAP3 AND SWAP2 SWAP1 SWAP2 OR SWAP1 SSTORE PUSH1 0x13 DUP1 SLOAD SWAP1 PUSH0 PUSH2 0xB92 DUP4 PUSH2 0x1CB4 JUMP JUMPDEST SWAP1 SWAP2 SSTORE POP DUP3 SWAP1 POP CALLER PUSH32 0xD37D5FC3AE000A2FB1EC2EFCFD3847602C39A29CBFFF9320A99B54F8B561309 DUP4 DUP9 CALLDATALOAD PUSH2 0xBCE PUSH1 0x40 DUP12 ADD PUSH1 0x20 DUP13 ADD PUSH2 0x1C5B JUMP JUMPDEST PUSH2 0xBDE PUSH1 0x60 DUP13 ADD PUSH1 0x40 DUP14 ADD PUSH2 0x1C5B JUMP JUMPDEST PUSH1 0x40 DUP1 MLOAD SWAP5 DUP6 MSTORE PUSH1 0x20 DUP6 ADD SWAP4 SWAP1 SWAP4 MSTORE PUSH1 0x1 PUSH1 0x1 PUSH1 0x40 SHL SUB SWAP2 DUP3 AND DUP5 DUP5 ADD MSTORE AND PUSH1 0x60 DUP4 ADD MSTORE TIMESTAMP PUSH1 0x80 DUP4 ADD MSTORE MLOAD SWAP1 DUP2 SWAP1 SUB PUSH1 0xA0 ADD SWAP1 LOG3 POP POP POP POP POP JUMP JUMPDEST PUSH1 0x10 SLOAD PUSH1 0xFF AND PUSH2 0xC3C JUMPI PUSH1 0x40 MLOAD PUSH4 0x7C480385 PUSH1 0xE0 SHL DUP2 MSTORE PUSH1 0x4 ADD PUSH1 0x40 MLOAD DUP1 SWAP2 SUB SWAP1 REVERT JUMPDEST PUSH1 0x40 MLOAD PUSH4 0x1FD3F77 PUSH1 0xE7 SHL DUP2 MSTORE CALLER PUSH1 0x4 DUP3 ADD MSTORE PUSH32 0x0 PUSH1 0x1 PUSH1 0x1 PUSH1 0xA0 SHL SUB AND SWAP1 PUSH4 0xFE9FBB80 SWAP1 PUSH1 0x24 ADD PUSH1 0x20 PUSH1 0x40 MLOAD DUP1 DUP4 SUB DUP2 DUP7 GAS STATICCALL ISZERO DUP1 ISZERO PUSH2 0xC9E JUMPI RETURNDATASIZE PUSH0 DUP1 RETURNDATACOPY RETURNDATASIZE PUSH0 REVERT JUMPDEST POP POP POP POP PUSH1 0x40 MLOAD RETURNDATASIZE PUSH1 0x1F NOT PUSH1 0x1F DUP3 ADD AND DUP3 ADD DUP1 PUSH1 0x40 MSTORE POP DUP2 ADD SWAP1 PUSH2 0xCC2 SWAP2 SWAP1 PUSH2 0x1C3C JUMP JUMPDEST PUSH2 0xCDF JUMPI PUSH1 0x40 MLOAD PUSH4 0xEA8E4EB5 PUSH1 0xE0 SHL DUP2 MSTORE PUSH1 0x4 ADD PUSH1 0x40 MLOAD DUP1 SWAP2 SUB SWAP1 REVERT JUMPDEST CALLER PUSH0 SWAP1 DUP2 MSTORE PUSH1 0x11 PUSH1 0x20 MSTORE PUSH1 0x40 SWAP1 KECCAK256 PUSH1 0x1 DUP2 ADD SLOAD PUSH1 0x1 PUSH1 0xC0 SHL SWAP1 DIV PUSH1 0xFF AND PUSH2 0xD19 JUMPI PUSH1 0x40 MLOAD PUSH4 0x73CB8EB5 PUSH1 0xE1 SHL DUP2 MSTORE PUSH1 0x4 ADD PUSH1 0x40 MLOAD DUP1 SWAP2 SUB SWAP1 REVERT JUMPDEST PUSH1 0x1 DUP2 ADD SLOAD PUSH1 0x1 PUSH1 0x40 SHL SWAP1 DIV PUSH1 0x1 PUSH1 0x1 PUSH1 0x40 SHL SUB AND DUP8 EQ PUSH2 0xD4D JUMPI PUSH1 0x40 MLOAD PUSH4 0x30E4F27B PUSH1 0xE2 SHL DUP2 MSTORE PUSH1 0x4 ADD PUSH1 0x40 MLOAD DUP1 SWAP2 SUB SWAP1 REVERT JUMPDEST CALLER PUSH0 SWAP1 DUP2 MSTORE PUSH1 0x12 PUSH1 0x20 SWAP1 DUP2 MSTORE PUSH1 0x40 DUP1 DUP4 KECCAK256 DUP11 DUP5 MSTORE SWAP1 SWAP2 MSTORE SWAP1 KECCAK256 PUSH1 0x1 PUSH1 0x2 DUP3 ADD SLOAD PUSH1 0x1 PUSH1 0x80 SHL SWAP1 DIV PUSH1 0xFF AND PUSH1 0x3 DUP2 GT ISZERO PUSH2 0xD88 JUMPI PUSH2 0xD88 PUSH2 0x19AD JUMP JUMPDEST EQ PUSH2 0xDA6 JUMPI PUSH1 0x40 MLOAD PUSH4 0x309A8CA5 PUSH1 0xE2 SHL DUP2 MSTORE PUSH1 0x4 ADD PUSH1 0x40 MLOAD DUP1 SWAP2 SUB SWAP1 REVERT JUMPDEST PUSH0 PUSH2 0xDB4 DUP9 DUP9 DUP9 DUP9 DUP9 PUSH2 0x12F3 JUMP JUMPDEST SWAP1 POP DUP1 PUSH2 0xDD4 JUMPI PUSH1 0x40 MLOAD PUSH4 0x9BDE339 PUSH1 0xE0 SHL DUP2 MSTORE PUSH1 0x4 ADD PUSH1 0x40 MLOAD DUP1 SWAP2 SUB SWAP1 REVERT JUMPDEST PUSH1 0x2 DUP3 ADD DUP1 SLOAD PUSH1 0xFF PUSH1 0x80 SHL NOT AND PUSH1 0x1 PUSH1 0x81 SHL OR SWAP1 SSTORE PUSH2 0xDF4 DUP10 PUSH1 0x1 PUSH2 0x1CA1 JUMP JUMPDEST PUSH1 0x1 DUP5 ADD DUP1 SLOAD PUSH1 0x1 PUSH1 0x1 PUSH1 0x40 SHL SUB SWAP3 SWAP1 SWAP3 AND PUSH1 0x1 PUSH1 0x40 SHL MUL PUSH8 0xFFFFFFFFFFFFFFFF PUSH1 0x40 SHL NOT SWAP1 SWAP3 AND SWAP2 SWAP1 SWAP2 OR SWAP1 SSTORE PUSH1 0x14 DUP1 SLOAD SWAP1 PUSH0 PUSH2 0xE31 DUP4 PUSH2 0x1CB4 JUMP JUMPDEST SWAP1 SWAP2 SSTORE POP POP PUSH1 0x40 MLOAD TIMESTAMP DUP2 MSTORE DUP10 SWAP1 CALLER SWAP1 PUSH32 0xF4170F8221A8A01EEE8962ED1AD097C1C4567EF05A7D7FF4E9057726ADAC1F6F SWAP1 PUSH1 0x20 ADD PUSH1 0x40 MLOAD DUP1 SWAP2 SUB SWAP1 LOG3 POP POP POP POP POP POP POP POP POP JUMP JUMPDEST PUSH0 SLOAD PUSH1 0x1 PUSH1 0x1 PUSH1 0xA0 SHL SUB AND CALLER EQ PUSH2 0xEA2 JUMPI PUSH1 0x40 MLOAD PUSH4 0x47556579 PUSH1 0xE0 SHL DUP2 MSTORE PUSH1 0x4 ADD PUSH1 0x40 MLOAD DUP1 SWAP2 SUB SWAP1 REVERT JUMPDEST PUSH2 0xEAF PUSH1 0x1 DUP8 PUSH1 0x2 PUSH2 0x17E3 JUMP JUMPDEST POP PUSH2 0xEBD PUSH1 0x3 DUP7 PUSH1 0x2 PUSH2 0x1821 JUMP JUMPDEST POP PUSH2 0xECB PUSH1 0x7 DUP6 PUSH1 0x2 PUSH2 0x1821 JUMP JUMPDEST POP PUSH2 0xED9 PUSH1 0xB DUP5 PUSH1 0x2 PUSH2 0x1821 JUMP JUMPDEST POP PUSH2 0xEE5 PUSH1 0xF PUSH0 PUSH2 0x1865 JUMP JUMPDEST PUSH0 JUMPDEST DUP2 DUP2 LT ISZERO PUSH2 0xF3A JUMPI PUSH1 0xF DUP4 DUP4 DUP4 DUP2 DUP2 LT PUSH2 0xF03 JUMPI PUSH2 0xF03 PUSH2 0x1CCC JUMP JUMPDEST DUP4 SLOAD PUSH1 0x1 DUP2 ADD DUP6 SSTORE PUSH0 SWAP5 DUP6 MSTORE PUSH1 0x20 SWAP1 SWAP5 KECCAK256 PUSH2 0xF31 SWAP5 PUSH1 0x2 SWAP1 DUP2 MUL SWAP1 SWAP2 ADD SWAP4 PUSH1 0x40 SWAP1 SWAP3 MUL SWAP2 SWAP1 SWAP2 ADD SWAP2 POP PUSH2 0x17E3 JUMP JUMPDEST POP PUSH1 0x1 ADD PUSH2 0xEE7 JUMP JUMPDEST POP POP PUSH1 0x10 DUP1 SLOAD PUSH1 0xFF NOT AND PUSH1 0x1 OR SWAP1 SSTORE POP POP POP POP POP JUMP JUMPDEST PUSH0 SLOAD PUSH1 0x1 PUSH1 0x1 PUSH1 0xA0 SHL SUB AND CALLER EQ PUSH2 0xF7A JUMPI PUSH1 0x40 MLOAD PUSH4 0x47556579 PUSH1 0xE0 SHL DUP2 MSTORE PUSH1 0x4 ADD PUSH1 0x40 MLOAD DUP1 SWAP2 SUB SWAP1 REVERT JUMPDEST PUSH1 0x1 PUSH1 0x1 PUSH1 0xA0 SHL SUB DUP3 AND PUSH0 SWAP1 DUP2 MSTORE PUSH1 0x11 PUSH1 0x20 MSTORE PUSH1 0x40 SWAP1 KECCAK256 PUSH1 0x1 ADD SLOAD PUSH1 0x1 PUSH1 0xC0 SHL SWAP1 DIV PUSH1 0xFF AND ISZERO PUSH2 0xFBC JUMPI PUSH1 0x40 MLOAD PUSH3 0x5F89B PUSH1 0xE5 SHL DUP2 MSTORE PUSH1 0x4 ADD PUSH1 0x40 MLOAD DUP1 SWAP2 SUB SWAP1 REVERT JUMPDEST PUSH1 0x40 DUP1 MLOAD PUSH1 0xC0 DUP2 ADD DUP3 MSTORE DUP3 DUP2 MSTORE PUSH0 PUSH1 0x20 DUP1 DUP4 ADD DUP3 DUP2 MSTORE DUP4 DUP6 ADD DUP4 DUP2 MSTORE PUSH1 0x60 DUP6 ADD DUP5 DUP2 MSTORE PUSH1 0x1 PUSH1 0x80 DUP8 ADD DUP2 DUP2 MSTORE PUSH1 0xA0 DUP9 ADD DUP8 DUP2 MSTORE PUSH1 0x1 PUSH1 0x1 PUSH1 0xA0 SHL SUB DUP13 AND DUP1 DUP10 MSTORE PUSH1 0x11 SWAP1 SWAP8 MSTORE SWAP7 DUP10 SWAP1 KECCAK256 SWAP8 MLOAD DUP9 SSTORE SWAP4 MLOAD SWAP1 DUP8 ADD DUP1 SLOAD SWAP4 MLOAD SWAP3 MLOAD SWAP5 MLOAD ISZERO ISZERO PUSH1 0x1 PUSH1 0xC0 SHL MUL PUSH1 0xFF PUSH1 0xC0 SHL NOT PUSH1 0x1 PUSH1 0x1 PUSH1 0x40 SHL SUB SWAP7 DUP8 AND PUSH1 0x1 PUSH1 0x80 SHL MUL AND PUSH9 0xFFFFFFFFFFFFFFFFFF PUSH1 0x80 SHL NOT SWAP5 DUP8 AND PUSH1 0x1 PUSH1 0x40 SHL MUL PUSH1 0x1 PUSH1 0x1 PUSH1 0x80 SHL SUB NOT SWAP1 SWAP7 AND SWAP4 DUP8 AND SWAP4 SWAP1 SWAP4 OR SWAP5 SWAP1 SWAP5 OR SWAP3 SWAP1 SWAP3 AND OR SWAP2 SWAP1 SWAP2 OR SWAP1 SSTORE SWAP2 MLOAD PUSH1 0x2 SWAP1 SWAP4 ADD DUP1 SLOAD SWAP4 SWAP1 SWAP3 AND PUSH8 0xFFFFFFFFFFFFFFFF NOT SWAP4 SWAP1 SWAP4 AND SWAP3 SWAP1 SWAP3 OR SWAP1 SSTORE SWAP1 MLOAD PUSH32 0xCB4C6DFE0CEEA5101BD46C1CEC77B9816756C35226D856C91CDFB3A098D70517 SWAP1 PUSH2 0x10CA SWAP1 DUP5 SWAP1 TIMESTAMP SWAP1 SWAP2 DUP3 MSTORE PUSH1 0x20 DUP3 ADD MSTORE PUSH1 0x40 ADD SWAP1 JUMP JUMPDEST PUSH1 0x40 MLOAD DUP1 SWAP2 SUB SWAP1 LOG2 POP POP JUMP JUMPDEST PUSH1 0x40 MLOAD PUSH4 0x1FD3F77 PUSH1 0xE7 SHL DUP2 MSTORE CALLER PUSH1 0x4 DUP3 ADD MSTORE PUSH32 0x0 PUSH1 0x1 PUSH1 0x1 PUSH1 0xA0 SHL SUB AND SWAP1 PUSH4 0xFE9FBB80 SWAP1 PUSH1 0x24 ADD PUSH1 0x20 PUSH1 0x40 MLOAD DUP1 DUP4 SUB DUP2 DUP7 GAS STATICCALL ISZERO DUP1 ISZERO PUSH2 0x1138 JUMPI RETURNDATASIZE PUSH0 DUP1 RETURNDATACOPY RETURNDATASIZE PUSH0 REVERT JUMPDEST POP POP POP POP PUSH1 0x40 MLOAD RETURNDATASIZE PUSH1 0x1F NOT PUSH1 0x1F DUP3 ADD AND DUP3 ADD DUP1 PUSH1 0x40 MSTORE POP DUP2 ADD SWAP1 PUSH2 0x115C SWAP2 SWAP1 PUSH2 0x1C3C JUMP JUMPDEST PUSH2 0x1179 JUMPI PUSH1 0x40 MLOAD PUSH4 0xEA8E4EB5 PUSH1 0xE0 SHL DUP2 MSTORE PUSH1 0x4 ADD PUSH1 0x40 MLOAD DUP1 SWAP2 SUB SWAP1 REVERT JUMPDEST CALLER PUSH0 SWAP1 DUP2 MSTORE PUSH1 0x11 PUSH1 0x20 MSTORE PUSH1 0x40 SWAP1 KECCAK256 PUSH1 0x1 DUP2 ADD SLOAD PUSH1 0x1 PUSH1 0xC0 SHL SWAP1 DIV PUSH1 0xFF AND PUSH2 0x11B3 JUMPI PUSH1 0x40 MLOAD PUSH4 0x73CB8EB5 PUSH1 0xE1 SHL DUP2 MSTORE PUSH1 0x4 ADD PUSH1 0x40 MLOAD DUP1 SWAP2 SUB SWAP1 REVERT JUMPDEST PUSH1 0x1 DUP2 ADD SLOAD PUSH1 0x1 PUSH1 0x80 SHL SWAP1 DIV PUSH1 0x1 PUSH1 0x1 PUSH1 0x40 SHL SUB AND DUP3 EQ PUSH2 0x11E7 JUMPI PUSH1 0x40 MLOAD PUSH4 0x69FD0745 PUSH1 0xE0 SHL DUP2 MSTORE PUSH1 0x4 ADD PUSH1 0x40 MLOAD DUP1 SWAP2 SUB SWAP1 REVERT JUMPDEST CALLER PUSH0 SWAP1 DUP2 MSTORE PUSH1 0x12 PUSH1 0x20 SWAP1 DUP2 MSTORE PUSH1 0x40 DUP1 DUP4 KECCAK256 DUP6 DUP5 MSTORE SWAP1 SWAP2 MSTORE SWAP1 KECCAK256 PUSH1 0x2 DUP1 DUP3 ADD SLOAD PUSH1 0x1 PUSH1 0x80 SHL SWAP1 DIV PUSH1 0xFF AND PUSH1 0x3 DUP2 GT ISZERO PUSH2 0x1221 JUMPI PUSH2 0x1221 PUSH2 0x19AD JUMP JUMPDEST EQ PUSH2 0x123F JUMPI PUSH1 0x40 MLOAD PUSH4 0x4AEB15BF PUSH1 0xE0 SHL DUP2 MSTORE PUSH1 0x4 ADD PUSH1 0x40 MLOAD DUP1 SWAP2 SUB SWAP1 REVERT JUMPDEST DUP2 SLOAD PUSH1 0x1 DUP1 DUP4 ADD SLOAD DUP5 SSTORE PUSH2 0x1254 SWAP1 DUP6 SWAP1 PUSH2 0x1CA1 JUMP JUMPDEST PUSH1 0x1 DUP5 ADD DUP1 SLOAD PUSH8 0xFFFFFFFFFFFFFFFF PUSH1 0x80 SHL NOT AND PUSH1 0x1 PUSH1 0x80 SHL PUSH1 0x1 PUSH1 0x1 PUSH1 0x40 SHL SUB SWAP4 SWAP1 SWAP4 AND SWAP3 SWAP1 SWAP3 MUL SWAP2 SWAP1 SWAP2 OR SWAP1 SSTORE PUSH1 0x2 DUP3 ADD DUP1 SLOAD PUSH1 0xFF PUSH1 0x80 SHL NOT AND PUSH1 0x3 PUSH1 0x80 SHL OR SWAP1 SSTORE PUSH1 0x15 DUP1 SLOAD SWAP1 PUSH0 PUSH2 0x12A7 DUP4 PUSH2 0x1CB4 JUMP JUMPDEST SWAP1 SWAP2 SSTORE POP POP PUSH1 0x1 DUP3 ADD SLOAD PUSH1 0x40 DUP1 MLOAD DUP4 DUP2 MSTORE PUSH1 0x20 DUP2 ADD SWAP3 SWAP1 SWAP3 MSTORE TIMESTAMP SWAP1 DUP3 ADD MSTORE DUP5 SWAP1 CALLER SWAP1 PUSH32 0xEE42608CEAAC3DA45E2339835DA94CE6656F2A879D42AA72FFF12BF19634EC77 SWAP1 PUSH1 0x60 ADD PUSH2 0x75A JUMP JUMPDEST PUSH1 0xF SLOAD PUSH0 SWAP1 PUSH2 0x1303 DUP4 PUSH1 0x1 PUSH2 0x1CA1 JUMP JUMPDEST EQ PUSH2 0x1347 JUMPI PUSH1 0x40 MLOAD PUSH3 0x461BCD PUSH1 0xE5 SHL DUP2 MSTORE PUSH1 0x20 PUSH1 0x4 DUP3 ADD MSTORE PUSH1 0x14 PUSH1 0x24 DUP3 ADD MSTORE PUSH20 0x92DCECC2D8D2C840D2DCE0EAE840D8CADCCEE8D PUSH1 0x63 SHL PUSH1 0x44 DUP3 ADD MSTORE PUSH1 0x64 ADD PUSH2 0x98C JUMP JUMPDEST PUSH0 PUSH1 0x40 MLOAD DUP1 PUSH1 0x40 ADD PUSH1 0x40 MSTORE DUP1 PUSH1 0x1 PUSH1 0xE ADD PUSH0 DUP2 SLOAD DUP2 LT PUSH2 0x1369 JUMPI PUSH2 0x1369 PUSH2 0x1CCC JUMP JUMPDEST PUSH0 SWAP2 DUP3 MSTORE PUSH1 0x20 DUP3 KECCAK256 PUSH1 0x2 SWAP1 SWAP2 MUL ADD ADD SLOAD DUP2 MSTORE PUSH1 0x20 ADD PUSH1 0x1 PUSH1 0xE ADD PUSH0 DUP2 SLOAD DUP2 LT PUSH2 0x1394 JUMPI PUSH2 0x1394 PUSH2 0x1CCC JUMP JUMPDEST SWAP1 PUSH0 MSTORE PUSH1 0x20 PUSH0 KECCAK256 SWAP1 PUSH1 0x2 MUL ADD PUSH1 0x1 PUSH1 0x2 DUP2 LT PUSH2 0x13B2 JUMPI PUSH2 0x13B2 PUSH2 0x1CCC JUMP JUMPDEST ADD SLOAD SWAP1 MSTORE SWAP1 POP PUSH0 JUMPDEST DUP4 DUP2 LT ISZERO PUSH2 0x1452 JUMPI PUSH0 PUSH2 0x143B PUSH1 0xF PUSH2 0x13D3 DUP5 PUSH1 0x1 PUSH2 0x1CA1 JUMP JUMPDEST DUP2 SLOAD DUP2 LT PUSH2 0x13E3 JUMPI PUSH2 0x13E3 PUSH2 0x1CCC JUMP JUMPDEST PUSH0 SWAP2 DUP3 MSTORE PUSH1 0x20 SWAP1 SWAP2 KECCAK256 PUSH1 0x40 DUP1 MLOAD DUP1 DUP3 ADD SWAP2 DUP3 SWAP1 MSTORE SWAP3 PUSH1 0x2 SWAP1 DUP2 MUL SWAP1 SWAP3 ADD SWAP2 SWAP1 DUP3 DUP5 JUMPDEST DUP2 SLOAD DUP2 MSTORE PUSH1 0x20 ADD SWAP1 PUSH1 0x1 ADD SWAP1 DUP1 DUP4 GT PUSH2 0x1405 JUMPI POP POP POP POP POP DUP8 DUP8 DUP6 DUP2 DUP2 LT PUSH2 0x142F JUMPI PUSH2 0x142F PUSH2 0x1CCC JUMP JUMPDEST SWAP1 POP PUSH1 0x20 MUL ADD CALLDATALOAD PUSH2 0x15B7 JUMP JUMPDEST SWAP1 POP PUSH2 0x1447 DUP4 DUP3 PUSH2 0x15F4 JUMP JUMPDEST SWAP3 POP POP PUSH1 0x1 ADD PUSH2 0x13BA JUMP JUMPDEST POP PUSH2 0x15AC PUSH2 0x145F DUP9 PUSH2 0x1636 JUMP JUMPDEST PUSH1 0x40 DUP1 MLOAD DUP1 DUP3 ADD SWAP2 DUP3 SWAP1 MSTORE DUP10 SWAP2 PUSH1 0x1 SWAP1 PUSH1 0x2 SWAP1 DUP3 DUP5 JUMPDEST DUP2 SLOAD DUP2 MSTORE PUSH1 0x20 ADD SWAP1 PUSH1 0x1 ADD SWAP1 DUP1 DUP4 GT PUSH2 0x1475 JUMPI POP POP PUSH1 0x40 DUP1 MLOAD DUP1 DUP3 ADD SWAP1 SWAP2 MSTORE SWAP3 POP PUSH1 0x3 SWAP2 POP PUSH1 0x2 SWAP1 POP PUSH0 DUP4 JUMPDEST DUP3 DUP3 LT ISZERO PUSH2 0x14E7 JUMPI PUSH1 0x40 DUP1 MLOAD DUP1 DUP3 ADD SWAP2 DUP3 SWAP1 MSTORE SWAP1 PUSH1 0x2 DUP5 DUP2 MUL DUP8 ADD SWAP2 DUP3 DUP5 JUMPDEST DUP2 SLOAD DUP2 MSTORE PUSH1 0x20 ADD SWAP1 PUSH1 0x1 ADD SWAP1 DUP1 DUP4 GT PUSH2 0x14C0 JUMPI POP POP POP POP POP DUP2 MSTORE PUSH1 0x20 ADD SWAP1 PUSH1 0x1 ADD SWAP1 PUSH2 0x14A1 JUMP JUMPDEST POP POP PUSH1 0x40 DUP1 MLOAD DUP1 DUP3 ADD SWAP1 SWAP2 MSTORE DUP9 SWAP3 POP SWAP1 POP PUSH1 0x7 PUSH1 0x2 PUSH0 DUP4 JUMPDEST DUP3 DUP3 LT ISZERO PUSH2 0x1545 JUMPI PUSH1 0x40 DUP1 MLOAD DUP1 DUP3 ADD SWAP2 DUP3 SWAP1 MSTORE SWAP1 PUSH1 0x2 DUP5 DUP2 MUL DUP8 ADD SWAP2 DUP3 DUP5 JUMPDEST DUP2 SLOAD DUP2 MSTORE PUSH1 0x20 ADD SWAP1 PUSH1 0x1 ADD SWAP1 DUP1 DUP4 GT PUSH2 0x151E JUMPI POP POP POP POP POP DUP2 MSTORE PUSH1 0x20 ADD SWAP1 PUSH1 0x1 ADD SWAP1 PUSH2 0x14FF JUMP JUMPDEST POP POP PUSH1 0x40 DUP1 MLOAD DUP1 DUP3 ADD SWAP1 SWAP2 MSTORE DUP15 SWAP3 POP SWAP1 POP PUSH1 0xB PUSH1 0x2 PUSH0 DUP4 JUMPDEST DUP3 DUP3 LT ISZERO PUSH2 0x15A3 JUMPI PUSH1 0x40 DUP1 MLOAD DUP1 DUP3 ADD SWAP2 DUP3 SWAP1 MSTORE SWAP1 PUSH1 0x2 DUP5 DUP2 MUL DUP8 ADD SWAP2 DUP3 DUP5 JUMPDEST DUP2 SLOAD DUP2 MSTORE PUSH1 0x20 ADD SWAP1 PUSH1 0x1 ADD SWAP1 DUP1 DUP4 GT PUSH2 0x157C JUMPI POP POP POP POP POP DUP2 MSTORE PUSH1 0x20 ADD SWAP1 PUSH1 0x1 ADD SWAP1 PUSH2 0x155D JUMP JUMPDEST POP POP POP POP PUSH2 0x16C4 JUMP JUMPDEST SWAP8 SWAP7 POP POP POP POP POP POP POP JUMP JUMPDEST PUSH2 0x15BF PUSH2 0x1886 JUMP JUMPDEST PUSH2 0x15C7 PUSH2 0x18A4 JUMP JUMPDEST DUP4 MLOAD DUP2 MSTORE PUSH1 0x20 DUP1 DUP6 ADD MLOAD SWAP1 DUP3 ADD MSTORE PUSH1 0x40 DUP1 DUP3 ADD DUP5 SWAP1 MSTORE DUP3 PUSH1 0x60 DUP4 PUSH1 0x7 GAS STATICCALL PUSH2 0x15ED JUMPI PUSH0 DUP1 REVERT JUMPDEST POP SWAP3 SWAP2 POP POP JUMP JUMPDEST PUSH2 0x15FC PUSH2 0x1886 JUMP JUMPDEST PUSH2 0x1604 PUSH2 0x18C2 JUMP JUMPDEST DUP4 MLOAD DUP2 MSTORE PUSH1 0x20 DUP1 DUP6 ADD MLOAD DUP3 DUP3 ADD MSTORE DUP4 MLOAD PUSH1 0x40 DUP1 DUP5 ADD SWAP2 SWAP1 SWAP2 MSTORE SWAP1 DUP5 ADD MLOAD PUSH1 0x60 DUP4 ADD MSTORE DUP3 PUSH1 0x80 DUP4 PUSH1 0x6 GAS STATICCALL PUSH2 0x15ED JUMPI PUSH0 DUP1 REVERT JUMPDEST PUSH2 0x163E PUSH2 0x1886 JUMP JUMPDEST PUSH32 0x30644E72E131A029B85045B68181585D97816A916871CA8D3C208C16D87CFD47 DUP3 CALLDATALOAD ISZERO DUP1 ISZERO PUSH2 0x1670 JUMPI POP PUSH1 0x20 DUP4 ADD CALLDATALOAD ISZERO JUMPDEST ISZERO PUSH2 0x168F JUMPI POP POP PUSH1 0x40 DUP1 MLOAD DUP1 DUP3 ADD SWAP1 SWAP2 MSTORE PUSH0 DUP1 DUP3 MSTORE PUSH1 0x20 DUP3 ADD MSTORE SWAP2 SWAP1 POP JUMP JUMPDEST PUSH1 0x40 DUP1 MLOAD DUP1 DUP3 ADD SWAP1 SWAP2 MSTORE DUP4 CALLDATALOAD DUP2 MSTORE PUSH1 0x20 DUP1 DUP3 ADD SWAP1 PUSH2 0x16B1 SWAP1 DUP5 SWAP1 DUP8 ADD CALLDATALOAD PUSH2 0x1CE0 JUMP JUMPDEST PUSH2 0x16BB SWAP1 DUP5 PUSH2 0x1C29 JUMP JUMPDEST SWAP1 MSTORE SWAP4 SWAP3 POP POP POP JUMP JUMPDEST PUSH0 PUSH2 0x16CD PUSH2 0x18E0 JUMP JUMPDEST DUP10 MLOAD DUP2 MSTORE PUSH1 0x20 DUP1 DUP12 ADD MLOAD DUP3 DUP3 ADD MSTORE DUP10 DUP2 ADD CALLDATALOAD PUSH1 0x40 DUP1 DUP5 ADD SWAP2 SWAP1 SWAP2 MSTORE DUP11 CALLDATALOAD PUSH1 0x60 DUP1 DUP6 ADD SWAP2 SWAP1 SWAP2 MSTORE DUP12 ADD CALLDATALOAD PUSH1 0x80 DUP5 ADD MSTORE DUP11 ADD CALLDATALOAD PUSH1 0xA0 DUP4 ADD MSTORE DUP9 MLOAD PUSH1 0xC0 DUP4 ADD MSTORE DUP9 DUP2 ADD MLOAD PUSH1 0xE0 DUP4 ADD MSTORE DUP8 MLOAD DUP2 ADD MLOAD PUSH2 0x100 DUP4 ADD MSTORE DUP8 MLOAD MLOAD PUSH2 0x120 DUP4 ADD MSTORE DUP8 DUP2 ADD DUP1 MLOAD DUP3 ADD MLOAD PUSH2 0x140 DUP5 ADD MSTORE MLOAD MLOAD PUSH2 0x160 DUP4 ADD MSTORE DUP7 MLOAD PUSH2 0x180 DUP4 ADD MSTORE DUP7 DUP2 ADD MLOAD PUSH2 0x1A0 DUP4 ADD MSTORE DUP6 MLOAD DUP2 ADD MLOAD PUSH2 0x1C0 DUP4 ADD MSTORE DUP6 MLOAD MLOAD PUSH2 0x1E0 DUP4 ADD MSTORE DUP6 DUP2 ADD DUP1 MLOAD DUP3 ADD MLOAD PUSH2 0x200 DUP5 ADD MSTORE MLOAD MLOAD PUSH2 0x220 DUP4 ADD MSTORE DUP5 CALLDATALOAD PUSH2 0x240 DUP4 ADD MSTORE DUP5 DUP2 ADD CALLDATALOAD PUSH2 0x260 DUP4 ADD MSTORE DUP4 MLOAD DUP2 ADD MLOAD PUSH2 0x280 DUP4 ADD MSTORE DUP4 MLOAD MLOAD PUSH2 0x2A0 DUP4 ADD MSTORE DUP4 DUP2 ADD DUP1 MLOAD SWAP1 SWAP2 ADD MLOAD PUSH2 0x2C0 DUP4 ADD MSTORE MLOAD MLOAD PUSH2 0x2E0 DUP3 ADD MSTORE PUSH2 0x17BE PUSH2 0x18FF JUMP JUMPDEST PUSH1 0x20 DUP2 PUSH2 0x300 DUP5 PUSH1 0x8 GAS STATICCALL PUSH2 0x17D1 JUMPI PUSH0 DUP1 REVERT JUMPDEST MLOAD PUSH1 0x1 EQ SWAP11 SWAP10 POP POP POP POP POP POP POP POP POP POP JUMP JUMPDEST DUP3 PUSH1 0x2 DUP2 ADD SWAP3 DUP3 ISZERO PUSH2 0x1811 JUMPI SWAP2 PUSH1 0x20 MUL DUP3 ADD JUMPDEST DUP3 DUP2 GT ISZERO PUSH2 0x1811 JUMPI DUP3 CALLDATALOAD DUP3 SSTORE SWAP2 PUSH1 0x20 ADD SWAP2 SWAP1 PUSH1 0x1 ADD SWAP1 PUSH2 0x17F6 JUMP JUMPDEST POP PUSH2 0x181D SWAP3 SWAP2 POP PUSH2 0x191D JUMP JUMPDEST POP SWAP1 JUMP JUMPDEST PUSH1 0x4 DUP4 ADD SWAP2 DUP4 SWAP1 DUP3 ISZERO PUSH2 0x1859 JUMPI SWAP2 PUSH1 0x40 MUL DUP3 ADD JUMPDEST DUP3 DUP2 GT ISZERO PUSH2 0x1859 JUMPI PUSH2 0x1849 DUP3 DUP5 PUSH1 0x2 PUSH2 0x17E3 JUMP JUMPDEST POP SWAP2 PUSH1 0x40 ADD SWAP2 SWAP1 PUSH1 0x2 ADD SWAP1 PUSH2 0x1835 JUMP JUMPDEST POP PUSH2 0x181D SWAP3 SWAP2 POP PUSH2 0x1931 JUMP JUMPDEST POP DUP1 SLOAD PUSH0 DUP3 SSTORE PUSH1 0x2 MUL SWAP1 PUSH0 MSTORE PUSH1 0x20 PUSH0 KECCAK256 SWAP1 DUP2 ADD SWAP1 PUSH2 0x1883 SWAP2 SWAP1 PUSH2 0x1931 JUMP JUMPDEST POP JUMP JUMPDEST PUSH1 0x40 MLOAD DUP1 PUSH1 0x40 ADD PUSH1 0x40 MSTORE DUP1 PUSH1 0x2 SWAP1 PUSH1 0x20 DUP3 MUL DUP1 CALLDATASIZE DUP4 CALLDATACOPY POP SWAP2 SWAP3 SWAP2 POP POP JUMP JUMPDEST PUSH1 0x40 MLOAD DUP1 PUSH1 0x60 ADD PUSH1 0x40 MSTORE DUP1 PUSH1 0x3 SWAP1 PUSH1 0x20 DUP3 MUL DUP1 CALLDATASIZE DUP4 CALLDATACOPY POP SWAP2 SWAP3 SWAP2 POP POP JUMP JUMPDEST PUSH1 0x40 MLOAD DUP1 PUSH1 0x80 ADD PUSH1 0x40 MSTORE DUP1 PUSH1 0x4 SWAP1 PUSH1 0x20 DUP3 MUL DUP1 CALLDATASIZE DUP4 CALLDATACOPY POP SWAP2 SWAP3 SWAP2 POP POP JUMP JUMPDEST PUSH1 0x40 MLOAD DUP1 PUSH2 0x300 ADD PUSH1 0x40 MSTORE DUP1 PUSH1 0x18 SWAP1 PUSH1 0x20 DUP3 MUL DUP1 CALLDATASIZE DUP4 CALLDATACOPY POP SWAP2 SWAP3 SWAP2 POP POP JUMP JUMPDEST PUSH1 0x40 MLOAD DUP1 PUSH1 0x20 ADD PUSH1 0x40 MSTORE DUP1 PUSH1 0x1 SWAP1 PUSH1 0x20 DUP3 MUL DUP1 CALLDATASIZE DUP4 CALLDATACOPY POP SWAP2 SWAP3 SWAP2 POP POP JUMP JUMPDEST JUMPDEST DUP1 DUP3 GT ISZERO PUSH2 0x181D JUMPI PUSH0 DUP2 SSTORE PUSH1 0x1 ADD PUSH2 0x191E JUMP JUMPDEST DUP1 DUP3 GT ISZERO PUSH2 0x181D JUMPI PUSH0 DUP1 DUP3 SSTORE PUSH1 0x1 DUP3 ADD SSTORE PUSH1 0x2 ADD PUSH2 0x1931 JUMP JUMPDEST DUP1 CALLDATALOAD PUSH1 0x1 PUSH1 0x1 PUSH1 0xA0 SHL SUB DUP2 AND DUP2 EQ PUSH2 0x1960 JUMPI PUSH0 DUP1 REVERT JUMPDEST SWAP2 SWAP1 POP JUMP JUMPDEST PUSH0 PUSH1 0x20 DUP3 DUP5 SUB SLT ISZERO PUSH2 0x1975 JUMPI PUSH0 DUP1 REVERT JUMPDEST PUSH2 0x197E DUP3 PUSH2 0x194A JUMP JUMPDEST SWAP4 SWAP3 POP POP POP JUMP JUMPDEST PUSH0 DUP1 PUSH1 0x40 DUP4 DUP6 SUB SLT ISZERO PUSH2 0x1996 JUMPI PUSH0 DUP1 REVERT JUMPDEST PUSH2 0x199F DUP4 PUSH2 0x194A JUMP JUMPDEST SWAP5 PUSH1 0x20 SWAP4 SWAP1 SWAP4 ADD CALLDATALOAD SWAP4 POP POP POP JUMP JUMPDEST PUSH4 0x4E487B71 PUSH1 0xE0 SHL PUSH0 MSTORE PUSH1 0x21 PUSH1 0x4 MSTORE PUSH1 0x24 PUSH0 REVERT JUMPDEST DUP6 DUP2 MSTORE PUSH1 0x20 DUP2 ADD DUP6 SWAP1 MSTORE PUSH1 0x1 PUSH1 0x1 PUSH1 0x40 SHL SUB DUP5 DUP2 AND PUSH1 0x40 DUP4 ADD MSTORE DUP4 AND PUSH1 0x60 DUP3 ADD MSTORE PUSH1 0xA0 DUP2 ADD PUSH1 0x4 DUP4 LT PUSH2 0x1A02 JUMPI PUSH4 0x4E487B71 PUSH1 0xE0 SHL PUSH0 MSTORE PUSH1 0x21 PUSH1 0x4 MSTORE PUSH1 0x24 PUSH0 REVERT JUMPDEST DUP3 PUSH1 0x80 DUP4 ADD MSTORE SWAP7 SWAP6 POP POP POP POP POP POP JUMP JUMPDEST PUSH0 DUP1 PUSH0 PUSH1 0x60 DUP5 DUP7 SUB SLT ISZERO PUSH2 0x1A24 JUMPI PUSH0 DUP1 REVERT JUMPDEST PUSH2 0x1A2D DUP5 PUSH2 0x194A JUMP JUMPDEST SWAP6 PUSH1 0x20 DUP6 ADD CALLDATALOAD SWAP6 POP PUSH1 0x40 SWAP1 SWAP5 ADD CALLDATALOAD SWAP4 SWAP3 POP POP POP JUMP JUMPDEST PUSH0 PUSH1 0xA0 DUP3 DUP5 SUB SLT ISZERO PUSH2 0x1A52 JUMPI PUSH0 DUP1 REVERT JUMPDEST POP SWAP2 SWAP1 POP JUMP JUMPDEST DUP1 PUSH1 0x40 DUP2 ADD DUP4 LT ISZERO PUSH2 0x1A68 JUMPI PUSH0 DUP1 REVERT JUMPDEST SWAP3 SWAP2 POP POP JUMP JUMPDEST DUP1 PUSH1 0x80 DUP2 ADD DUP4 LT ISZERO PUSH2 0x1A68 JUMPI PUSH0 DUP1 REVERT JUMPDEST PUSH0 DUP1 PUSH0 DUP1 PUSH0 DUP1 PUSH2 0x140 DUP8 DUP10 SUB SLT ISZERO PUSH2 0x1A94 JUMPI PUSH0 DUP1 REVERT JUMPDEST DUP7 CALLDATALOAD SWAP6 POP PUSH2 0x1AA5 DUP9 PUSH1 0x20 DUP10 ADD PUSH2 0x1A58 JUMP JUMPDEST SWAP5 POP PUSH2 0x1AB4 DUP9 PUSH1 0x60 DUP10 ADD PUSH2 0x1A6E JUMP JUMPDEST SWAP4 POP PUSH2 0x1AC3 DUP9 PUSH1 0xE0 DUP10 ADD PUSH2 0x1A58 JUMP JUMPDEST SWAP3 POP PUSH2 0x120 DUP8 ADD CALLDATALOAD PUSH1 0x1 PUSH1 0x1 PUSH1 0x40 SHL SUB DUP1 DUP3 GT ISZERO PUSH2 0x1ADF JUMPI PUSH0 DUP1 REVERT JUMPDEST DUP2 DUP10 ADD SWAP2 POP DUP10 PUSH1 0x1F DUP4 ADD SLT PUSH2 0x1AF2 JUMPI PUSH0 DUP1 REVERT JUMPDEST DUP2 CALLDATALOAD DUP2 DUP2 GT ISZERO PUSH2 0x1B00 JUMPI PUSH0 DUP1 REVERT JUMPDEST DUP11 PUSH1 0x20 DUP3 PUSH1 0x5 SHL DUP6 ADD ADD GT ISZERO PUSH2 0x1B14 JUMPI PUSH0 DUP1 REVERT JUMPDEST PUSH1 0x20 DUP4 ADD SWAP5 POP DUP1 SWAP4 POP POP POP POP SWAP3 SWAP6 POP SWAP3 SWAP6 POP SWAP3 SWAP6 JUMP JUMPDEST PUSH0 DUP1 PUSH0 DUP1 PUSH0 DUP1 PUSH2 0x1E0 DUP8 DUP10 SUB SLT ISZERO PUSH2 0x1B40 JUMPI PUSH0 DUP1 REVERT JUMPDEST PUSH2 0x1B4A DUP9 DUP9 PUSH2 0x1A58 JUMP JUMPDEST SWAP6 POP PUSH2 0x1B59 DUP9 PUSH1 0x40 DUP10 ADD PUSH2 0x1A6E JUMP JUMPDEST SWAP5 POP PUSH2 0x1B68 DUP9 PUSH1 0xC0 DUP10 ADD PUSH2 0x1A6E JUMP JUMPDEST SWAP4 POP PUSH2 0x1B78 DUP9 PUSH2 0x140 DUP10 ADD PUSH2 0x1A6E JUMP JUMPDEST SWAP3 POP PUSH2 0x1C0 DUP8 ADD CALLDATALOAD PUSH1 0x1 PUSH1 0x1 PUSH1 0x40 SHL SUB DUP1 DUP3 GT ISZERO PUSH2 0x1B94 JUMPI PUSH0 DUP1 REVERT JUMPDEST DUP2 DUP10 ADD SWAP2 POP DUP10 PUSH1 0x1F DUP4 ADD SLT PUSH2 0x1BA7 JUMPI PUSH0 DUP1 REVERT JUMPDEST DUP2 CALLDATALOAD DUP2 DUP2 GT ISZERO PUSH2 0x1BB5 JUMPI PUSH0 DUP1 REVERT JUMPDEST DUP11 PUSH1 0x20 DUP3 PUSH1 0x6 SHL DUP6 ADD ADD GT ISZERO PUSH2 0x1B14 JUMPI PUSH0 DUP1 REVERT JUMPDEST PUSH0 PUSH1 0x20 DUP3 DUP5 SUB SLT ISZERO PUSH2 0x1BD9 JUMPI PUSH0 DUP1 REVERT JUMPDEST POP CALLDATALOAD SWAP2 SWAP1 POP JUMP JUMPDEST PUSH4 0x4E487B71 PUSH1 0xE0 SHL PUSH0 MSTORE PUSH1 0x11 PUSH1 0x4 MSTORE PUSH1 0x24 PUSH0 REVERT JUMPDEST PUSH1 0x1 PUSH1 0x1 PUSH1 0x40 SHL SUB DUP3 DUP2 AND DUP3 DUP3 AND SUB SWAP1 DUP1 DUP3 GT ISZERO PUSH2 0x15ED JUMPI PUSH2 0x15ED PUSH2 0x1BE0 JUMP JUMPDEST PUSH0 DUP2 PUSH2 0x1C22 JUMPI PUSH2 0x1C22 PUSH2 0x1BE0 JUMP JUMPDEST POP PUSH0 NOT ADD SWAP1 JUMP JUMPDEST DUP2 DUP2 SUB DUP2 DUP2 GT ISZERO PUSH2 0x1A68 JUMPI PUSH2 0x1A68 PUSH2 0x1BE0 JUMP JUMPDEST PUSH0 PUSH1 0x20 DUP3 DUP5 SUB SLT ISZERO PUSH2 0x1C4C JUMPI PUSH0 DUP1 REVERT JUMPDEST DUP2 MLOAD DUP1 ISZERO ISZERO DUP2 EQ PUSH2 0x197E JUMPI PUSH0 DUP1 REVERT JUMPDEST PUSH0 PUSH1 0x20 DUP3 DUP5 SUB SLT ISZERO PUSH2 0x1C6B JUMPI PUSH0 DUP1 REVERT JUMPDEST DUP2 CALLDATALOAD PUSH1 0x1 PUSH1 0x1 PUSH1 0x40 SHL SUB DUP2 AND DUP2 EQ PUSH2 0x197E JUMPI PUSH0 DUP1 REVERT JUMPDEST PUSH1 0x1 PUSH1 0x1 PUSH1 0x40 SHL SUB DUP2 DUP2 AND DUP4 DUP3 AND ADD SWAP1 DUP1 DUP3 GT ISZERO PUSH2 0x15ED JUMPI PUSH2 0x15ED PUSH2 0x1BE0 JUMP JUMPDEST DUP1 DUP3 ADD DUP1 DUP3 GT ISZERO PUSH2 0x1A68 JUMPI PUSH2 0x1A68 PUSH2 0x1BE0 JUMP JUMPDEST PUSH0 PUSH1 0x1 DUP3 ADD PUSH2 0x1CC5 JUMPI PUSH2 0x1CC5 PUSH2 0x1BE0 JUMP JUMPDEST POP PUSH1 0x1 ADD SWAP1 JUMP JUMPDEST PUSH4 0x4E487B71 PUSH1 0xE0 SHL PUSH0 MSTORE PUSH1 0x32 PUSH1 0x4 MSTORE PUSH1 0x24 PUSH0 REVERT JUMPDEST PUSH0 DUP3 PUSH2 0x1CFA JUMPI PUSH4 0x4E487B71 PUSH1 0xE0 SHL PUSH0 MSTORE PUSH1 0x12 PUSH1 0x4 MSTORE PUSH1 0x24 PUSH0 REVERT JUMPDEST POP MOD SWAP1 JUMP INVALID LOG2 PUSH5 0x6970667358 0x22 SLT KECCAK256 SSTORE 0xBC 0x1E MLOAD MLOAD 0xF6 0xFB LT CODECOPY 0x1F SWAP9 0xCC 0x22 PUSH2 0xD969 0x28 0xD8 PUSH20 0x3A51D327E8588B39DB46B0AAB064736F6C634300 ADDMOD XOR STOP CALLER "},"methodIdentifiers":{"admin()":"f851a440","commitBatch((bytes32,uint64,uint64,bytes32,uint64))":"87cf32cd","enterpriseRegistry()":"3d3bdb88","enterprises(address)":"902e11b6","executeBatch(uint256)":"f8b94e9e","getBatchCounts(address)":"ab2dcc80","getBatchInfo(address,uint256)":"283972df","getCurrentRoot(address)":"b965e0ca","getLastL2Block(address)":"08463070","initializeEnterprise(address,bytes32)":"eac2ce19","isExecutedRoot(address,uint256,bytes32)":"3975a623","proveBatch(uint256,uint256[2],uint256[2][2],uint256[2],uint256[])":"8cb894e8","revertBatch(address)":"06b32e82","setVerifyingKey(uint256[2],uint256[2][2],uint256[2][2],uint256[2][2],uint256[2][])":"99324039","storedBatches(address,uint256)":"8d628602","totalBatchesCommitted()":"a5acf970","totalBatchesExecuted()":"63b43494","totalBatchesProven()":"558f3d40","verifyingKeySet()":"f5282dea"}}}}}