{"contracts/BasisRollupHarness.sol":{"BasisRollupHarness":{"abi":[{"inputs":[{"internalType":"address","name":"_enterpriseRegistry","type":"address"}],"stateMutability":"nonpayable","type":"constructor"},{"inputs":[],"name":"BatchAlreadyExecuted","type":"error"},{"inputs":[],"name":"BatchAlreadyProven","type":"error"},{"inputs":[],"name":"BatchNotCommitted","type":"error"},{"inputs":[],"name":"BatchNotNextToExecute","type":"error"},{"inputs":[],"name":"BatchNotNextToProve","type":"error"},{"inputs":[],"name":"BatchNotProven","type":"error"},{"inputs":[{"internalType":"uint64","name":"expected","type":"uint64"},{"internalType":"uint64","name":"provided","type":"uint64"}],"name":"BlockRangeGap","type":"error"},{"inputs":[],"name":"CannotRevertExecuted","type":"error"},{"inputs":[],"name":"EnterpriseAlreadyInitialized","type":"error"},{"inputs":[],"name":"EnterpriseNotInitialized","type":"error"},{"inputs":[],"name":"InvalidBlockRange","type":"error"},{"inputs":[],"name":"InvalidProof","type":"error"},{"inputs":[],"name":"NotAuthorized","type":"error"},{"inputs":[],"name":"NothingToRevert","type":"error"},{"inputs":[],"name":"OnlyAdmin","type":"error"},{"inputs":[{"internalType":"bytes32","name":"expected","type":"bytes32"},{"internalType":"bytes32","name":"provided","type":"bytes32"}],"name":"RootChainBroken","type":"error"},{"inputs":[],"name":"VerifyingKeyNotSet","type":"error"},{"anonymous":false,"inputs":[{"indexed":true,"internalType":"address","name":"enterprise","type":"address"},{"indexed":true,"internalType":"uint256","name":"batchId","type":"uint256"},{"indexed":false,"internalType":"bytes32","name":"batchHash","type":"bytes32"},{"indexed":false,"internalType":"bytes32","name":"newStateRoot","type":"bytes32"},{"indexed":false,"internalType":"uint64","name":"l2BlockStart","type":"uint64"},{"indexed":false,"internalType":"uint64","name":"l2BlockEnd","type":"uint64"},{"indexed":false,"internalType":"uint256","name":"timestamp","type":"uint256"}],"name":"BatchCommitted","type":"event"},{"anonymous":false,"inputs":[{"indexed":true,"internalType":"address","name":"enterprise","type":"address"},{"indexed":true,"internalType":"uint256","name":"batchId","type":"uint256"},{"indexed":false,"internalType":"bytes32","name":"prevRoot","type":"bytes32"},{"indexed":false,"internalType":"bytes32","name":"newRoot","type":"bytes32"},{"indexed":false,"internalType":"uint256","name":"timestamp","type":"uint256"}],"name":"BatchExecuted","type":"event"},{"anonymous":false,"inputs":[{"indexed":true,"internalType":"address","name":"enterprise","type":"address"},{"indexed":true,"internalType":"uint256","name":"batchId","type":"uint256"},{"indexed":false,"internalType":"uint256","name":"timestamp","type":"uint256"}],"name":"BatchProven","type":"event"},{"anonymous":false,"inputs":[{"indexed":true,"internalType":"address","name":"enterprise","type":"address"},{"indexed":true,"internalType":"uint256","name":"batchId","type":"uint256"},{"indexed":false,"internalType":"uint256","name":"timestamp","type":"uint256"}],"name":"BatchReverted","type":"event"},{"anonymous":false,"inputs":[{"indexed":true,"internalType":"address","name":"enterprise","type":"address"},{"indexed":false,"internalType":"bytes32","name":"genesisRoot","type":"bytes32"},{"indexed":false,"internalType":"uint256","name":"timestamp","type":"uint256"}],"name":"EnterpriseInitialized","type":"event"},{"inputs":[],"name":"admin","outputs":[{"internalType":"address","name":"","type":"address"}],"stateMutability":"view","type":"function"},{"inputs":[{"components":[{"internalType":"bytes32","name":"newStateRoot","type":"bytes32"},{"internalType":"uint64","name":"l2BlockStart","type":"uint64"},{"internalType":"uint64","name":"l2BlockEnd","type":"uint64"},{"internalType":"bytes32","name":"priorityOpsHash","type":"bytes32"},{"internalType":"uint64","name":"timestamp","type":"uint64"}],"internalType":"struct BasisRollup.CommitBatchData","name":"data","type":"tuple"}],"name":"commitBatch","outputs":[],"stateMutability":"nonpayable","type":"function"},{"inputs":[],"name":"enterpriseRegistry","outputs":[{"internalType":"contract IEnterpriseRegistry","name":"","type":"address"}],"stateMutability":"view","type":"function"},{"inputs":[{"internalType":"address","name":"","type":"address"}],"name":"enterprises","outputs":[{"internalType":"bytes32","name":"currentRoot","type":"bytes32"},{"internalType":"uint64","name":"totalBatchesCommitted","type":"uint64"},{"internalType":"uint64","name":"totalBatchesProven","type":"uint64"},{"internalType":"uint64","name":"totalBatchesExecuted","type":"uint64"},{"internalType":"bool","name":"initialized","type":"bool"},{"internalType":"uint64","name":"lastL2Block","type":"uint64"}],"stateMutability":"view","type":"function"},{"inputs":[{"internalType":"uint256","name":"batchId","type":"uint256"}],"name":"executeBatch","outputs":[],"stateMutability":"nonpayable","type":"function"},{"inputs":[{"internalType":"address","name":"enterprise","type":"address"}],"name":"getBatchCounts","outputs":[{"internalType":"uint64","name":"committed","type":"uint64"},{"internalType":"uint64","name":"proven","type":"uint64"},{"internalType":"uint64","name":"executed","type":"uint64"}],"stateMutability":"view","type":"function"},{"inputs":[{"internalType":"address","name":"enterprise","type":"address"},{"internalType":"uint256","name":"batchId","type":"uint256"}],"name":"getBatchInfo","outputs":[{"internalType":"bytes32","name":"batchHash","type":"bytes32"},{"internalType":"bytes32","name":"stateRoot","type":"bytes32"},{"internalType":"uint64","name":"l2BlockStart","type":"uint64"},{"internalType":"uint64","name":"l2BlockEnd","type":"uint64"},{"internalType":"enum BasisRollup.BatchStatus","name":"status","type":"uint8"}],"stateMutability":"view","type":"function"},{"inputs":[{"internalType":"address","name":"enterprise","type":"address"}],"name":"getCurrentRoot","outputs":[{"internalType":"bytes32","name":"","type":"bytes32"}],"stateMutability":"view","type":"function"},{"inputs":[{"internalType":"address","name":"enterprise","type":"address"}],"name":"getLastL2Block","outputs":[{"internalType":"uint64","name":"","type":"uint64"}],"stateMutability":"view","type":"function"},{"inputs":[{"internalType":"address","name":"enterprise","type":"address"},{"internalType":"bytes32","name":"genesisRoot","type":"bytes32"}],"name":"initializeEnterprise","outputs":[],"stateMutability":"nonpayable","type":"function"},{"inputs":[{"internalType":"address","name":"enterprise","type":"address"},{"internalType":"uint256","name":"batchId","type":"uint256"},{"internalType":"bytes32","name":"root","type":"bytes32"}],"name":"isExecutedRoot","outputs":[{"internalType":"bool","name":"","type":"bool"}],"stateMutability":"view","type":"function"},{"inputs":[{"internalType":"uint256","name":"batchId","type":"uint256"},{"internalType":"uint256[2]","name":"a","type":"uint256[2]"},{"internalType":"uint256[2][2]","name":"b","type":"uint256[2][2]"},{"internalType":"uint256[2]","name":"c","type":"uint256[2]"},{"internalType":"uint256[]","name":"publicSignals","type":"uint256[]"}],"name":"proveBatch","outputs":[],"stateMutability":"nonpayable","type":"function"},{"inputs":[{"internalType":"address","name":"enterprise","type":"address"}],"name":"revertBatch","outputs":[],"stateMutability":"nonpayable","type":"function"},{"inputs":[{"internalType":"bool","name":"valid","type":"bool"}],"name":"setMockProofResult","outputs":[],"stateMutability":"nonpayable","type":"function"},{"inputs":[{"internalType":"uint256[2]","name":"_alfa1","type":"uint256[2]"},{"internalType":"uint256[2][2]","name":"_beta2","type":"uint256[2][2]"},{"internalType":"uint256[2][2]","name":"_gamma2","type":"uint256[2][2]"},{"internalType":"uint256[2][2]","name":"_delta2","type":"uint256[2][2]"},{"internalType":"uint256[2][]","name":"_IC","type":"uint256[2][]"}],"name":"setVerifyingKey","outputs":[],"stateMutability":"nonpayable","type":"function"},{"inputs":[{"internalType":"address","name":"","type":"address"},{"internalType":"uint256","name":"","type":"uint256"}],"name":"storedBatches","outputs":[{"internalType":"bytes32","name":"batchHash","type":"bytes32"},{"internalType":"bytes32","name":"stateRoot","type":"bytes32"},{"internalType":"uint64","name":"l2BlockStart","type":"uint64"},{"internalType":"uint64","name":"l2BlockEnd","type":"uint64"},{"internalType":"enum BasisRollup.BatchStatus","name":"status","type":"uint8"}],"stateMutability":"view","type":"function"},{"inputs":[],"name":"totalBatchesCommitted","outputs":[{"internalType":"uint256","name":"","type":"uint256"}],"stateMutability":"view","type":"function"},{"inputs":[],"name":"totalBatchesExecuted","outputs":[{"internalType":"uint256","name":"","type":"uint256"}],"stateMutability":"view","type":"function"},{"inputs":[],"name":"totalBatchesProven","outputs":[{"internalType":"uint256","name":"","type":"uint256"}],"stateMutability":"view","type":"function"},{"inputs":[],"name":"verifyingKeySet","outputs":[{"internalType":"bool","name":"","type":"bool"}],"stateMutability":"view","type":"function"}],"evm":{"bytecode":{"linkReferences":{},"object":"60a06040526016805460ff1916600117905534801561001c575f80fd5b5060405161189238038061189283398101604081905261003b9161005d565b5f80546001600160a01b031916331790556001600160a01b031660805261008a565b5f6020828403121561006d575f80fd5b81516001600160a01b0381168114610083575f80fd5b9392505050565b6080516117db6100b75f395f818161022f0152818161080601528181610c7c015261110c01526117db5ff3fe608060405234801561000f575f80fd5b5060043610610127575f3560e01c8063902e11b6116100a9578063d01736921161006e578063d01736921461045a578063eac2ce191461047b578063f5282dea1461048e578063f851a4401461049b578063f8b94e9e146104ad575f80fd5b8063902e11b61461030957806399324039146103a1578063a5acf970146103b4578063ab2dcc80146103bd578063b965e0ca14610432575f80fd5b8063558f3d40116100ef578063558f3d401461026957806363b434941461028057806387cf32cd146102895780638cb894e81461029c5780638d628602146102af575f80fd5b806306b32e821461012b5780630846307014610140578063283972df146101915780633975a623146102075780633d3bdb881461022a575b5f80fd5b61013e6101393660046113ff565b6104c0565b005b61017461014e3660046113ff565b6001600160a01b03165f908152601160205260409020600201546001600160401b031690565b6040516001600160401b0390911681526020015b60405180910390f35b6101f661019f36600461141f565b6001600160a01b03919091165f908152601260209081526040808320938352929052208054600182015460029092015490926001600160401b0380831692600160401b810490911691600160801b90910460ff1690565b60405161018895949392919061145b565b61021a6102153660046114ac565b610794565b6040519015158152602001610188565b6102517f000000000000000000000000000000000000000000000000000000000000000081565b6040516001600160a01b039091168152602001610188565b61027260145481565b604051908152602001610188565b61027260155481565b61013e6102973660046114dc565b6107f1565b61013e6102aa366004611518565b610c44565b6101f66102bd36600461141f565b601260209081525f92835260408084209091529082529020805460018201546002909201549091906001600160401b0380821691600160401b810490911690600160801b900460ff1685565b6103636103173660046113ff565b60116020525f908152604090208054600182015460029092015490916001600160401b0380821692600160401b8304821692600160801b8104831692600160c01b90910460ff16911686565b604080519687526001600160401b039586166020880152938516938601939093529083166060850152151560808401521660a082015260c001610188565b61013e6103af3660046115c4565b610e99565b61027260135481565b6104086103cb3660046113ff565b6001600160a01b03165f908152601160205260409020600101546001600160401b0380821692600160401b8304821692600160801b900490911690565b604080516001600160401b0394851681529284166020840152921691810191909152606001610188565b6102726104403660046113ff565b6001600160a01b03165f9081526011602052604090205490565b61013e610468366004611670565b6016805460ff1916911515919091179055565b61013e61048936600461141f565b610f71565b60105461021a9060ff1681565b5f54610251906001600160a01b031681565b61013e6104bb36600461168b565b6110f7565b5f546001600160a01b031633146104ea57604051634755657960e01b815260040160405180910390fd5b6001600160a01b0381165f9081526011602052604090206001810154600160c01b900460ff1661052d576040516373cb8eb560e11b815260040160405180910390fd5b60018101546001600160401b03600160801b820481169116036105635760405163084ee7ad60e31b815260040160405180910390fd5b6001818101545f9161057d916001600160401b03166116b6565b6001600160a01b0384165f9081526012602090815260408083206001600160401b039490941680845293909152902090915060036002820154600160801b900460ff1660038111156105d1576105d1611447565b036105ef5760405163f0f5218560e01b815260040160405180910390fd5b600280820154600160801b900460ff16600381111561061057610610611447565b036106515760018301805467ffffffffffffffff60401b1916600160401b6001600160401b0385160217905560148054905f61064b836116dd565b91905055505b81156106bd576001600160a01b0384165f9081526012602052604081209061067a6001856116f2565b815260208101919091526040015f206002908101549084018054600160401b9092046001600160401b031667ffffffffffffffff199092169190911790556106d1565b60028301805467ffffffffffffffff191690555b6001600160a01b0384165f908152601260209081526040808320858452909152812081815560018082018390556002909101805470ffffffffffffffffffffffffffffffffff191690558401805467ffffffffffffffff19166001600160401b0385161790556013805491610745836116dd565b919050555081846001600160a01b03167fea9d7c5a8f5f429b98436961bd70a4af3dbb183bf419142b515db38c30a434ae4260405161078691815260200190565b60405180910390a350505050565b6001600160a01b0383165f908152601260209081526040808320858452909152812060036002820154600160801b900460ff1660038111156107d8576107d8611447565b1480156107e85750828160010154145b95945050505050565b6040516301fd3f7760e71b81523360048201527f00000000000000000000000000000000000000000000000000000000000000006001600160a01b03169063fe9fbb8090602401602060405180830381865afa158015610853573d5f803e3d5ffd5b505050506040513d601f19601f820116820180604052508101906108779190611705565b6108945760405163ea8e4eb560e01b815260040160405180910390fd5b335f9081526011602052604090206001810154600160c01b900460ff166108ce576040516373cb8eb560e11b815260040160405180910390fd5b6108de6040830160208401611720565b6001600160401b03166108f76060840160408501611720565b6001600160401b0316101561091f576040516312a4320b60e21b815260040160405180910390fd5b60028101545f906001600160401b03161561095257600282015461094d906001600160401b03166001611746565b610955565b60015b90506001600160401b0381166109716040850160208601611720565b6001600160401b0316146109c057806109906040850160208601611720565b60405163524ef2a560e01b81526001600160401b0392831660048201529116602482015260440160405180910390fd5b60018201546001600160401b03165f338286356109e36040890160208a01611720565b6109f360608a0160408b01611720565b60608a0135610a0860a08c0160808d01611720565b604080516001600160a01b03909816602089015287019590955260608601939093526001600160401b039182166080860152811660a085015260c08401919091521660e08201526101000160408051601f19818403018152828252805160209182012060a084018352808452883584830152935082820191610a8f91908901908901611720565b6001600160401b03168152602001610aad6060880160408901611720565b6001600160401b0316815260200160019052335f908152601260209081526040808320868452825291829020835181559083015160018201559082015160028201805460608501516001600160401b03908116600160401b026001600160801b0319909216931692909217919091178082556080840151919060ff60801b1916600160801b836003811115610b4457610b44611447565b0217905550610b5891508390506001611766565b60018501805467ffffffffffffffff19166001600160401b0392909216919091179055610b8b6060860160408701611720565b60028501805467ffffffffffffffff19166001600160401b039290921691909117905560138054905f610bbd83611779565b90915550829050337f0d37d5fc3ae000a2fb1ec2efcfd3847602c39a29cbfff9320a99b54f8b561309838835610bf960408b0160208c01611720565b610c0960608c0160408d01611720565b6040805194855260208501939093526001600160401b0391821684840152166060830152426080830152519081900360a00190a35050505050565b60105460ff16610c6757604051637c48038560e01b815260040160405180910390fd5b6040516301fd3f7760e71b81523360048201527f00000000000000000000000000000000000000000000000000000000000000006001600160a01b03169063fe9fbb8090602401602060405180830381865afa158015610cc9573d5f803e3d5ffd5b505050506040513d601f19601f82011682018060405250810190610ced9190611705565b610d0a5760405163ea8e4eb560e01b815260040160405180910390fd5b335f9081526011602052604090206001810154600160c01b900460ff16610d44576040516373cb8eb560e11b815260040160405180910390fd5b6001810154600160401b90046001600160401b03168714610d78576040516330e4f27b60e21b815260040160405180910390fd5b335f9081526012602090815260408083208a8452909152902060016002820154600160801b900460ff166003811115610db357610db3611447565b14610dd15760405163309a8ca560e21b815260040160405180910390fd5b60165460ff1680610df5576040516309bde33960e01b815260040160405180910390fd5b60028201805460ff60801b1916600160811b179055610e15896001611766565b6001840180546001600160401b0392909216600160401b0267ffffffffffffffff60401b1990921691909117905560148054905f610e5283611779565b9091555050604051428152899033907ff4170f8221a8a01eee8962ed1ad097c1c4567ef05a7d7ff4e9057726adac1f6f9060200160405180910390a3505050505050505050565b5f546001600160a01b03163314610ec357604051634755657960e01b815260040160405180910390fd5b610ed06001876002611314565b50610ede6003866002611352565b50610eec6007856002611352565b50610efa600b846002611352565b50610f06600f5f611396565b5f5b81811015610f5b57600f838383818110610f2457610f24611791565b83546001810185555f9485526020909420610f52946002908102909101936040909202919091019150611314565b50600101610f08565b50506010805460ff191660011790555050505050565b5f546001600160a01b03163314610f9b57604051634755657960e01b815260040160405180910390fd5b6001600160a01b0382165f90815260116020526040902060010154600160c01b900460ff1615610fdd576040516205f89b60e51b815260040160405180910390fd5b6040805160c0810182528281525f60208083018281528385018381526060850184815260016080870181815260a088018781526001600160a01b038c1680895260119097529689902097518855935190870180549351925194511515600160c01b0260ff60c01b196001600160401b03968716600160801b021668ffffffffffffffffff60801b19948716600160401b026001600160801b0319909616938716939093179490941792909216179190911790559151600290930180549390921667ffffffffffffffff199390931692909217905590517fcb4c6dfe0ceea5101bd46c1cec77b9816756c35226d856c91cdfb3a098d70517906110eb9084904290918252602082015260400190565b60405180910390a25050565b6040516301fd3f7760e71b81523360048201527f00000000000000000000000000000000000000000000000000000000000000006001600160a01b03169063fe9fbb8090602401602060405180830381865afa158015611159573d5f803e3d5ffd5b505050506040513d601f19601f8201168201806040525081019061117d9190611705565b61119a5760405163ea8e4eb560e01b815260040160405180910390fd5b335f9081526011602052604090206001810154600160c01b900460ff166111d4576040516373cb8eb560e11b815260040160405180910390fd5b6001810154600160801b90046001600160401b03168214611208576040516369fd074560e01b815260040160405180910390fd5b335f9081526012602090815260408083208584529091529020600280820154600160801b900460ff16600381111561124257611242611447565b1461126057604051634aeb15bf60e01b815260040160405180910390fd5b81546001808301548455611275908590611766565b60018401805467ffffffffffffffff60801b1916600160801b6001600160401b03939093169290920291909117905560028201805460ff60801b1916600360801b17905560158054905f6112c883611779565b909155505060018201546040805183815260208101929092524290820152849033907fee42608ceaac3da45e2339835da94ce6656f2a879d42aa72fff12bf19634ec7790606001610786565b8260028101928215611342579160200282015b82811115611342578235825591602001919060010190611327565b5061134e9291506113b7565b5090565b60048301918390821561138a579160400282015b8281111561138a5761137a82846002611314565b5091604001919060020190611366565b5061134e9291506113cb565b5080545f8255600202905f5260205f20908101906113b491906113cb565b50565b5b8082111561134e575f81556001016113b8565b8082111561134e575f80825560018201556002016113cb565b80356001600160a01b03811681146113fa575f80fd5b919050565b5f6020828403121561140f575f80fd5b611418826113e4565b9392505050565b5f8060408385031215611430575f80fd5b611439836113e4565b946020939093013593505050565b634e487b7160e01b5f52602160045260245ffd5b858152602081018590526001600160401b0384811660408301528316606082015260a081016004831061149c57634e487b7160e01b5f52602160045260245ffd5b8260808301529695505050505050565b5f805f606084860312156114be575f80fd5b6114c7846113e4565b95602085013595506040909401359392505050565b5f60a082840312156114ec575f80fd5b50919050565b8060408101831015611502575f80fd5b92915050565b8060808101831015611502575f80fd5b5f805f805f80610140878903121561152e575f80fd5b8635955061153f88602089016114f2565b945061154e8860608901611508565b935061155d8860e089016114f2565b92506101208701356001600160401b0380821115611579575f80fd5b818901915089601f83011261158c575f80fd5b81358181111561159a575f80fd5b8a60208260051b85010111156115ae575f80fd5b6020830194508093505050509295509295509295565b5f805f805f806101e087890312156115da575f80fd5b6115e488886114f2565b95506115f38860408901611508565b94506116028860c08901611508565b9350611612886101408901611508565b92506101c08701356001600160401b038082111561162e575f80fd5b818901915089601f830112611641575f80fd5b81358181111561164f575f80fd5b8a60208260061b85010111156115ae575f80fd5b80151581146113b4575f80fd5b5f60208284031215611680575f80fd5b813561141881611663565b5f6020828403121561169b575f80fd5b5035919050565b634e487b7160e01b5f52601160045260245ffd5b6001600160401b038281168282160390808211156116d6576116d66116a2565b5092915050565b5f816116eb576116eb6116a2565b505f190190565b81810381811115611502576115026116a2565b5f60208284031215611715575f80fd5b815161141881611663565b5f60208284031215611730575f80fd5b81356001600160401b0381168114611418575f80fd5b6001600160401b038181168382160190808211156116d6576116d66116a2565b80820180821115611502576115026116a2565b5f6001820161178a5761178a6116a2565b5060010190565b634e487b7160e01b5f52603260045260245ffdfea264697066735822122049f3cdea595cfaf16bbf222a0afd2afae5ca1c7670640de1602d888be479b7c564736f6c63430008180033","opcodes":"PUSH1 0xA0 PUSH1 0x40 MSTORE PUSH1 0x16 DUP1 SLOAD PUSH1 0xFF NOT AND PUSH1 0x1 OR SWAP1 SSTORE CALLVALUE DUP1 ISZERO PUSH2 0x1C JUMPI PUSH0 DUP1 REVERT JUMPDEST POP PUSH1 0x40 MLOAD PUSH2 0x1892 CODESIZE SUB DUP1 PUSH2 0x1892 DUP4 CODECOPY DUP2 ADD PUSH1 0x40 DUP2 SWAP1 MSTORE PUSH2 0x3B SWAP2 PUSH2 0x5D JUMP JUMPDEST PUSH0 DUP1 SLOAD PUSH1 0x1 PUSH1 0x1 PUSH1 0xA0 SHL SUB NOT AND CALLER OR SWAP1 SSTORE PUSH1 0x1 PUSH1 0x1 PUSH1 0xA0 SHL SUB AND PUSH1 0x80 MSTORE PUSH2 0x8A JUMP JUMPDEST PUSH0 PUSH1 0x20 DUP3 DUP5 SUB SLT ISZERO PUSH2 0x6D JUMPI PUSH0 DUP1 REVERT JUMPDEST DUP2 MLOAD PUSH1 0x1 PUSH1 0x1 PUSH1 0xA0 SHL SUB DUP2 AND DUP2 EQ PUSH2 0x83 JUMPI PUSH0 DUP1 REVERT JUMPDEST SWAP4 SWAP3 POP POP POP JUMP JUMPDEST PUSH1 0x80 MLOAD PUSH2 0x17DB PUSH2 0xB7 PUSH0 CODECOPY PUSH0 DUP2 DUP2 PUSH2 0x22F ADD MSTORE DUP2 DUP2 PUSH2 0x806 ADD MSTORE DUP2 DUP2 PUSH2 0xC7C ADD MSTORE PUSH2 0x110C ADD MSTORE PUSH2 0x17DB PUSH0 RETURN INVALID PUSH1 0x80 PUSH1 0x40 MSTORE CALLVALUE DUP1 ISZERO PUSH2 0xF JUMPI PUSH0 DUP1 REVERT JUMPDEST POP PUSH1 0x4 CALLDATASIZE LT PUSH2 0x127 JUMPI PUSH0 CALLDATALOAD PUSH1 0xE0 SHR DUP1 PUSH4 0x902E11B6 GT PUSH2 0xA9 JUMPI DUP1 PUSH4 0xD0173692 GT PUSH2 0x6E JUMPI DUP1 PUSH4 0xD0173692 EQ PUSH2 0x45A JUMPI DUP1 PUSH4 0xEAC2CE19 EQ PUSH2 0x47B JUMPI DUP1 PUSH4 0xF5282DEA EQ PUSH2 0x48E JUMPI DUP1 PUSH4 0xF851A440 EQ PUSH2 0x49B JUMPI DUP1 PUSH4 0xF8B94E9E EQ PUSH2 0x4AD JUMPI PUSH0 DUP1 REVERT JUMPDEST DUP1 PUSH4 0x902E11B6 EQ PUSH2 0x309 JUMPI DUP1 PUSH4 0x99324039 EQ PUSH2 0x3A1 JUMPI DUP1 PUSH4 0xA5ACF970 EQ PUSH2 0x3B4 JUMPI DUP1 PUSH4 0xAB2DCC80 EQ PUSH2 0x3BD JUMPI DUP1 PUSH4 0xB965E0CA EQ PUSH2 0x432 JUMPI PUSH0 DUP1 REVERT JUMPDEST DUP1 PUSH4 0x558F3D40 GT PUSH2 0xEF JUMPI DUP1 PUSH4 0x558F3D40 EQ PUSH2 0x269 JUMPI DUP1 PUSH4 0x63B43494 EQ PUSH2 0x280 JUMPI DUP1 PUSH4 0x87CF32CD EQ PUSH2 0x289 JUMPI DUP1 PUSH4 0x8CB894E8 EQ PUSH2 0x29C JUMPI DUP1 PUSH4 0x8D628602 EQ PUSH2 0x2AF JUMPI PUSH0 DUP1 REVERT JUMPDEST DUP1 PUSH4 0x6B32E82 EQ PUSH2 0x12B JUMPI DUP1 PUSH4 0x8463070 EQ PUSH2 0x140 JUMPI DUP1 PUSH4 0x283972DF EQ PUSH2 0x191 JUMPI DUP1 PUSH4 0x3975A623 EQ PUSH2 0x207 JUMPI DUP1 PUSH4 0x3D3BDB88 EQ PUSH2 0x22A JUMPI JUMPDEST PUSH0 DUP1 REVERT JUMPDEST PUSH2 0x13E PUSH2 0x139 CALLDATASIZE PUSH1 0x4 PUSH2 0x13FF JUMP JUMPDEST PUSH2 0x4C0 JUMP JUMPDEST STOP JUMPDEST PUSH2 0x174 PUSH2 0x14E CALLDATASIZE PUSH1 0x4 PUSH2 0x13FF JUMP JUMPDEST PUSH1 0x1 PUSH1 0x1 PUSH1 0xA0 SHL SUB AND PUSH0 SWAP1 DUP2 MSTORE PUSH1 0x11 PUSH1 0x20 MSTORE PUSH1 0x40 SWAP1 KECCAK256 PUSH1 0x2 ADD SLOAD PUSH1 0x1 PUSH1 0x1 PUSH1 0x40 SHL SUB AND SWAP1 JUMP JUMPDEST PUSH1 0x40 MLOAD PUSH1 0x1 PUSH1 0x1 PUSH1 0x40 SHL SUB SWAP1 SWAP2 AND DUP2 MSTORE PUSH1 0x20 ADD JUMPDEST PUSH1 0x40 MLOAD DUP1 SWAP2 SUB SWAP1 RETURN JUMPDEST PUSH2 0x1F6 PUSH2 0x19F CALLDATASIZE PUSH1 0x4 PUSH2 0x141F JUMP JUMPDEST PUSH1 0x1 PUSH1 0x1 PUSH1 0xA0 SHL SUB SWAP2 SWAP1 SWAP2 AND PUSH0 SWAP1 DUP2 MSTORE PUSH1 0x12 PUSH1 0x20 SWAP1 DUP2 MSTORE PUSH1 0x40 DUP1 DUP4 KECCAK256 SWAP4 DUP4 MSTORE SWAP3 SWAP1 MSTORE KECCAK256 DUP1 SLOAD PUSH1 0x1 DUP3 ADD SLOAD PUSH1 0x2 SWAP1 SWAP3 ADD SLOAD SWAP1 SWAP3 PUSH1 0x1 PUSH1 0x1 PUSH1 0x40 SHL SUB DUP1 DUP4 AND SWAP3 PUSH1 0x1 PUSH1 0x40 SHL DUP2 DIV SWAP1 SWAP2 AND SWAP2 PUSH1 0x1 PUSH1 0x80 SHL SWAP1 SWAP2 DIV PUSH1 0xFF AND SWAP1 JUMP JUMPDEST PUSH1 0x40 MLOAD PUSH2 0x188 SWAP6 SWAP5 SWAP4 SWAP3 SWAP2 SWAP1 PUSH2 0x145B JUMP JUMPDEST PUSH2 0x21A PUSH2 0x215 CALLDATASIZE PUSH1 0x4 PUSH2 0x14AC JUMP JUMPDEST PUSH2 0x794 JUMP JUMPDEST PUSH1 0x40 MLOAD SWAP1 ISZERO ISZERO DUP2 MSTORE PUSH1 0x20 ADD PUSH2 0x188 JUMP JUMPDEST PUSH2 0x251 PUSH32 0x0 DUP2 JUMP JUMPDEST PUSH1 0x40 MLOAD PUSH1 0x1 PUSH1 0x1 PUSH1 0xA0 SHL SUB SWAP1 SWAP2 AND DUP2 MSTORE PUSH1 0x20 ADD PUSH2 0x188 JUMP JUMPDEST PUSH2 0x272 PUSH1 0x14 SLOAD DUP2 JUMP JUMPDEST PUSH1 0x40 MLOAD SWAP1 DUP2 MSTORE PUSH1 0x20 ADD PUSH2 0x188 JUMP JUMPDEST PUSH2 0x272 PUSH1 0x15 SLOAD DUP2 JUMP JUMPDEST PUSH2 0x13E PUSH2 0x297 CALLDATASIZE PUSH1 0x4 PUSH2 0x14DC JUMP JUMPDEST PUSH2 0x7F1 JUMP JUMPDEST PUSH2 0x13E PUSH2 0x2AA CALLDATASIZE PUSH1 0x4 PUSH2 0x1518 JUMP JUMPDEST PUSH2 0xC44 JUMP JUMPDEST PUSH2 0x1F6 PUSH2 0x2BD CALLDATASIZE PUSH1 0x4 PUSH2 0x141F JUMP JUMPDEST PUSH1 0x12 PUSH1 0x20 SWAP1 DUP2 MSTORE PUSH0 SWAP3 DUP4 MSTORE PUSH1 0x40 DUP1 DUP5 KECCAK256 SWAP1 SWAP2 MSTORE SWAP1 DUP3 MSTORE SWAP1 KECCAK256 DUP1 SLOAD PUSH1 0x1 DUP3 ADD SLOAD PUSH1 0x2 SWAP1 SWAP3 ADD SLOAD SWAP1 SWAP2 SWAP1 PUSH1 0x1 PUSH1 0x1 PUSH1 0x40 SHL SUB DUP1 DUP3 AND SWAP2 PUSH1 0x1 PUSH1 0x40 SHL DUP2 DIV SWAP1 SWAP2 AND SWAP1 PUSH1 0x1 PUSH1 0x80 SHL SWAP1 DIV PUSH1 0xFF AND DUP6 JUMP JUMPDEST PUSH2 0x363 PUSH2 0x317 CALLDATASIZE PUSH1 0x4 PUSH2 0x13FF JUMP JUMPDEST PUSH1 0x11 PUSH1 0x20 MSTORE PUSH0 SWAP1 DUP2 MSTORE PUSH1 0x40 SWAP1 KECCAK256 DUP1 SLOAD PUSH1 0x1 DUP3 ADD SLOAD PUSH1 0x2 SWAP1 SWAP3 ADD SLOAD SWAP1 SWAP2 PUSH1 0x1 PUSH1 0x1 PUSH1 0x40 SHL SUB DUP1 DUP3 AND SWAP3 PUSH1 0x1 PUSH1 0x40 SHL DUP4 DIV DUP3 AND SWAP3 PUSH1 0x1 PUSH1 0x80 SHL DUP2 DIV DUP4 AND SWAP3 PUSH1 0x1 PUSH1 0xC0 SHL SWAP1 SWAP2 DIV PUSH1 0xFF AND SWAP2 AND DUP7 JUMP JUMPDEST PUSH1 0x40 DUP1 MLOAD SWAP7 DUP8 MSTORE PUSH1 0x1 PUSH1 0x1 PUSH1 0x40 SHL SUB SWAP6 DUP7 AND PUSH1 0x20 DUP9 ADD MSTORE SWAP4 DUP6 AND SWAP4 DUP7 ADD SWAP4 SWAP1 SWAP4 MSTORE SWAP1 DUP4 AND PUSH1 0x60 DUP6 ADD MSTORE ISZERO ISZERO PUSH1 0x80 DUP5 ADD MSTORE AND PUSH1 0xA0 DUP3 ADD MSTORE PUSH1 0xC0 ADD PUSH2 0x188 JUMP JUMPDEST PUSH2 0x13E PUSH2 0x3AF CALLDATASIZE PUSH1 0x4 PUSH2 0x15C4 JUMP JUMPDEST PUSH2 0xE99 JUMP JUMPDEST PUSH2 0x272 PUSH1 0x13 SLOAD DUP2 JUMP JUMPDEST PUSH2 0x408 PUSH2 0x3CB CALLDATASIZE PUSH1 0x4 PUSH2 0x13FF JUMP JUMPDEST PUSH1 0x1 PUSH1 0x1 PUSH1 0xA0 SHL SUB AND PUSH0 SWAP1 DUP2 MSTORE PUSH1 0x11 PUSH1 0x20 MSTORE PUSH1 0x40 SWAP1 KECCAK256 PUSH1 0x1 ADD SLOAD PUSH1 0x1 PUSH1 0x1 PUSH1 0x40 SHL SUB DUP1 DUP3 AND SWAP3 PUSH1 0x1 PUSH1 0x40 SHL DUP4 DIV DUP3 AND SWAP3 PUSH1 0x1 PUSH1 0x80 SHL SWAP1 DIV SWAP1 SWAP2 AND SWAP1 JUMP JUMPDEST PUSH1 0x40 DUP1 MLOAD PUSH1 0x1 PUSH1 0x1 PUSH1 0x40 SHL SUB SWAP5 DUP6 AND DUP2 MSTORE SWAP3 DUP5 AND PUSH1 0x20 DUP5 ADD MSTORE SWAP3 AND SWAP2 DUP2 ADD SWAP2 SWAP1 SWAP2 MSTORE PUSH1 0x60 ADD PUSH2 0x188 JUMP JUMPDEST PUSH2 0x272 PUSH2 0x440 CALLDATASIZE PUSH1 0x4 PUSH2 0x13FF JUMP JUMPDEST PUSH1 0x1 PUSH1 0x1 PUSH1 0xA0 SHL SUB AND PUSH0 SWAP1 DUP2 MSTORE PUSH1 0x11 PUSH1 0x20 MSTORE PUSH1 0x40 SWAP1 KECCAK256 SLOAD SWAP1 JUMP JUMPDEST PUSH2 0x13E PUSH2 0x468 CALLDATASIZE PUSH1 0x4 PUSH2 0x1670 JUMP JUMPDEST PUSH1 0x16 DUP1 SLOAD PUSH1 0xFF NOT AND SWAP2 ISZERO ISZERO SWAP2 SWAP1 SWAP2 OR SWAP1 SSTORE JUMP JUMPDEST PUSH2 0x13E PUSH2 0x489 CALLDATASIZE PUSH1 0x4 PUSH2 0x141F JUMP JUMPDEST PUSH2 0xF71 JUMP JUMPDEST PUSH1 0x10 SLOAD PUSH2 0x21A SWAP1 PUSH1 0xFF AND DUP2 JUMP JUMPDEST PUSH0 SLOAD PUSH2 0x251 SWAP1 PUSH1 0x1 PUSH1 0x1 PUSH1 0xA0 SHL SUB AND DUP2 JUMP JUMPDEST PUSH2 0x13E PUSH2 0x4BB CALLDATASIZE PUSH1 0x4 PUSH2 0x168B JUMP JUMPDEST PUSH2 0x10F7 JUMP JUMPDEST PUSH0 SLOAD PUSH1 0x1 PUSH1 0x1 PUSH1 0xA0 SHL SUB AND CALLER EQ PUSH2 0x4EA JUMPI PUSH1 0x40 MLOAD PUSH4 0x47556579 PUSH1 0xE0 SHL DUP2 MSTORE PUSH1 0x4 ADD PUSH1 0x40 MLOAD DUP1 SWAP2 SUB SWAP1 REVERT JUMPDEST PUSH1 0x1 PUSH1 0x1 PUSH1 0xA0 SHL SUB DUP2 AND PUSH0 SWAP1 DUP2 MSTORE PUSH1 0x11 PUSH1 0x20 MSTORE PUSH1 0x40 SWAP1 KECCAK256 PUSH1 0x1 DUP2 ADD SLOAD PUSH1 0x1 PUSH1 0xC0 SHL SWAP1 DIV PUSH1 0xFF AND PUSH2 0x52D JUMPI PUSH1 0x40 MLOAD PUSH4 0x73CB8EB5 PUSH1 0xE1 SHL DUP2 MSTORE PUSH1 0x4 ADD PUSH1 0x40 MLOAD DUP1 SWAP2 SUB SWAP1 REVERT JUMPDEST PUSH1 0x1 DUP2 ADD SLOAD PUSH1 0x1 PUSH1 0x1 PUSH1 0x40 SHL SUB PUSH1 0x1 PUSH1 0x80 SHL DUP3 DIV DUP2 AND SWAP2 AND SUB PUSH2 0x563 JUMPI PUSH1 0x40 MLOAD PUSH4 0x84EE7AD PUSH1 0xE3 SHL DUP2 MSTORE PUSH1 0x4 ADD PUSH1 0x40 MLOAD DUP1 SWAP2 SUB SWAP1 REVERT JUMPDEST PUSH1 0x1 DUP2 DUP2 ADD SLOAD PUSH0 SWAP2 PUSH2 0x57D SWAP2 PUSH1 0x1 PUSH1 0x1 PUSH1 0x40 SHL SUB AND PUSH2 0x16B6 JUMP JUMPDEST PUSH1 0x1 PUSH1 0x1 PUSH1 0xA0 SHL SUB DUP5 AND PUSH0 SWAP1 DUP2 MSTORE PUSH1 0x12 PUSH1 0x20 SWAP1 DUP2 MSTORE PUSH1 0x40 DUP1 DUP4 KECCAK256 PUSH1 0x1 PUSH1 0x1 PUSH1 0x40 SHL SUB SWAP5 SWAP1 SWAP5 AND DUP1 DUP5 MSTORE SWAP4 SWAP1 SWAP2 MSTORE SWAP1 KECCAK256 SWAP1 SWAP2 POP PUSH1 0x3 PUSH1 0x2 DUP3 ADD SLOAD PUSH1 0x1 PUSH1 0x80 SHL SWAP1 DIV PUSH1 0xFF AND PUSH1 0x3 DUP2 GT ISZERO PUSH2 0x5D1 JUMPI PUSH2 0x5D1 PUSH2 0x1447 JUMP JUMPDEST SUB PUSH2 0x5EF JUMPI PUSH1 0x40 MLOAD PUSH4 0xF0F52185 PUSH1 0xE0 SHL DUP2 MSTORE PUSH1 0x4 ADD PUSH1 0x40 MLOAD DUP1 SWAP2 SUB SWAP1 REVERT JUMPDEST PUSH1 0x2 DUP1 DUP3 ADD SLOAD PUSH1 0x1 PUSH1 0x80 SHL SWAP1 DIV PUSH1 0xFF AND PUSH1 0x3 DUP2 GT ISZERO PUSH2 0x610 JUMPI PUSH2 0x610 PUSH2 0x1447 JUMP JUMPDEST SUB PUSH2 0x651 JUMPI PUSH1 0x1 DUP4 ADD DUP1 SLOAD PUSH8 0xFFFFFFFFFFFFFFFF PUSH1 0x40 SHL NOT AND PUSH1 0x1 PUSH1 0x40 SHL PUSH1 0x1 PUSH1 0x1 PUSH1 0x40 SHL SUB DUP6 AND MUL OR SWAP1 SSTORE PUSH1 0x14 DUP1 SLOAD SWAP1 PUSH0 PUSH2 0x64B DUP4 PUSH2 0x16DD JUMP JUMPDEST SWAP2 SWAP1 POP SSTORE POP JUMPDEST DUP2 ISZERO PUSH2 0x6BD JUMPI PUSH1 0x1 PUSH1 0x1 PUSH1 0xA0 SHL SUB DUP5 AND PUSH0 SWAP1 DUP2 MSTORE PUSH1 0x12 PUSH1 0x20 MSTORE PUSH1 0x40 DUP2 KECCAK256 SWAP1 PUSH2 0x67A PUSH1 0x1 DUP6 PUSH2 0x16F2 JUMP JUMPDEST DUP2 MSTORE PUSH1 0x20 DUP2 ADD SWAP2 SWAP1 SWAP2 MSTORE PUSH1 0x40 ADD PUSH0 KECCAK256 PUSH1 0x2 SWAP1 DUP2 ADD SLOAD SWAP1 DUP5 ADD DUP1 SLOAD PUSH1 0x1 PUSH1 0x40 SHL SWAP1 SWAP3 DIV PUSH1 0x1 PUSH1 0x1 PUSH1 0x40 SHL SUB AND PUSH8 0xFFFFFFFFFFFFFFFF NOT SWAP1 SWAP3 AND SWAP2 SWAP1 SWAP2 OR SWAP1 SSTORE PUSH2 0x6D1 JUMP JUMPDEST PUSH1 0x2 DUP4 ADD DUP1 SLOAD PUSH8 0xFFFFFFFFFFFFFFFF NOT AND SWAP1 SSTORE JUMPDEST PUSH1 0x1 PUSH1 0x1 PUSH1 0xA0 SHL SUB DUP5 AND PUSH0 SWAP1 DUP2 MSTORE PUSH1 0x12 PUSH1 0x20 SWAP1 DUP2 MSTORE PUSH1 0x40 DUP1 DUP4 KECCAK256 DUP6 DUP5 MSTORE SWAP1 SWAP2 MSTORE DUP2 KECCAK256 DUP2 DUP2 SSTORE PUSH1 0x1 DUP1 DUP3 ADD DUP4 SWAP1 SSTORE PUSH1 0x2 SWAP1 SWAP2 ADD DUP1 SLOAD PUSH17 0xFFFFFFFFFFFFFFFFFFFFFFFFFFFFFFFFFF NOT AND SWAP1 SSTORE DUP5 ADD DUP1 SLOAD PUSH8 0xFFFFFFFFFFFFFFFF NOT AND PUSH1 0x1 PUSH1 0x1 PUSH1 0x40 SHL SUB DUP6 AND OR SWAP1 SSTORE PUSH1 0x13 DUP1 SLOAD SWAP2 PUSH2 0x745 DUP4 PUSH2 0x16DD JUMP JUMPDEST SWAP2 SWAP1 POP SSTORE POP DUP2 DUP5 PUSH1 0x1 PUSH1 0x1 PUSH1 0xA0 SHL SUB AND PUSH32 0xEA9D7C5A8F5F429B98436961BD70A4AF3DBB183BF419142B515DB38C30A434AE TIMESTAMP PUSH1 0x40 MLOAD PUSH2 0x786 SWAP2 DUP2 MSTORE PUSH1 0x20 ADD SWAP1 JUMP JUMPDEST PUSH1 0x40 MLOAD DUP1 SWAP2 SUB SWAP1 LOG3 POP POP POP POP JUMP JUMPDEST PUSH1 0x1 PUSH1 0x1 PUSH1 0xA0 SHL SUB DUP4 AND PUSH0 SWAP1 DUP2 MSTORE PUSH1 0x12 PUSH1 0x20 SWAP1 DUP2 MSTORE PUSH1 0x40 DUP1 DUP4 KECCAK256 DUP6 DUP5 MSTORE SWAP1 SWAP2 MSTORE DUP2 KECCAK256 PUSH1 0x3 PUSH1 0x2 DUP3 ADD SLOAD PUSH1 0x1 PUSH1 0x80 SHL SWAP1 DIV PUSH1 0xFF AND PUSH1 0x3 DUP2 GT ISZERO PUSH2 0x7D8 JUMPI PUSH2 0x7D8 PUSH2 0x1447 JUMP JUMPDEST EQ DUP1 ISZERO PUSH2 0x7E8 JUMPI POP DUP3 DUP2 PUSH1 0x1 ADD SLOAD EQ JUMPDEST SWAP6 SWAP5 POP POP POP POP POP JUMP JUMPDEST PUSH1 0x40 MLOAD PUSH4 0x1FD3F77 PUSH1 0xE7 SHL DUP2 MSTORE CALLER PUSH1 0x4 DUP3 ADD MSTORE PUSH32 0x0 PUSH1 0x1 PUSH1 0x1 PUSH1 0xA0 SHL SUB AND SWAP1 PUSH4 0xFE9FBB80 SWAP1 PUSH1 0x24 ADD PUSH1 0x20 PUSH1 0x40 MLOAD DUP1 DUP4 SUB DUP2 DUP7 GAS STATICCALL ISZERO DUP1 ISZERO PUSH2 0x853 JUMPI RETURNDATASIZE PUSH0 DUP1 RETURNDATACOPY RETURNDATASIZE PUSH0 REVERT JUMPDEST POP POP POP POP PUSH1 0x40 MLOAD RETURNDATASIZE PUSH1 0x1F NOT PUSH1 0x1F DUP3 ADD AND DUP3 ADD DUP1 PUSH1 0x40 MSTORE POP DUP2 ADD SWAP1 PUSH2 0x877 SWAP2 SWAP1 PUSH2 0x1705 JUMP JUMPDEST PUSH2 0x894 JUMPI PUSH1 0x40 MLOAD PUSH4 0xEA8E4EB5 PUSH1 0xE0 SHL DUP2 MSTORE PUSH1 0x4 ADD PUSH1 0x40 MLOAD DUP1 SWAP2 SUB SWAP1 REVERT JUMPDEST CALLER PUSH0 SWAP1 DUP2 MSTORE PUSH1 0x11 PUSH1 0x20 MSTORE PUSH1 0x40 SWAP1 KECCAK256 PUSH1 0x1 DUP2 ADD SLOAD PUSH1 0x1 PUSH1 0xC0 SHL SWAP1 DIV PUSH1 0xFF AND PUSH2 0x8CE JUMPI PUSH1 0x40 MLOAD PUSH4 0x73CB8EB5 PUSH1 0xE1 SHL DUP2 MSTORE PUSH1 0x4 ADD PUSH1 0x40 MLOAD DUP1 SWAP2 SUB SWAP1 REVERT JUMPDEST PUSH2 0x8DE PUSH1 0x40 DUP4 ADD PUSH1 0x20 DUP5 ADD PUSH2 0x1720 JUMP JUMPDEST PUSH1 0x1 PUSH1 0x1 PUSH1 0x40 SHL SUB AND PUSH2 0x8F7 PUSH1 0x60 DUP5 ADD PUSH1 0x40 DUP6 ADD PUSH2 0x1720 JUMP JUMPDEST PUSH1 0x1 PUSH1 0x1 PUSH1 0x40 SHL SUB AND LT ISZERO PUSH2 0x91F JUMPI PUSH1 0x40 MLOAD PUSH4 0x12A4320B PUSH1 0xE2 SHL DUP2 MSTORE PUSH1 0x4 ADD PUSH1 0x40 MLOAD DUP1 SWAP2 SUB SWAP1 REVERT JUMPDEST PUSH1 0x2 DUP2 ADD SLOAD PUSH0 SWAP1 PUSH1 0x1 PUSH1 0x1 PUSH1 0x40 SHL SUB AND ISZERO PUSH2 0x952 JUMPI PUSH1 0x2 DUP3 ADD SLOAD PUSH2 0x94D SWAP1 PUSH1 0x1 PUSH1 0x1 PUSH1 0x40 SHL SUB AND PUSH1 0x1 PUSH2 0x1746 JUMP JUMPDEST PUSH2 0x955 JUMP JUMPDEST PUSH1 0x1 JUMPDEST SWAP1 POP PUSH1 0x1 PUSH1 0x1 PUSH1 0x40 SHL SUB DUP2 AND PUSH2 0x971 PUSH1 0x40 DUP6 ADD PUSH1 0x20 DUP7 ADD PUSH2 0x1720 JUMP JUMPDEST PUSH1 0x1 PUSH1 0x1 PUSH1 0x40 SHL SUB AND EQ PUSH2 0x9C0 JUMPI DUP1 PUSH2 0x990 PUSH1 0x40 DUP6 ADD PUSH1 0x20 DUP7 ADD PUSH2 0x1720 JUMP JUMPDEST PUSH1 0x40 MLOAD PUSH4 0x524EF2A5 PUSH1 0xE0 SHL DUP2 MSTORE PUSH1 0x1 PUSH1 0x1 PUSH1 0x40 SHL SUB SWAP3 DUP4 AND PUSH1 0x4 DUP3 ADD MSTORE SWAP2 AND PUSH1 0x24 DUP3 ADD MSTORE PUSH1 0x44 ADD PUSH1 0x40 MLOAD DUP1 SWAP2 SUB SWAP1 REVERT JUMPDEST PUSH1 0x1 DUP3 ADD SLOAD PUSH1 0x1 PUSH1 0x1 PUSH1 0x40 SHL SUB AND PUSH0 CALLER DUP3 DUP7 CALLDATALOAD PUSH2 0x9E3 PUSH1 0x40 DUP10 ADD PUSH1 0x20 DUP11 ADD PUSH2 0x1720 JUMP JUMPDEST PUSH2 0x9F3 PUSH1 0x60 DUP11 ADD PUSH1 0x40 DUP12 ADD PUSH2 0x1720 JUMP JUMPDEST PUSH1 0x60 DUP11 ADD CALLDATALOAD PUSH2 0xA08 PUSH1 0xA0 DUP13 ADD PUSH1 0x80 DUP14 ADD PUSH2 0x1720 JUMP JUMPDEST PUSH1 0x40 DUP1 MLOAD PUSH1 0x1 PUSH1 0x1 PUSH1 0xA0 SHL SUB SWAP1 SWAP9 AND PUSH1 0x20 DUP10 ADD MSTORE DUP8 ADD SWAP6 SWAP1 SWAP6 MSTORE PUSH1 0x60 DUP7 ADD SWAP4 SWAP1 SWAP4 MSTORE PUSH1 0x1 PUSH1 0x1 PUSH1 0x40 SHL SUB SWAP2 DUP3 AND PUSH1 0x80 DUP7 ADD MSTORE DUP2 AND PUSH1 0xA0 DUP6 ADD MSTORE PUSH1 0xC0 DUP5 ADD SWAP2 SWAP1 SWAP2 MSTORE AND PUSH1 0xE0 DUP3 ADD MSTORE PUSH2 0x100 ADD PUSH1 0x40 DUP1 MLOAD PUSH1 0x1F NOT DUP2 DUP5 SUB ADD DUP2 MSTORE DUP3 DUP3 MSTORE DUP1 MLOAD PUSH1 0x20 SWAP2 DUP3 ADD KECCAK256 PUSH1 0xA0 DUP5 ADD DUP4 MSTORE DUP1 DUP5 MSTORE DUP9 CALLDATALOAD DUP5 DUP4 ADD MSTORE SWAP4 POP DUP3 DUP3 ADD SWAP2 PUSH2 0xA8F SWAP2 SWAP1 DUP10 ADD SWAP1 DUP10 ADD PUSH2 0x1720 JUMP JUMPDEST PUSH1 0x1 PUSH1 0x1 PUSH1 0x40 SHL SUB AND DUP2 MSTORE PUSH1 0x20 ADD PUSH2 0xAAD PUSH1 0x60 DUP9 ADD PUSH1 0x40 DUP10 ADD PUSH2 0x1720 JUMP JUMPDEST PUSH1 0x1 PUSH1 0x1 PUSH1 0x40 SHL SUB AND DUP2 MSTORE PUSH1 0x20 ADD PUSH1 0x1 SWAP1 MSTORE CALLER PUSH0 SWAP1 DUP2 MSTORE PUSH1 0x12 PUSH1 0x20 SWAP1 DUP2 MSTORE PUSH1 0x40 DUP1 DUP4 KECCAK256 DUP7 DUP5 MSTORE DUP3 MSTORE SWAP2 DUP3 SWAP1 KECCAK256 DUP4 MLOAD DUP2 SSTORE SWAP1 DUP4 ADD MLOAD PUSH1 0x1 DUP3 ADD SSTORE SWAP1 DUP3 ADD MLOAD PUSH1 0x2 DUP3 ADD DUP1 SLOAD PUSH1 0x60 DUP6 ADD MLOAD PUSH1 0x1 PUSH1 0x1 PUSH1 0x40 SHL SUB SWAP1 DUP2 AND PUSH1 0x1 PUSH1 0x40 SHL MUL PUSH1 0x1 PUSH1 0x1 PUSH1 0x80 SHL SUB NOT SWAP1 SWAP3 AND SWAP4 AND SWAP3 SWAP1 SWAP3 OR SWAP2 SWAP1 SWAP2 OR DUP1 DUP3 SSTORE PUSH1 0x80 DUP5 ADD MLOAD SWAP2 SWAP1 PUSH1 0xFF PUSH1 0x80 SHL NOT AND PUSH1 0x1 PUSH1 0x80 SHL DUP4 PUSH1 0x3 DUP2 GT ISZERO PUSH2 0xB44 JUMPI PUSH2 0xB44 PUSH2 0x1447 JUMP JUMPDEST MUL OR SWAP1 SSTORE POP PUSH2 0xB58 SWAP2 POP DUP4 SWAP1 POP PUSH1 0x1 PUSH2 0x1766 JUMP JUMPDEST PUSH1 0x1 DUP6 ADD DUP1 SLOAD PUSH8 0xFFFFFFFFFFFFFFFF NOT AND PUSH1 0x1 PUSH1 0x1 PUSH1 0x40 SHL SUB SWAP3 SWAP1 SWAP3 AND SWAP2 SWAP1 SWAP2 OR SWAP1 SSTORE PUSH2 0xB8B PUSH1 0x60 DUP7 ADD PUSH1 0x40 DUP8 ADD PUSH2 0x1720 JUMP JUMPDEST PUSH1 0x2 DUP6 ADD DUP1 SLOAD PUSH8 0xFFFFFFFFFFFFFFFF NOT AND PUSH1 0x1 PUSH1 0x1 PUSH1 0x40 SHL SUB SWAP3 SWAP1 SWAP3 AND SWAP2 SWAP1 SWAP2 OR SWAP1 SSTORE PUSH1 0x13 DUP1 SLOAD SWAP1 PUSH0 PUSH2 0xBBD DUP4 PUSH2 0x1779 JUMP JUMPDEST SWAP1 SWAP2 SSTORE POP DUP3 SWAP1 POP CALLER PUSH32 0xD37D5FC3AE000A2FB1EC2EFCFD3847602C39A29CBFFF9320A99B54F8B561309 DUP4 DUP9 CALLDATALOAD PUSH2 0xBF9 PUSH1 0x40 DUP12 ADD PUSH1 0x20 DUP13 ADD PUSH2 0x1720 JUMP JUMPDEST PUSH2 0xC09 PUSH1 0x60 DUP13 ADD PUSH1 0x40 DUP14 ADD PUSH2 0x1720 JUMP JUMPDEST PUSH1 0x40 DUP1 MLOAD SWAP5 DUP6 MSTORE PUSH1 0x20 DUP6 ADD SWAP4 SWAP1 SWAP4 MSTORE PUSH1 0x1 PUSH1 0x1 PUSH1 0x40 SHL SUB SWAP2 DUP3 AND DUP5 DUP5 ADD MSTORE AND PUSH1 0x60 DUP4 ADD MSTORE TIMESTAMP PUSH1 0x80 DUP4 ADD MSTORE MLOAD SWAP1 DUP2 SWAP1 SUB PUSH1 0xA0 ADD SWAP1 LOG3 POP POP POP POP POP JUMP JUMPDEST PUSH1 0x10 SLOAD PUSH1 0xFF AND PUSH2 0xC67 JUMPI PUSH1 0x40 MLOAD PUSH4 0x7C480385 PUSH1 0xE0 SHL DUP2 MSTORE PUSH1 0x4 ADD PUSH1 0x40 MLOAD DUP1 SWAP2 SUB SWAP1 REVERT JUMPDEST PUSH1 0x40 MLOAD PUSH4 0x1FD3F77 PUSH1 0xE7 SHL DUP2 MSTORE CALLER PUSH1 0x4 DUP3 ADD MSTORE PUSH32 0x0 PUSH1 0x1 PUSH1 0x1 PUSH1 0xA0 SHL SUB AND SWAP1 PUSH4 0xFE9FBB80 SWAP1 PUSH1 0x24 ADD PUSH1 0x20 PUSH1 0x40 MLOAD DUP1 DUP4 SUB DUP2 DUP7 GAS STATICCALL ISZERO DUP1 ISZERO PUSH2 0xCC9 JUMPI RETURNDATASIZE PUSH0 DUP1 RETURNDATACOPY RETURNDATASIZE PUSH0 REVERT JUMPDEST POP POP POP POP PUSH1 0x40 MLOAD RETURNDATASIZE PUSH1 0x1F NOT PUSH1 0x1F DUP3 ADD AND DUP3 ADD DUP1 PUSH1 0x40 MSTORE POP DUP2 ADD SWAP1 PUSH2 0xCED SWAP2 SWAP1 PUSH2 0x1705 JUMP JUMPDEST PUSH2 0xD0A JUMPI PUSH1 0x40 MLOAD PUSH4 0xEA8E4EB5 PUSH1 0xE0 SHL DUP2 MSTORE PUSH1 0x4 ADD PUSH1 0x40 MLOAD DUP1 SWAP2 SUB SWAP1 REVERT JUMPDEST CALLER PUSH0 SWAP1 DUP2 MSTORE PUSH1 0x11 PUSH1 0x20 MSTORE PUSH1 0x40 SWAP1 KECCAK256 PUSH1 0x1 DUP2 ADD SLOAD PUSH1 0x1 PUSH1 0xC0 SHL SWAP1 DIV PUSH1 0xFF AND PUSH2 0xD44 JUMPI PUSH1 0x40 MLOAD PUSH4 0x73CB8EB5 PUSH1 0xE1 SHL DUP2 MSTORE PUSH1 0x4 ADD PUSH1 0x40 MLOAD DUP1 SWAP2 SUB SWAP1 REVERT JUMPDEST PUSH1 0x1 DUP2 ADD SLOAD PUSH1 0x1 PUSH1 0x40 SHL SWAP1 DIV PUSH1 0x1 PUSH1 0x1 PUSH1 0x40 SHL SUB AND DUP8 EQ PUSH2 0xD78 JUMPI PUSH1 0x40 MLOAD PUSH4 0x30E4F27B PUSH1 0xE2 SHL DUP2 MSTORE PUSH1 0x4 ADD PUSH1 0x40 MLOAD DUP1 SWAP2 SUB SWAP1 REVERT JUMPDEST CALLER PUSH0 SWAP1 DUP2 MSTORE PUSH1 0x12 PUSH1 0x20 SWAP1 DUP2 MSTORE PUSH1 0x40 DUP1 DUP4 KECCAK256 DUP11 DUP5 MSTORE SWAP1 SWAP2 MSTORE SWAP1 KECCAK256 PUSH1 0x1 PUSH1 0x2 DUP3 ADD SLOAD PUSH1 0x1 PUSH1 0x80 SHL SWAP1 DIV PUSH1 0xFF AND PUSH1 0x3 DUP2 GT ISZERO PUSH2 0xDB3 JUMPI PUSH2 0xDB3 PUSH2 0x1447 JUMP JUMPDEST EQ PUSH2 0xDD1 JUMPI PUSH1 0x40 MLOAD PUSH4 0x309A8CA5 PUSH1 0xE2 SHL DUP2 MSTORE PUSH1 0x4 ADD PUSH1 0x40 MLOAD DUP1 SWAP2 SUB SWAP1 REVERT JUMPDEST PUSH1 0x16 SLOAD PUSH1 0xFF AND DUP1 PUSH2 0xDF5 JUMPI PUSH1 0x40 MLOAD PUSH4 0x9BDE339 PUSH1 0xE0 SHL DUP2 MSTORE PUSH1 0x4 ADD PUSH1 0x40 MLOAD DUP1 SWAP2 SUB SWAP1 REVERT JUMPDEST PUSH1 0x2 DUP3 ADD DUP1 SLOAD PUSH1 0xFF PUSH1 0x80 SHL NOT AND PUSH1 0x1 PUSH1 0x81 SHL OR SWAP1 SSTORE PUSH2 0xE15 DUP10 PUSH1 0x1 PUSH2 0x1766 JUMP JUMPDEST PUSH1 0x1 DUP5 ADD DUP1 SLOAD PUSH1 0x1 PUSH1 0x1 PUSH1 0x40 SHL SUB SWAP3 SWAP1 SWAP3 AND PUSH1 0x1 PUSH1 0x40 SHL MUL PUSH8 0xFFFFFFFFFFFFFFFF PUSH1 0x40 SHL NOT SWAP1 SWAP3 AND SWAP2 SWAP1 SWAP2 OR SWAP1 SSTORE PUSH1 0x14 DUP1 SLOAD SWAP1 PUSH0 PUSH2 0xE52 DUP4 PUSH2 0x1779 JUMP JUMPDEST SWAP1 SWAP2 SSTORE POP POP PUSH1 0x40 MLOAD TIMESTAMP DUP2 MSTORE DUP10 SWAP1 CALLER SWAP1 PUSH32 0xF4170F8221A8A01EEE8962ED1AD097C1C4567EF05A7D7FF4E9057726ADAC1F6F SWAP1 PUSH1 0x20 ADD PUSH1 0x40 MLOAD DUP1 SWAP2 SUB SWAP1 LOG3 POP POP POP POP POP POP POP POP POP JUMP JUMPDEST PUSH0 SLOAD PUSH1 0x1 PUSH1 0x1 PUSH1 0xA0 SHL SUB AND CALLER EQ PUSH2 0xEC3 JUMPI PUSH1 0x40 MLOAD PUSH4 0x47556579 PUSH1 0xE0 SHL DUP2 MSTORE PUSH1 0x4 ADD PUSH1 0x40 MLOAD DUP1 SWAP2 SUB SWAP1 REVERT JUMPDEST PUSH2 0xED0 PUSH1 0x1 DUP8 PUSH1 0x2 PUSH2 0x1314 JUMP JUMPDEST POP PUSH2 0xEDE PUSH1 0x3 DUP7 PUSH1 0x2 PUSH2 0x1352 JUMP JUMPDEST POP PUSH2 0xEEC PUSH1 0x7 DUP6 PUSH1 0x2 PUSH2 0x1352 JUMP JUMPDEST POP PUSH2 0xEFA PUSH1 0xB DUP5 PUSH1 0x2 PUSH2 0x1352 JUMP JUMPDEST POP PUSH2 0xF06 PUSH1 0xF PUSH0 PUSH2 0x1396 JUMP JUMPDEST PUSH0 JUMPDEST DUP2 DUP2 LT ISZERO PUSH2 0xF5B JUMPI PUSH1 0xF DUP4 DUP4 DUP4 DUP2 DUP2 LT PUSH2 0xF24 JUMPI PUSH2 0xF24 PUSH2 0x1791 JUMP JUMPDEST DUP4 SLOAD PUSH1 0x1 DUP2 ADD DUP6 SSTORE PUSH0 SWAP5 DUP6 MSTORE PUSH1 0x20 SWAP1 SWAP5 KECCAK256 PUSH2 0xF52 SWAP5 PUSH1 0x2 SWAP1 DUP2 MUL SWAP1 SWAP2 ADD SWAP4 PUSH1 0x40 SWAP1 SWAP3 MUL SWAP2 SWAP1 SWAP2 ADD SWAP2 POP PUSH2 0x1314 JUMP JUMPDEST POP PUSH1 0x1 ADD PUSH2 0xF08 JUMP JUMPDEST POP POP PUSH1 0x10 DUP1 SLOAD PUSH1 0xFF NOT AND PUSH1 0x1 OR SWAP1 SSTORE POP POP POP POP POP JUMP JUMPDEST PUSH0 SLOAD PUSH1 0x1 PUSH1 0x1 PUSH1 0xA0 SHL SUB AND CALLER EQ PUSH2 0xF9B JUMPI PUSH1 0x40 MLOAD PUSH4 0x47556579 PUSH1 0xE0 SHL DUP2 MSTORE PUSH1 0x4 ADD PUSH1 0x40 MLOAD DUP1 SWAP2 SUB SWAP1 REVERT JUMPDEST PUSH1 0x1 PUSH1 0x1 PUSH1 0xA0 SHL SUB DUP3 AND PUSH0 SWAP1 DUP2 MSTORE PUSH1 0x11 PUSH1 0x20 MSTORE PUSH1 0x40 SWAP1 KECCAK256 PUSH1 0x1 ADD SLOAD PUSH1 0x1 PUSH1 0xC0 SHL SWAP1 DIV PUSH1 0xFF AND ISZERO PUSH2 0xFDD JUMPI PUSH1 0x40 MLOAD PUSH3 0x5F89B PUSH1 0xE5 SHL DUP2 MSTORE PUSH1 0x4 ADD PUSH1 0x40 MLOAD DUP1 SWAP2 SUB SWAP1 REVERT JUMPDEST PUSH1 0x40 DUP1 MLOAD PUSH1 0xC0 DUP2 ADD DUP3 MSTORE DUP3 DUP2 MSTORE PUSH0 PUSH1 0x20 DUP1 DUP4 ADD DUP3 DUP2 MSTORE DUP4 DUP6 ADD DUP4 DUP2 MSTORE PUSH1 0x60 DUP6 ADD DUP5 DUP2 MSTORE PUSH1 0x1 PUSH1 0x80 DUP8 ADD DUP2 DUP2 MSTORE PUSH1 0xA0 DUP9 ADD DUP8 DUP2 MSTORE PUSH1 0x1 PUSH1 0x1 PUSH1 0xA0 SHL SUB DUP13 AND DUP1 DUP10 MSTORE PUSH1 0x11 SWAP1 SWAP8 MSTORE SWAP7 DUP10 SWAP1 KECCAK256 SWAP8 MLOAD DUP9 SSTORE SWAP4 MLOAD SWAP1 DUP8 ADD DUP1 SLOAD SWAP4 MLOAD SWAP3 MLOAD SWAP5 MLOAD ISZERO ISZERO PUSH1 0x1 PUSH1 0xC0 SHL MUL PUSH1 0xFF PUSH1 0xC0 SHL NOT PUSH1 0x1 PUSH1 0x1 PUSH1 0x40 SHL SUB SWAP7 DUP8 AND PUSH1 0x1 PUSH1 0x80 SHL MUL AND PUSH9 0xFFFFFFFFFFFFFFFFFF PUSH1 0x80 SHL NOT SWAP5 DUP8 AND PUSH1 0x1 PUSH1 0x40 SHL MUL PUSH1 0x1 PUSH1 0x1 PUSH1 0x80 SHL SUB NOT SWAP1 SWAP7 AND SWAP4 DUP8 AND SWAP4 SWAP1 SWAP4 OR SWAP5 SWAP1 SWAP5 OR SWAP3 SWAP1 SWAP3 AND OR SWAP2 SWAP1 SWAP2 OR SWAP1 SSTORE SWAP2 MLOAD PUSH1 0x2 SWAP1 SWAP4 ADD DUP1 SLOAD SWAP4 SWAP1 SWAP3 AND PUSH8 0xFFFFFFFFFFFFFFFF NOT SWAP4 SWAP1 SWAP4 AND SWAP3 SWAP1 SWAP3 OR SWAP1 SSTORE SWAP1 MLOAD PUSH32 0xCB4C6DFE0CEEA5101BD46C1CEC77B9816756C35226D856C91CDFB3A098D70517 SWAP1 PUSH2 0x10EB SWAP1 DUP5 SWAP1 TIMESTAMP SWAP1 SWAP2 DUP3 MSTORE PUSH1 0x20 DUP3 ADD MSTORE PUSH1 0x40 ADD SWAP1 JUMP JUMPDEST PUSH1 0x40 MLOAD DUP1 SWAP2 SUB SWAP1 LOG2 POP POP JUMP JUMPDEST PUSH1 0x40 MLOAD PUSH4 0x1FD3F77 PUSH1 0xE7 SHL DUP2 MSTORE CALLER PUSH1 0x4 DUP3 ADD MSTORE PUSH32 0x0 PUSH1 0x1 PUSH1 0x1 PUSH1 0xA0 SHL SUB AND SWAP1 PUSH4 0xFE9FBB80 SWAP1 PUSH1 0x24 ADD PUSH1 0x20 PUSH1 0x40 MLOAD DUP1 DUP4 SUB DUP2 DUP7 GAS STATICCALL ISZERO DUP1 ISZERO PUSH2 0x1159 JUMPI RETURNDATASIZE PUSH0 DUP1 RETURNDATACOPY RETURNDATASIZE PUSH0 REVERT JUMPDEST POP POP POP POP PUSH1 0x40 MLOAD RETURNDATASIZE PUSH1 0x1F NOT PUSH1 0x1F DUP3 ADD AND DUP3 ADD DUP1 PUSH1 0x40 MSTORE POP DUP2 ADD SWAP1 PUSH2 0x117D SWAP2 SWAP1 PUSH2 0x1705 JUMP JUMPDEST PUSH2 0x119A JUMPI PUSH1 0x40 MLOAD PUSH4 0xEA8E4EB5 PUSH1 0xE0 SHL DUP2 MSTORE PUSH1 0x4 ADD PUSH1 0x40 MLOAD DUP1 SWAP2 SUB SWAP1 REVERT JUMPDEST CALLER PUSH0 SWAP1 DUP2 MSTORE PUSH1 0x11 PUSH1 0x20 MSTORE PUSH1 0x40 SWAP1 KECCAK256 PUSH1 0x1 DUP2 ADD SLOAD PUSH1 0x1 PUSH1 0xC0 SHL SWAP1 DIV PUSH1 0xFF AND PUSH2 0x11D4 JUMPI PUSH1 0x40 MLOAD PUSH4 0x73CB8EB5 PUSH1 0xE1 SHL DUP2 MSTORE PUSH1 0x4 ADD PUSH1 0x40 MLOAD DUP1 SWAP2 SUB SWAP1 REVERT JUMPDEST PUSH1 0x1 DUP2 ADD SLOAD PUSH1 0x1 PUSH1 0x80 SHL SWAP1 DIV PUSH1 0x1 PUSH1 0x1 PUSH1 0x40 SHL SUB AND DUP3 EQ PUSH2 0x1208 JUMPI PUSH1 0x40 MLOAD PUSH4 0x69FD0745 PUSH1 0xE0 SHL DUP2 MSTORE PUSH1 0x4 ADD PUSH1 0x40 MLOAD DUP1 SWAP2 SUB SWAP1 REVERT JUMPDEST CALLER PUSH0 SWAP1 DUP2 MSTORE PUSH1 0x12 PUSH1 0x20 SWAP1 DUP2 MSTORE PUSH1 0x40 DUP1 DUP4 KECCAK256 DUP6 DUP5 MSTORE SWAP1 SWAP2 MSTORE SWAP1 KECCAK256 PUSH1 0x2 DUP1 DUP3 ADD SLOAD PUSH1 0x1 PUSH1 0x80 SHL SWAP1 DIV PUSH1 0xFF AND PUSH1 0x3 DUP2 GT ISZERO PUSH2 0x1242 JUMPI PUSH2 0x1242 PUSH2 0x1447 JUMP JUMPDEST EQ PUSH2 0x1260 JUMPI PUSH1 0x40 MLOAD PUSH4 0x4AEB15BF PUSH1 0xE0 SHL DUP2 MSTORE PUSH1 0x4 ADD PUSH1 0x40 MLOAD DUP1 SWAP2 SUB SWAP1 REVERT JUMPDEST DUP2 SLOAD PUSH1 0x1 DUP1 DUP4 ADD SLOAD DUP5 SSTORE PUSH2 0x1275 SWAP1 DUP6 SWAP1 PUSH2 0x1766 JUMP JUMPDEST PUSH1 0x1 DUP5 ADD DUP1 SLOAD PUSH8 0xFFFFFFFFFFFFFFFF PUSH1 0x80 SHL NOT AND PUSH1 0x1 PUSH1 0x80 SHL PUSH1 0x1 PUSH1 0x1 PUSH1 0x40 SHL SUB SWAP4 SWAP1 SWAP4 AND SWAP3 SWAP1 SWAP3 MUL SWAP2 SWAP1 SWAP2 OR SWAP1 SSTORE PUSH1 0x2 DUP3 ADD DUP1 SLOAD PUSH1 0xFF PUSH1 0x80 SHL NOT AND PUSH1 0x3 PUSH1 0x80 SHL OR SWAP1 SSTORE PUSH1 0x15 DUP1 SLOAD SWAP1 PUSH0 PUSH2 0x12C8 DUP4 PUSH2 0x1779 JUMP JUMPDEST SWAP1 SWAP2 SSTORE POP POP PUSH1 0x1 DUP3 ADD SLOAD PUSH1 0x40 DUP1 MLOAD DUP4 DUP2 MSTORE PUSH1 0x20 DUP2 ADD SWAP3 SWAP1 SWAP3 MSTORE TIMESTAMP SWAP1 DUP3 ADD MSTORE DUP5 SWAP1 CALLER SWAP1 PUSH32 0xEE42608CEAAC3DA45E2339835DA94CE6656F2A879D42AA72FFF12BF19634EC77 SWAP1 PUSH1 0x60 ADD PUSH2 0x786 JUMP JUMPDEST DUP3 PUSH1 0x2 DUP2 ADD SWAP3 DUP3 ISZERO PUSH2 0x1342 JUMPI SWAP2 PUSH1 0x20 MUL DUP3 ADD JUMPDEST DUP3 DUP2 GT ISZERO PUSH2 0x1342 JUMPI DUP3 CALLDATALOAD DUP3 SSTORE SWAP2 PUSH1 0x20 ADD SWAP2 SWAP1 PUSH1 0x1 ADD SWAP1 PUSH2 0x1327 JUMP JUMPDEST POP PUSH2 0x134E SWAP3 SWAP2 POP PUSH2 0x13B7 JUMP JUMPDEST POP SWAP1 JUMP JUMPDEST PUSH1 0x4 DUP4 ADD SWAP2 DUP4 SWAP1 DUP3 ISZERO PUSH2 0x138A JUMPI SWAP2 PUSH1 0x40 MUL DUP3 ADD JUMPDEST DUP3 DUP2 GT ISZERO PUSH2 0x138A JUMPI PUSH2 0x137A DUP3 DUP5 PUSH1 0x2 PUSH2 0x1314 JUMP JUMPDEST POP SWAP2 PUSH1 0x40 ADD SWAP2 SWAP1 PUSH1 0x2 ADD SWAP1 PUSH2 0x1366 JUMP JUMPDEST POP PUSH2 0x134E SWAP3 SWAP2 POP PUSH2 0x13CB JUMP JUMPDEST POP DUP1 SLOAD PUSH0 DUP3 SSTORE PUSH1 0x2 MUL SWAP1 PUSH0 MSTORE PUSH1 0x20 PUSH0 KECCAK256 SWAP1 DUP2 ADD SWAP1 PUSH2 0x13B4 SWAP2 SWAP1 PUSH2 0x13CB JUMP JUMPDEST POP JUMP JUMPDEST JUMPDEST DUP1 DUP3 GT ISZERO PUSH2 0x134E JUMPI PUSH0 DUP2 SSTORE PUSH1 0x1 ADD PUSH2 0x13B8 JUMP JUMPDEST DUP1 DUP3 GT ISZERO PUSH2 0x134E JUMPI PUSH0 DUP1 DUP3 SSTORE PUSH1 0x1 DUP3 ADD SSTORE PUSH1 0x2 ADD PUSH2 0x13CB JUMP JUMPDEST DUP1 CALLDATALOAD PUSH1 0x1 PUSH1 0x1 PUSH1 0xA0 SHL SUB DUP2 AND DUP2 EQ PUSH2 0x13FA JUMPI PUSH0 DUP1 REVERT JUMPDEST SWAP2 SWAP1 POP JUMP JUMPDEST PUSH0 PUSH1 0x20 DUP3 DUP5 SUB SLT ISZERO PUSH2 0x140F JUMPI PUSH0 DUP1 REVERT JUMPDEST PUSH2 0x1418 DUP3 PUSH2 0x13E4 JUMP JUMPDEST SWAP4 SWAP3 POP POP POP JUMP JUMPDEST PUSH0 DUP1 PUSH1 0x40 DUP4 DUP6 SUB SLT ISZERO PUSH2 0x1430 JUMPI PUSH0 DUP1 REVERT JUMPDEST PUSH2 0x1439 DUP4 PUSH2 0x13E4 JUMP JUMPDEST SWAP5 PUSH1 0x20 SWAP4 SWAP1 SWAP4 ADD CALLDATALOAD SWAP4 POP POP POP JUMP JUMPDEST PUSH4 0x4E487B71 PUSH1 0xE0 SHL PUSH0 MSTORE PUSH1 0x21 PUSH1 0x4 MSTORE PUSH1 0x24 PUSH0 REVERT JUMPDEST DUP6 DUP2 MSTORE PUSH1 0x20 DUP2 ADD DUP6 SWAP1 MSTORE PUSH1 0x1 PUSH1 0x1 PUSH1 0x40 SHL SUB DUP5 DUP2 AND PUSH1 0x40 DUP4 ADD MSTORE DUP4 AND PUSH1 0x60 DUP3 ADD MSTORE PUSH1 0xA0 DUP2 ADD PUSH1 0x4 DUP4 LT PUSH2 0x149C JUMPI PUSH4 0x4E487B71 PUSH1 0xE0 SHL PUSH0 MSTORE PUSH1 0x21 PUSH1 0x4 MSTORE PUSH1 0x24 PUSH0 REVERT JUMPDEST DUP3 PUSH1 0x80 DUP4 ADD MSTORE SWAP7 SWAP6 POP POP POP POP POP POP JUMP JUMPDEST PUSH0 DUP1 PUSH0 PUSH1 0x60 DUP5 DUP7 SUB SLT ISZERO PUSH2 0x14BE JUMPI PUSH0 DUP1 REVERT JUMPDEST PUSH2 0x14C7 DUP5 PUSH2 0x13E4 JUMP JUMPDEST SWAP6 PUSH1 0x20 DUP6 ADD CALLDATALOAD SWAP6 POP PUSH1 0x40 SWAP1 SWAP5 ADD CALLDATALOAD SWAP4 SWAP3 POP POP POP JUMP JUMPDEST PUSH0 PUSH1 0xA0 DUP3 DUP5 SUB SLT ISZERO PUSH2 0x14EC JUMPI PUSH0 DUP1 REVERT JUMPDEST POP SWAP2 SWAP1 POP JUMP JUMPDEST DUP1 PUSH1 0x40 DUP2 ADD DUP4 LT ISZERO PUSH2 0x1502 JUMPI PUSH0 DUP1 REVERT JUMPDEST SWAP3 SWAP2 POP POP JUMP JUMPDEST DUP1 PUSH1 0x80 DUP2 ADD DUP4 LT ISZERO PUSH2 0x1502 JUMPI PUSH0 DUP1 REVERT JUMPDEST PUSH0 DUP1 PUSH0 DUP1 PUSH0 DUP1 PUSH2 0x140 DUP8 DUP10 SUB SLT ISZERO PUSH2 0x152E JUMPI PUSH0 DUP1 REVERT JUMPDEST DUP7 CALLDATALOAD SWAP6 POP PUSH2 0x153F DUP9 PUSH1 0x20 DUP10 ADD PUSH2 0x14F2 JUMP JUMPDEST SWAP5 POP PUSH2 0x154E DUP9 PUSH1 0x60 DUP10 ADD PUSH2 0x1508 JUMP JUMPDEST SWAP4 POP PUSH2 0x155D DUP9 PUSH1 0xE0 DUP10 ADD PUSH2 0x14F2 JUMP JUMPDEST SWAP3 POP PUSH2 0x120 DUP8 ADD CALLDATALOAD PUSH1 0x1 PUSH1 0x1 PUSH1 0x40 SHL SUB DUP1 DUP3 GT ISZERO PUSH2 0x1579 JUMPI PUSH0 DUP1 REVERT JUMPDEST DUP2 DUP10 ADD SWAP2 POP DUP10 PUSH1 0x1F DUP4 ADD SLT PUSH2 0x158C JUMPI PUSH0 DUP1 REVERT JUMPDEST DUP2 CALLDATALOAD DUP2 DUP2 GT ISZERO PUSH2 0x159A JUMPI PUSH0 DUP1 REVERT JUMPDEST DUP11 PUSH1 0x20 DUP3 PUSH1 0x5 SHL DUP6 ADD ADD GT ISZERO PUSH2 0x15AE JUMPI PUSH0 DUP1 REVERT JUMPDEST PUSH1 0x20 DUP4 ADD SWAP5 POP DUP1 SWAP4 POP POP POP POP SWAP3 SWAP6 POP SWAP3 SWAP6 POP SWAP3 SWAP6 JUMP JUMPDEST PUSH0 DUP1 PUSH0 DUP1 PUSH0 DUP1 PUSH2 0x1E0 DUP8 DUP10 SUB SLT ISZERO PUSH2 0x15DA JUMPI PUSH0 DUP1 REVERT JUMPDEST PUSH2 0x15E4 DUP9 DUP9 PUSH2 0x14F2 JUMP JUMPDEST SWAP6 POP PUSH2 0x15F3 DUP9 PUSH1 0x40 DUP10 ADD PUSH2 0x1508 JUMP JUMPDEST SWAP5 POP PUSH2 0x1602 DUP9 PUSH1 0xC0 DUP10 ADD PUSH2 0x1508 JUMP JUMPDEST SWAP4 POP PUSH2 0x1612 DUP9 PUSH2 0x140 DUP10 ADD PUSH2 0x1508 JUMP JUMPDEST SWAP3 POP PUSH2 0x1C0 DUP8 ADD CALLDATALOAD PUSH1 0x1 PUSH1 0x1 PUSH1 0x40 SHL SUB DUP1 DUP3 GT ISZERO PUSH2 0x162E JUMPI PUSH0 DUP1 REVERT JUMPDEST DUP2 DUP10 ADD SWAP2 POP DUP10 PUSH1 0x1F DUP4 ADD SLT PUSH2 0x1641 JUMPI PUSH0 DUP1 REVERT JUMPDEST DUP2 CALLDATALOAD DUP2 DUP2 GT ISZERO PUSH2 0x164F JUMPI PUSH0 DUP1 REVERT JUMPDEST DUP11 PUSH1 0x20 DUP3 PUSH1 0x6 SHL DUP6 ADD ADD GT ISZERO PUSH2 0x15AE JUMPI PUSH0 DUP1 REVERT JUMPDEST DUP1 ISZERO ISZERO DUP2 EQ PUSH2 0x13B4 JUMPI PUSH0 DUP1 REVERT JUMPDEST PUSH0 PUSH1 0x20 DUP3 DUP5 SUB SLT ISZERO PUSH2 0x1680 JUMPI PUSH0 DUP1 REVERT JUMPDEST DUP2 CALLDATALOAD PUSH2 0x1418 DUP2 PUSH2 0x1663 JUMP JUMPDEST PUSH0 PUSH1 0x20 DUP3 DUP5 SUB SLT ISZERO PUSH2 0x169B JUMPI PUSH0 DUP1 REVERT JUMPDEST POP CALLDATALOAD SWAP2 SWAP1 POP JUMP JUMPDEST PUSH4 0x4E487B71 PUSH1 0xE0 SHL PUSH0 MSTORE PUSH1 0x11 PUSH1 0x4 MSTORE PUSH1 0x24 PUSH0 REVERT JUMPDEST PUSH1 0x1 PUSH1 0x1 PUSH1 0x40 SHL SUB DUP3 DUP2 AND DUP3 DUP3 AND SUB SWAP1 DUP1 DUP3 GT ISZERO PUSH2 0x16D6 JUMPI PUSH2 0x16D6 PUSH2 0x16A2 JUMP JUMPDEST POP SWAP3 SWAP2 POP POP JUMP JUMPDEST PUSH0 DUP2 PUSH2 0x16EB JUMPI PUSH2 0x16EB PUSH2 0x16A2 JUMP JUMPDEST POP PUSH0 NOT ADD SWAP1 JUMP JUMPDEST DUP2 DUP2 SUB DUP2 DUP2 GT ISZERO PUSH2 0x1502 JUMPI PUSH2 0x1502 PUSH2 0x16A2 JUMP JUMPDEST PUSH0 PUSH1 0x20 DUP3 DUP5 SUB SLT ISZERO PUSH2 0x1715 JUMPI PUSH0 DUP1 REVERT JUMPDEST DUP2 MLOAD PUSH2 0x1418 DUP2 PUSH2 0x1663 JUMP JUMPDEST PUSH0 PUSH1 0x20 DUP3 DUP5 SUB SLT ISZERO PUSH2 0x1730 JUMPI PUSH0 DUP1 REVERT JUMPDEST DUP2 CALLDATALOAD PUSH1 0x1 PUSH1 0x1 PUSH1 0x40 SHL SUB DUP2 AND DUP2 EQ PUSH2 0x1418 JUMPI PUSH0 DUP1 REVERT JUMPDEST PUSH1 0x1 PUSH1 0x1 PUSH1 0x40 SHL SUB DUP2 DUP2 AND DUP4 DUP3 AND ADD SWAP1 DUP1 DUP3 GT ISZERO PUSH2 0x16D6 JUMPI PUSH2 0x16D6 PUSH2 0x16A2 JUMP JUMPDEST DUP1 DUP3 ADD DUP1 DUP3 GT ISZERO PUSH2 0x1502 JUMPI PUSH2 0x1502 PUSH2 0x16A2 JUMP JUMPDEST PUSH0 PUSH1 0x1 DUP3 ADD PUSH2 0x178A JUMPI PUSH2 0x178A PUSH2 0x16A2 JUMP JUMPDEST POP PUSH1 0x1 ADD SWAP1 JUMP JUMPDEST PUSH4 0x4E487B71 PUSH1 0xE0 SHL PUSH0 MSTORE PUSH1 0x32 PUSH1 0x4 MSTORE PUSH1 0x24 PUSH0 REVERT INVALID LOG2 PUSH5 0x6970667358 0x22 SLT KECCAK256 BLOBHASH RETURN 0xCD 0xEA MSIZE TLOAD STATICCALL CALL PUSH12 0xBF222A0AFD2AFAE5CA1C7670 PUSH5 0xDE1602D88 DUP12 0xE4 PUSH26 0xB7C564736F6C6343000818003300000000000000000000000000 "},"methodIdentifiers":{"admin()":"f851a440","commitBatch((bytes32,uint64,uint64,bytes32,uint64))":"87cf32cd","enterpriseRegistry()":"3d3bdb88","enterprises(address)":"902e11b6","executeBatch(uint256)":"f8b94e9e","getBatchCounts(address)":"ab2dcc80","getBatchInfo(address,uint256)":"283972df","getCurrentRoot(address)":"b965e0ca","getLastL2Block(address)":"08463070","initializeEnterprise(address,bytes32)":"eac2ce19","isExecutedRoot(address,uint256,bytes32)":"3975a623","proveBatch(uint256,uint256[2],uint256[2][2],uint256[2],uint256[])":"8cb894e8","revertBatch(address)":"06b32e82","setMockProofResult(bool)":"d0173692","setVerifyingKey(uint256[2],uint256[2][2],uint256[2][2],uint256[2][2],uint256[2][])":"99324039","storedBatches(address,uint256)":"8d628602","totalBatchesCommitted()":"a5acf970","totalBatchesExecuted()":"63b43494","totalBatchesProven()":"558f3d40","verifyingKeySet()":"f5282dea"}}}}}