{"contracts/MockEnterpriseRegistry.sol":{"MockEnterpriseRegistry":{"abi":[{"inputs":[{"internalType":"address","name":"enterprise","type":"address"}],"name":"isAuthorized","outputs":[{"internalType":"bool","name":"","type":"bool"}],"stateMutability":"view","type":"function"},{"inputs":[{"internalType":"address","name":"enterprise","type":"address"},{"internalType":"bool","name":"authorized","type":"bool"}],"name":"setAuthorized","outputs":[],"stateMutability":"nonpayable","type":"function"}],"evm":{"bytecode":{"linkReferences":{},"object":"608060405234801561000f575f80fd5b5061015b8061001d5f395ff3fe608060405234801561000f575f80fd5b5060043610610034575f3560e01c8063711bf9b214610038578063fe9fbb8014610072575b5f80fd5b6100706100463660046100cc565b6001600160a01b03919091165f908152602081905260409020805460ff1916911515919091179055565b005b61009d610080366004610105565b6001600160a01b03165f9081526020819052604090205460ff1690565b604051901515815260200160405180910390f35b80356001600160a01b03811681146100c7575f80fd5b919050565b5f80604083850312156100dd575f80fd5b6100e6836100b1565b9150602083013580151581146100fa575f80fd5b809150509250929050565b5f60208284031215610115575f80fd5b61011e826100b1565b939250505056fea2646970667358221220be1a03168ab3e52b88df4c037651f94aeaffa0bde68f657b19b95b787f440fb264736f6c63430008180033","opcodes":"PUSH1 0x80 PUSH1 0x40 MSTORE CALLVALUE DUP1 ISZERO PUSH2 0xF JUMPI PUSH0 DUP1 REVERT JUMPDEST POP PUSH2 0x15B DUP1 PUSH2 0x1D PUSH0 CODECOPY PUSH0 RETURN INVALID PUSH1 0x80 PUSH1 0x40 MSTORE CALLVALUE DUP1 ISZERO PUSH2 0xF JUMPI PUSH0 DUP1 REVERT JUMPDEST POP PUSH1 0x4 CALLDATASIZE LT PUSH2 0x34 JUMPI PUSH0 CALLDATALOAD PUSH1 0xE0 SHR DUP1 PUSH4 0x711BF9B2 EQ PUSH2 0x38 JUMPI DUP1 PUSH4 0xFE9FBB80 EQ PUSH2 0x72 JUMPI JUMPDEST PUSH0 DUP1 REVERT JUMPDEST PUSH2 0x70 PUSH2 0x46 CALLDATASIZE PUSH1 0x4 PUSH2 0xCC JUMP JUMPDEST PUSH1 0x1 PUSH1 0x1 PUSH1 0xA0 SHL SUB SWAP2 SWAP1 SWAP2 AND PUSH0 SWAP1 DUP2 MSTORE PUSH1 0x20 DUP2 SWAP1 MSTORE PUSH1 0x40 SWAP1 KECCAK256 DUP1 SLOAD PUSH1 0xFF NOT AND SWAP2 ISZERO ISZERO SWAP2 SWAP1 SWAP2 OR SWAP1 SSTORE JUMP JUMPDEST STOP JUMPDEST PUSH2 0x9D PUSH2 0x80 CALLDATASIZE PUSH1 0x4 PUSH2 0x105 JUMP JUMPDEST PUSH1 0x1 PUSH1 0x1 PUSH1 0xA0 SHL SUB AND PUSH0 SWAP1 DUP2 MSTORE PUSH1 0x20 DUP2 SWAP1 MSTORE PUSH1 0x40 SWAP1 KECCAK256 SLOAD PUSH1 0xFF AND SWAP1 JUMP JUMPDEST PUSH1 0x40 MLOAD SWAP1 ISZERO ISZERO DUP2 MSTORE PUSH1 0x20 ADD PUSH1 0x40 MLOAD DUP1 SWAP2 SUB SWAP1 RETURN JUMPDEST DUP1 CALLDATALOAD PUSH1 0x1 PUSH1 0x1 PUSH1 0xA0 SHL SUB DUP2 AND DUP2 EQ PUSH2 0xC7 JUMPI PUSH0 DUP1 REVERT JUMPDEST SWAP2 SWAP1 POP JUMP JUMPDEST PUSH0 DUP1 PUSH1 0x40 DUP4 DUP6 SUB SLT ISZERO PUSH2 0xDD JUMPI PUSH0 DUP1 REVERT JUMPDEST PUSH2 0xE6 DUP4 PUSH2 0xB1 JUMP JUMPDEST SWAP2 POP PUSH1 0x20 DUP4 ADD CALLDATALOAD DUP1 ISZERO ISZERO DUP2 EQ PUSH2 0xFA JUMPI PUSH0 DUP1 REVERT JUMPDEST DUP1 SWAP2 POP POP SWAP3 POP SWAP3 SWAP1 POP JUMP JUMPDEST PUSH0 PUSH1 0x20 DUP3 DUP5 SUB SLT ISZERO PUSH2 0x115 JUMPI PUSH0 DUP1 REVERT JUMPDEST PUSH2 0x11E DUP3 PUSH2 0xB1 JUMP JUMPDEST SWAP4 SWAP3 POP POP POP JUMP INVALID LOG2 PUSH5 0x6970667358 0x22 SLT KECCAK256 0xBE BYTE SUB AND DUP11 0xB3 0xE5 0x2B DUP9 0xDF 0x4C SUB PUSH23 0x51F94AEAFFA0BDE68F657B19B95B787F440FB264736F6C PUSH4 0x43000818 STOP CALLER "},"methodIdentifiers":{"isAuthorized(address)":"fe9fbb80","setAuthorized(address,bool)":"711bf9b2"}}}}}